{
  "_format": "hh3-artifact-1",
  "contractName": "Wallegacy",
  "sourceName": "contracts/Wallegacy.sol",
  "abi": [
    {
      "inputs": [],
      "stateMutability": "nonpayable",
      "type": "constructor"
    },
    {
      "inputs": [
        {
          "internalType": "address",
          "name": "owner",
          "type": "address"
        }
      ],
      "name": "OwnableInvalidOwner",
      "type": "error"
    },
    {
      "inputs": [
        {
          "internalType": "address",
          "name": "account",
          "type": "address"
        }
      ],
      "name": "OwnableUnauthorizedAccount",
      "type": "error"
    },
    {
      "inputs": [],
      "name": "WallegacySBT__NoAddress",
      "type": "error"
    },
    {
      "inputs": [],
      "name": "WallegacySBT__NotSet",
      "type": "error"
    },
    {
      "inputs": [
        {
          "internalType": "address",
          "name": "testatorAddress",
          "type": "address"
        },
        {
          "internalType": "address",
          "name": "heirAddress",
          "type": "address"
        },
        {
          "internalType": "uint256",
          "name": "heirAmount",
          "type": "uint256"
        }
      ],
      "name": "Wallegacy__ErrorSendingLegacy",
      "type": "error"
    },
    {
      "inputs": [
        {
          "internalType": "uint256",
          "name": "heirIndex",
          "type": "uint256"
        }
      ],
      "name": "Wallegacy__HeirWithoutAddress",
      "type": "error"
    },
    {
      "inputs": [
        {
          "internalType": "uint8",
          "name": "percent",
          "type": "uint8"
        }
      ],
      "name": "Wallegacy__NewWillNotGoodPercent",
      "type": "error"
    },
    {
      "inputs": [],
      "name": "Wallegacy__NoCancelPossible",
      "type": "error"
    },
    {
      "inputs": [],
      "name": "Wallegacy__NoHeirs",
      "type": "error"
    },
    {
      "inputs": [
        {
          "internalType": "address",
          "name": "testatorAddress",
          "type": "address"
        }
      ],
      "name": "Wallegacy__NoLegacy",
      "type": "error"
    },
    {
      "inputs": [
        {
          "internalType": "address",
          "name": "sender",
          "type": "address"
        }
      ],
      "name": "Wallegacy__NoTestator",
      "type": "error"
    },
    {
      "inputs": [
        {
          "internalType": "address",
          "name": "sender",
          "type": "address"
        }
      ],
      "name": "Wallegacy__NoTestatorNoNotary",
      "type": "error"
    },
    {
      "inputs": [],
      "name": "Wallegacy__NotEnoughAmount",
      "type": "error"
    },
    {
      "inputs": [
        {
          "internalType": "address",
          "name": "sender",
          "type": "address"
        }
      ],
      "name": "Wallegacy__RefundFailed",
      "type": "error"
    },
    {
      "inputs": [],
      "name": "Wallegacy__TestatorHeir",
      "type": "error"
    },
    {
      "inputs": [
        {
          "internalType": "address",
          "name": "sender",
          "type": "address"
        }
      ],
      "name": "Wallegacy__TestatorWithoutWill",
      "type": "error"
    },
    {
      "inputs": [],
      "name": "Wallegacy__Unauthorized",
      "type": "error"
    },
    {
      "inputs": [
        {
          "internalType": "address",
          "name": "testatorAddress",
          "type": "address"
        }
      ],
      "name": "Wallegacy__WillAlreadySet",
      "type": "error"
    },
    {
      "inputs": [
        {
          "internalType": "address",
          "name": "testatorAddress",
          "type": "address"
        }
      ],
      "name": "Wallegacy__WillNoValueLocked",
      "type": "error"
    },
    {
      "inputs": [
        {
          "internalType": "address",
          "name": "testatorAddress",
          "type": "address"
        }
      ],
      "name": "Wallegacy__WillNotFound",
      "type": "error"
    },
    {
      "inputs": [],
      "name": "Wallegacy__WillStatusNotCorrect",
      "type": "error"
    },
    {
      "anonymous": false,
      "inputs": [
        {
          "indexed": true,
          "internalType": "address",
          "name": "testatorAddress",
          "type": "address"
        }
      ],
      "name": "LegacyDone",
      "type": "event"
    },
    {
      "anonymous": false,
      "inputs": [
        {
          "indexed": true,
          "internalType": "address",
          "name": "testatorAddress",
          "type": "address"
        }
      ],
      "name": "LegacySent",
      "type": "event"
    },
    {
      "anonymous": false,
      "inputs": [
        {
          "indexed": true,
          "internalType": "address",
          "name": "heirAddress",
          "type": "address"
        }
      ],
      "name": "LegacySentToHeir",
      "type": "event"
    },
    {
      "anonymous": false,
      "inputs": [
        {
          "indexed": true,
          "internalType": "address",
          "name": "notaryAddress",
          "type": "address"
        },
        {
          "indexed": true,
          "internalType": "address",
          "name": "testatorAddress",
          "type": "address"
        }
      ],
      "name": "NotaryNewWill",
      "type": "event"
    },
    {
      "anonymous": false,
      "inputs": [
        {
          "indexed": true,
          "internalType": "address",
          "name": "notaryAddress",
          "type": "address"
        }
      ],
      "name": "NotaryRegistered",
      "type": "event"
    },
    {
      "anonymous": false,
      "inputs": [
        {
          "indexed": true,
          "internalType": "address",
          "name": "previousOwner",
          "type": "address"
        },
        {
          "indexed": true,
          "internalType": "address",
          "name": "newOwner",
          "type": "address"
        }
      ],
      "name": "OwnershipTransferred",
      "type": "event"
    },
    {
      "anonymous": false,
      "inputs": [
        {
          "indexed": true,
          "internalType": "address",
          "name": "sbtAddess",
          "type": "address"
        }
      ],
      "name": "SBTContractSet",
      "type": "event"
    },
    {
      "anonymous": false,
      "inputs": [
        {
          "indexed": true,
          "internalType": "address",
          "name": "testatorAddress",
          "type": "address"
        }
      ],
      "name": "TestatorRegistered",
      "type": "event"
    },
    {
      "anonymous": false,
      "inputs": [
        {
          "indexed": true,
          "internalType": "address",
          "name": "testator",
          "type": "address"
        },
        {
          "indexed": false,
          "internalType": "uint256",
          "name": "amount",
          "type": "uint256"
        }
      ],
      "name": "TestatorValueLocked",
      "type": "event"
    },
    {
      "anonymous": false,
      "inputs": [
        {
          "indexed": true,
          "internalType": "address",
          "name": "testatorAddress",
          "type": "address"
        }
      ],
      "name": "Wallegacy__TriggerLegacyProcess",
      "type": "event"
    },
    {
      "anonymous": false,
      "inputs": [
        {
          "indexed": true,
          "internalType": "address",
          "name": "testatorAddress",
          "type": "address"
        }
      ],
      "name": "WillCancelled",
      "type": "event"
    },
    {
      "anonymous": false,
      "inputs": [
        {
          "indexed": true,
          "internalType": "address",
          "name": "testator",
          "type": "address"
        }
      ],
      "name": "WillSetUp",
      "type": "event"
    },
    {
      "inputs": [],
      "name": "cancelWill",
      "outputs": [],
      "stateMutability": "nonpayable",
      "type": "function"
    },
    {
      "inputs": [
        {
          "internalType": "address",
          "name": "testatorAddress",
          "type": "address"
        }
      ],
      "name": "claimLegacy",
      "outputs": [],
      "stateMutability": "nonpayable",
      "type": "function"
    },
    {
      "inputs": [
        {
          "internalType": "address",
          "name": "testatorAddress",
          "type": "address"
        }
      ],
      "name": "getLockedValue",
      "outputs": [
        {
          "internalType": "uint256",
          "name": "",
          "type": "uint256"
        }
      ],
      "stateMutability": "view",
      "type": "function"
    },
    {
      "inputs": [],
      "name": "getNotaryWills",
      "outputs": [
        {
          "components": [
            {
              "internalType": "address",
              "name": "testator",
              "type": "address"
            },
            {
              "internalType": "enum Wallegacy.WillStatus",
              "name": "status",
              "type": "uint8"
            },
            {
              "internalType": "bool",
              "name": "exists",
              "type": "bool"
            },
            {
              "components": [
                {
                  "internalType": "address",
                  "name": "heirAddress",
                  "type": "address"
                },
                {
                  "internalType": "uint8",
                  "name": "percent",
                  "type": "uint8"
                },
                {
                  "internalType": "uint256",
                  "name": "legacy",
                  "type": "uint256"
                }
              ],
              "internalType": "struct Wallegacy.Heir[]",
              "name": "heirs",
              "type": "tuple[]"
            },
            {
              "internalType": "address",
              "name": "notary",
              "type": "address"
            },
            {
              "internalType": "uint256",
              "name": "index",
              "type": "uint256"
            }
          ],
          "internalType": "struct Wallegacy.Will[]",
          "name": "",
          "type": "tuple[]"
        }
      ],
      "stateMutability": "view",
      "type": "function"
    },
    {
      "inputs": [],
      "name": "getWill",
      "outputs": [
        {
          "components": [
            {
              "internalType": "address",
              "name": "testator",
              "type": "address"
            },
            {
              "internalType": "enum Wallegacy.WillStatus",
              "name": "status",
              "type": "uint8"
            },
            {
              "internalType": "bool",
              "name": "exists",
              "type": "bool"
            },
            {
              "components": [
                {
                  "internalType": "address",
                  "name": "heirAddress",
                  "type": "address"
                },
                {
                  "internalType": "uint8",
                  "name": "percent",
                  "type": "uint8"
                },
                {
                  "internalType": "uint256",
                  "name": "legacy",
                  "type": "uint256"
                }
              ],
              "internalType": "struct Wallegacy.Heir[]",
              "name": "heirs",
              "type": "tuple[]"
            },
            {
              "internalType": "address",
              "name": "notary",
              "type": "address"
            },
            {
              "internalType": "uint256",
              "name": "index",
              "type": "uint256"
            }
          ],
          "internalType": "struct Wallegacy.Will",
          "name": "",
          "type": "tuple"
        }
      ],
      "stateMutability": "view",
      "type": "function"
    },
    {
      "inputs": [
        {
          "internalType": "address",
          "name": "notaryAddress",
          "type": "address"
        }
      ],
      "name": "isNotary",
      "outputs": [
        {
          "internalType": "bool",
          "name": "",
          "type": "bool"
        }
      ],
      "stateMutability": "view",
      "type": "function"
    },
    {
      "inputs": [],
      "name": "isTestator",
      "outputs": [
        {
          "internalType": "bool",
          "name": "",
          "type": "bool"
        }
      ],
      "stateMutability": "view",
      "type": "function"
    },
    {
      "inputs": [],
      "name": "isWaitingHeir",
      "outputs": [
        {
          "internalType": "bool",
          "name": "",
          "type": "bool"
        }
      ],
      "stateMutability": "view",
      "type": "function"
    },
    {
      "inputs": [],
      "name": "lockTestatorFunds",
      "outputs": [],
      "stateMutability": "payable",
      "type": "function"
    },
    {
      "inputs": [
        {
          "internalType": "address",
          "name": "testatorAddress",
          "type": "address"
        }
      ],
      "name": "newWill",
      "outputs": [],
      "stateMutability": "nonpayable",
      "type": "function"
    },
    {
      "inputs": [],
      "name": "owner",
      "outputs": [
        {
          "internalType": "address",
          "name": "",
          "type": "address"
        }
      ],
      "stateMutability": "view",
      "type": "function"
    },
    {
      "inputs": [
        {
          "internalType": "address",
          "name": "notaryAddress",
          "type": "address"
        }
      ],
      "name": "registerNotary",
      "outputs": [],
      "stateMutability": "nonpayable",
      "type": "function"
    },
    {
      "inputs": [],
      "name": "renounceOwnership",
      "outputs": [],
      "stateMutability": "nonpayable",
      "type": "function"
    },
    {
      "inputs": [],
      "name": "sbtContract",
      "outputs": [
        {
          "internalType": "contract WallegacySBT",
          "name": "",
          "type": "address"
        }
      ],
      "stateMutability": "view",
      "type": "function"
    },
    {
      "inputs": [
        {
          "internalType": "address",
          "name": "_sbtContract",
          "type": "address"
        }
      ],
      "name": "setSBTContract",
      "outputs": [],
      "stateMutability": "nonpayable",
      "type": "function"
    },
    {
      "inputs": [
        {
          "components": [
            {
              "internalType": "address",
              "name": "heirAddress",
              "type": "address"
            },
            {
              "internalType": "uint8",
              "name": "percent",
              "type": "uint8"
            },
            {
              "internalType": "uint256",
              "name": "legacy",
              "type": "uint256"
            }
          ],
          "internalType": "struct Wallegacy.Heir[]",
          "name": "heirsParams",
          "type": "tuple[]"
        }
      ],
      "name": "setUpWill",
      "outputs": [],
      "stateMutability": "payable",
      "type": "function"
    },
    {
      "inputs": [
        {
          "internalType": "address",
          "name": "newOwner",
          "type": "address"
        }
      ],
      "name": "transferOwnership",
      "outputs": [],
      "stateMutability": "nonpayable",
      "type": "function"
    },
    {
      "inputs": [
        {
          "internalType": "address",
          "name": "testatorAddress",
          "type": "address"
        }
      ],
      "name": "triggerLegacyProcess",
      "outputs": [],
      "stateMutability": "nonpayable",
      "type": "function"
    }
  ],
  "bytecode": "0x60806040523461002757610011610036565b61001961002c565b613320610207823961332090f35b610032565b60405190565b5f80fd5b61003f336100a8565b565b90565b60018060a01b031690565b90565b61006661006161006b92610041565b61004f565b610044565b90565b61007790610052565b90565b61008390610044565b90565b61008f9061007a565b9052565b91906100a6905f60208501940190610086565b565b806100c36100bd6100b85f61006e565b61007a565b9161007a565b146100d3576100d1906101a7565b565b6100f66100df5f61006e565b5f918291631e4fbdf760e01b835260048301610093565b0390fd5b5f1c90565b60018060a01b031690565b61011661011b916100fa565b6100ff565b90565b610128905461010a565b90565b5f1b90565b9061014160018060a01b039161012b565b9181191691161790565b61015f61015a61016492610044565b61004f565b610044565b90565b6101709061014b565b90565b61017c90610167565b90565b90565b9061019761019261019e92610173565b61017f565b8254610130565b9055565b5f0190565b6101b05f61011e565b6101ba825f610182565b906101ee6101e87f8be0079c531659141344cd1fd0a4f28419497f9722a3daafe3b4186f6b6457e093610173565b91610173565b916101f761002c565b80610201816101a2565b0390a356fe60806040526004361015610013575b610b03565b61001d5f3561013c565b80630615836014610137578063067a1e16146101325780631a1ab9501461012d57806330095f891461012857806341efb0981461012357806360a0db881461011e5780636d6ccbcf14610119578063715018a61461011457806377c1b66a1461010f5780638da5cb5b1461010a578063b0c6369314610105578063bf1b452f14610100578063d3ea6468146100fb578063d558204e146100f6578063d8663538146100f1578063e95a0866146100ec578063f13eed97146100e75763f2fde38b0361000e57610ad0565b610a9b565b610a72565b610a3d565b610a0a565b6109d5565b610888565b610855565b610820565b6107d5565b6105d5565b6105a2565b61056d565b610518565b6104e5565b6104ab565b6102b2565b610207565b60e01c90565b60405190565b5f80fd5b5f80fd5b5f91031261015a57565b61014c565b1c90565b60018060a01b031690565b61017e906008610183930261015f565b610163565b90565b90610191915461016e565b90565b6101a060075f90610186565b90565b60018060a01b031690565b90565b6101c56101c06101ca926101a3565b6101ae565b6101a3565b90565b6101d6906101b1565b90565b6101e2906101cd565b90565b6101ee906101d9565b9052565b9190610205905f602085019401906101e5565b565b3461023757610217366004610150565b610233610222610194565b61022a610142565b918291826101f2565b0390f35b610148565b5f80fd5b610249906101a3565b90565b61025581610240565b0361025c57565b5f80fd5b9050359061026d8261024c565b565b9060208282031261028857610285915f01610260565b90565b61014c565b90565b6102999061028d565b9052565b91906102b0905f60208501940190610290565b565b346102e2576102de6102cd6102c836600461026f565b610d38565b6102d5610142565b9182918261029d565b0390f35b610148565b6102f090610240565b9052565b634e487b7160e01b5f52602160045260245ffd5b6005111561031257565b6102f4565b9061032182610308565b565b61032c90610317565b90565b61033890610323565b9052565b151590565b61034a9061033c565b9052565b5190565b60209181520190565b60200190565b60ff1690565b61037090610361565b9052565b61037d9061028d565b9052565b906040806103b5936103995f8201515f8601906102e7565b6103ab60208201516020860190610367565b0151910190610374565b565b906103c481606093610381565b0190565b60200190565b906103eb6103e56103de8461034e565b8093610352565b9261035b565b905f5b8181106103fb5750505090565b90919261041461040e60019286516103b7565b946103c8565b91019190916103ee565b906104909060a08061047360c0840161043d5f8801515f8701906102e7565b61044f6020880151602087019061032f565b61046160408801516040870190610341565b606087015185820360608701526103ce565b94610486608082015160808601906102e7565b0151910190610374565b90565b6104a89160208201915f81840391015261041e565b90565b346104db576104bb366004610150565b6104d76104c66111ce565b6104ce610142565b91829182610493565b0390f35b610148565b5f0190565b34610513576104fd6104f836600461026f565b611248565b610505610142565b8061050f816104e0565b0390f35b610148565b346105465761053061052b36600461026f565b611721565b610538610142565b80610542816104e0565b0390f35b610148565b6105549061033c565b9052565b919061056b905f6020850194019061054b565b565b3461059d5761057d366004610150565b610599610588611a13565b610590610142565b91829182610558565b0390f35b610148565b346105d0576105ba6105b536600461026f565b611a9e565b6105c2610142565b806105cc816104e0565b0390f35b610148565b34610603576105e5366004610150565b6105ed611ace565b6105f5610142565b806105ff816104e0565b0390f35b610148565b5f80fd5b601f801991011690565b634e487b7160e01b5f52604160045260245ffd5b906106349061060c565b810190811067ffffffffffffffff82111761064e57604052565b610616565b9061066661065f610142565b928361062a565b565b67ffffffffffffffff81116106805760208091020190565b610616565b5f80fd5b5f80fd5b61069681610361565b0361069d57565b5f80fd5b905035906106ae8261068d565b565b6106b98161028d565b036106c057565b5f80fd5b905035906106d1826106b0565b565b919060608382031261071f57610718906106ed6060610653565b936106fa825f8301610260565b5f86015261070b82602083016106a1565b60208601526040016106c4565b6040830152565b610689565b9092919261073961073482610668565b610653565b93818552606060208601920283019281841161077857915b83831061075e5750505050565b602060609161076d84866106d3565b815201920191610751565b610685565b9080601f8301121561079b5781602061079893359101610724565b90565b610608565b906020828203126107d0575f82013567ffffffffffffffff81116107cb576107c8920161077d565b90565b61023c565b61014c565b6107e86107e33660046107a0565b6121c1565b6107f0610142565b806107fa816104e0565b0390f35b61080790610240565b9052565b919061081e905f602085019401906107fe565b565b3461085057610830366004610150565b61084c61083b6121d0565b610843610142565b9182918261080b565b0390f35b610148565b346108835761086d61086836600461026f565b612615565b610875610142565b8061087f816104e0565b0390f35b610148565b346108b6576108a061089b36600461026f565b612783565b6108a8610142565b806108b2816104e0565b0390f35b610148565b5190565b60209181520190565b60200190565b906109409060a08061092360c084016108ed5f8801515f8701906102e7565b6108ff6020880151602087019061032f565b61091160408801516040870190610341565b606087015185820360608701526103ce565b94610936608082015160808601906102e7565b0151910190610374565b90565b9061094d916108ce565b90565b60200190565b9061096a610963836108bb565b80926108bf565b908161097b602083028401946108c8565b925f915b83831061098e57505050505090565b909192939460206109b06109aa83856001950387528951610943565b97610950565b930193019193929061097f565b6109d29160208201915f818403910152610956565b90565b34610a05576109e5366004610150565b610a016109f0612a14565b6109f8610142565b918291826109bd565b0390f35b610148565b34610a3857610a1a366004610150565b610a22612f37565b610a2a610142565b80610a34816104e0565b0390f35b610148565b34610a6d57610a4d366004610150565b610a69610a58612f41565b610a60610142565b91829182610558565b0390f35b610148565b610a7d366004610150565b610a8561313f565b610a8d610142565b80610a97816104e0565b0390f35b34610acb57610ac7610ab6610ab136600461026f565b613149565b610abe610142565b91829182610558565b0390f35b610148565b34610afe57610ae8610ae336600461026f565b6131cd565b610af0610142565b80610afa816104e0565b0390f35b610148565b5f80fd5b5f90565b5f1c90565b610b1c610b2191610b0b565b610163565b90565b610b2e9054610b10565b90565b90565b610b48610b43610b4d92610b31565b6101ae565b6101a3565b90565b610b5990610b34565b90565b5f80fd5b60e01b90565b90505190610b73826106b0565b565b90602082820312610b8e57610b8b915f01610b66565b90565b61014c565b610b9b610142565b3d5f823e3d90fd5b90565b610bba610bb5610bbf92610ba3565b6101ae565b61028d565b90565b90610bd5610bd06007610b24565b6101d9565b610bef610be9610be45f610b50565b610240565b91610240565b14610cbe57610c356020610c0b610c066007610b24565b6101d9565b6370a0823190610c2a3392610c1e610142565b95869485938493610b60565b83526004830161080b565b03915afa908115610cb9575f91610c8b575b50610c5b610c556001610ba6565b9161028d565b03610c6c57610c6991610d20565b90565b610c87335f9182916376ffc6bf60e11b83526004830161080b565b0390fd5b610cac915060203d8111610cb2575b610ca4818361062a565b810190610b75565b5f610c47565b503d610c9a565b610b93565b5f63330f558d60e01b815280610cd6600482016104e0565b0390fd5b610ce3906101cd565b90565b90610cf090610cda565b5f5260205260405f2090565b90565b610d0b610d1091610b0b565b610cfc565b90565b610d1d9054610cff565b90565b610d3591610d3091506004610ce6565b610d13565b90565b610d4990610d44610b07565b610bc2565b90565b610d5660c0610653565b90565b5f90565b5f90565b5f90565b606090565b5f90565b610d76610d4c565b906020808080808087610d87610d59565b815201610d92610d5d565b815201610d9d610d61565b815201610da8610d65565b815201610db3610d59565b815201610dbe610d6a565b81525050565b610dcc610d6e565b90565b610de1610ddc6007610b24565b6101d9565b610dfb610df5610df05f610b50565b610240565b91610240565b14610eca57610e416020610e17610e126007610b24565b6101d9565b6370a0823190610e363392610e2a610142565b95869485938493610b60565b83526004830161080b565b03915afa908115610ec5575f91610e97575b50610e67610e616001610ba6565b9161028d565b03610e7857610e759061117e565b90565b610e93335f9182916376ffc6bf60e11b83526004830161080b565b0390fd5b610eb8915060203d8111610ebe575b610eb0818361062a565b810190610b75565b5f610e53565b503d610ea6565b610b93565b5f63330f558d60e01b815280610ee2600482016104e0565b0390fd5b90610ef090610cda565b5f5260205260405f2090565b60018060a01b031690565b610f13610f1891610b0b565b610efc565b90565b610f259054610f07565b90565b90610f3290610240565b9052565b60a01c90565b60ff1690565b610f4e610f5391610f36565b610f3c565b90565b610f609054610f42565b90565b90610f6d90610317565b9052565b60a81c90565b60ff1690565b610f89610f8e91610f71565b610f77565b90565b610f9b9054610f7d565b90565b90610fa89061033c565b9052565b5490565b90610fc2610fbd83610668565b610653565b918252565b5f5260205f2090565b60ff1690565b610fe2610fe791610f36565b610fd0565b90565b610ff49054610fd6565b90565b9061100190610361565b9052565b9061100f9061028d565b9052565b61101d6060610653565b90565b9061106e6110656001611031611013565b946110486110405f8301610f1b565b5f8801610f28565b61105f6110565f8301610fea565b60208801610ff7565b01610d13565b60408401611005565b565b61107990611020565b90565b9061108682610fac565b61108f81610fb0565b9261109d6020850191610fc7565b5f915b8383106110ad5750505050565b600260206001926110bd85611070565b8152019201920191906110a0565b52565b9061116361115a60036110df610d4c565b946110f66110ee5f8301610f1b565b5f8801610f28565b61110d6111045f8301610f56565b60208801610f63565b61112461111b5f8301610f91565b60408801610f9e565b61113c6111336001830161107c565b606088016110cb565b61115461114b60028301610f1b565b60808801610f28565b01610d13565b60a08401611005565b565b61116e906110ce565b90565b61117b905161033c565b90565b5061119361118e60023390610ee6565b611165565b6111a86111a260408301611171565b1561033c565b6111af5790565b6111ca335f91829163763da88160e11b83526004830161080b565b0390fd5b6111de6111d9610dc4565b610dcf565b90565b6111ea906101b1565b90565b6111f6906111e1565b90565b5f1b90565b9061120f60018060a01b03916111f9565b9181191691161790565b611222906111e1565b90565b90565b9061123d61123861124492611219565b611225565b82546111fe565b9055565b8061126361125d6112585f610b50565b610240565b91610240565b146112bd5761127b611274826111ed565b6007611228565b6112a57f9ad04d4c6ba7e850cd07be1896cdd4db84780a1c030c4c2a2bc935bbe6bcfc0091610cda565b906112ae610142565b806112b8816104e0565b0390a2565b5f639241a65160e01b8152806112d5600482016104e0565b0390fd5b90565b6112f06112eb6112f592610b31565b6101ae565b61028d565b90565b6001611304910161028d565b90565b634e487b7160e01b5f52603260045260245ffd5b61132481610fac565b82101561133e57611336600291610fc7565b910201905f90565b611307565b90565b9061135090610cda565b5f5260205260405f2090565b9061136860ff916111f9565b9181191691161790565b61137b9061033c565b90565b90565b9061139661139161139d92611372565b61137e565b825461135c565b9055565b634e487b7160e01b5f52601160045260245ffd5b6113c46113ca9193929361028d565b9261028d565b82039182116113d557565b6113a1565b634e487b7160e01b5f525f60045260245ffd5b90565b9061140561140061140c92610cda565b6113ed565b82546111fe565b9055565b60a01b90565b9061142560ff60a01b91611410565b9181191691161790565b61144361143e61144892610361565b6101ae565b610361565b90565b90565b9061146361145e61146a9261142f565b61144b565b8254611416565b9055565b9061147a5f19916111f9565b9181191691161790565b61149861149361149d9261028d565b6101ae565b61028d565b90565b90565b906114b86114b36114bf92611484565b6114a0565b825461146e565b9055565b908082036114d0575b5050565b611510600180846114f15f61151697016114eb5f8801610f1b565b906113f0565b6115085f82016115025f8801610fea565b9061144e565b019201610d13565b906114a3565b5f806114cc565b919061152e5761152c916114c3565b565b6113da565b90565b634e487b7160e01b5f52603160045260245ffd5b5490565b5f5260205f2090565b6115608161154a565b82101561157a5761157260029161154e565b910201905f90565b611307565b1b90565b9190600861159e9102916115985f198461157f565b9261157f565b9181191691161790565b91906115be6115b96115c693611484565b6114a0565b908354611583565b9055565b6115dc916115d6610b07565b916115a8565b565b5f60016115f0928280820155016115ca565b565b905f0361160457611602906115de565b565b6113da565b6116128161154a565b801561163357600190039061163061162a8383611557565b906115f2565b55565b611536565b905090565b6116485f8092611638565b0190565b6116559061163d565b90565b67ffffffffffffffff81116116765761167260209161060c565b0190565b610616565b9061168d61168883611658565b610653565b918252565b606090565b3d5f146116b2576116a73d61167b565b903d5f602084013e5b565b6116ba611692565b906116b0565b6040906116e96116f094969593966116df60608401985f8501906107fe565b60208301906107fe565b0190610290565b565b6116fb90610317565b90565b90565b9061171661171161171d926116f2565b6116fe565b8254611416565b9055565b61173561173060028390610ee6565b6112d9565b9061174a6117445f8401610f91565b1561033c565b6119cf576117575f6112dc565b5b8061177661177061176b60018701610fac565b61028d565b9161028d565b10156119c85761179361178d60018501839061131b565b50611343565b61179e5f8201610f1b565b6117b06117aa33610240565b91610240565b146117c457506117bf906112f8565b611758565b611844906117e05f9594956117db60013390611346565b611381565b6117ec60018201610d13565b926117f960018601610fac565b61180c6118066001610ba6565b9161028d565b1161197e575b5061182761182260018601611533565b611609565b61183f5f916118395f60019201610f1b565b90611346565b611381565b61186c8161186661185760048790610ce6565b9161186183610d13565b6113b5565b906114a3565b6118995f80338461187b610142565b90816118868161164c565b03925af1611892611697565b501561033c565b61195d5750336118c97fec41147ebc2cc79208cb6f7d256ffa8072b45ced3e1d6e464cee1afcc973d30b91610cda565b906118d2610142565b806118dc816104e0565b0390a25b6118ec60018201610fac565b6118fe6118f85f6112dc565b9161028d565b14611908575b5050565b611916905f60039101611701565b6119407f7867f41c7a0a576b3ffff7649039cb7f59d09b0ae7ac3aad454f38f6ba062d4791610cda565b90611949610142565b80611953816104e0565b0390a25f80611904565b8261197a33925f938493637c54d33360e01b8552600485016116c0565b0390fd5b6119c2906119bc6119b1600188016119ab61199b60018b01610fac565b6119a56001610ba6565b906113b5565b9061131b565b50916001880161131b565b9061151d565b5f611812565b50906118e0565b6119ea905f9182916318915a1b60e11b83526004830161080b565b0390fd5b5f90565b6119fe611a0391610b0b565b610f77565b90565b611a1090546119f2565b90565b611a1b6119ee565b50611a30611a2b60053390611346565b611a06565b90565b611a4490611a3f6131d8565b611a46565b565b611a5c6001611a5760068490611346565b611381565b611a867f1e59e06fbc9b065c65d072c1f7a2ed1d81154e6e57768747c6c082207dca730891610cda565b90611a8f610142565b80611a99816104e0565b0390a2565b611aa790611a33565b565b611ab16131d8565b611ab9611abb565b565b611acc611ac75f610b50565b613226565b565b611ad6611aa9565b565b611aea611ae56007610b24565b6101d9565b611b04611afe611af95f610b50565b610240565b91610240565b14611b1457611b1290611b30565b565b5f63330f558d60e01b815280611b2c600482016104e0565b0390fd5b611b42611b3d6007610b24565b6101d9565b611b5c611b56611b515f610b50565b610240565b91610240565b14611c2a57611ba26020611b78611b736007610b24565b6101d9565b6370a0823190611b973392611b8b610142565b95869485938493610b60565b83526004830161080b565b03915afa908115611c25575f91611bf7575b50611bc8611bc26001610ba6565b9161028d565b03611bd857611bd690611f0c565b565b611bf3335f9182916376ffc6bf60e11b83526004830161080b565b0390fd5b611c18915060203d8111611c1e575b611c10818361062a565b810190610b75565b5f611bb4565b503d611c06565b610b93565b5f63330f558d60e01b815280611c42600482016104e0565b0390fd5b611c5a611c55611c5f92610b31565b6101ae565b610361565b90565b90611c6c8261034e565b811015611c7d576020809102010190565b611307565b611c8c9051610240565b90565b611c999051610361565b90565b611cb0611cab611cb592610361565b6101ae565b61028d565b90565b611cc7611ccd9193929361028d565b9261028d565b91611cd983820261028d565b928184041490151715611ce857565b6113a1565b90565b611d04611cff611d0992611ced565b6101ae565b61028d565b90565b634e487b7160e01b5f52601260045260245ffd5b611d2c611d329161028d565b9161028d565b908115611d3d570490565b611d0c565b611d4e611d5491610361565b91610361565b019060ff8211611d6057565b6113a1565b611d79611d74611d7e92611ced565b6101ae565b610361565b90565b611d8a90610361565b9052565b9190611da1905f60208501940190611d81565b565b611dae906002611cb8565b90565b5b818110611dbd575050565b80611dca5f6002936115f2565b01611db2565b9091828110611ddf575b505050565b611dfd611df7611df1611e0895611da3565b92611da3565b92610fc7565b918201910190611db1565b5f8080611dda565b90680100000000000000008111611e395781611e2e611e3793610fac565b90828155611dd0565b565b610616565b5190565b611e4c905161028d565b90565b90611e9260406001611e9894611e725f8201611e6c5f8801611c82565b906113f0565b611e8a5f8201611e8460208801611c8f565b9061144e565b019201611e42565b906114a3565b565b90611ea491611e4f565b565b611ecb611ec5611eb58461034e565b93611ec08585611e10565b61035b565b91610fc7565b5f915b838310611edb5750505050565b6002602082611ef4611eee600195611e3e565b86611e9a565b01920192019190611ece565b90611f0a91611ea6565b565b611f158161034e565b611f27611f215f6112dc565b9161028d565b146121a55734611f3f611f395f6112dc565b9161028d565b111561218957611f59611f5460023390610ee6565b6112d9565b90611f6e611f685f8401610f91565b1561033c565b61216a57611f7b5f611c46565b92611f855f6112dc565b935b84611fa2611f9c611f978661034e565b61028d565b9161028d565b10156120c857611fbe5f611fb7858890611c62565b5101611c82565b611fd8611fd2611fcd5f610b50565b610240565b91610240565b146120a957611ff35f611fec858890611c62565b5101611c82565b612005611fff33610240565b91610240565b1461208d57612081612087916120646120506120408961203a612035602061202e34948d611c62565b5101611c8f565b611c9c565b90611cb8565b61204a6064611cf0565b90611d20565b604061205d888b90611c62565b5101611005565b61207b6020612074878a90611c62565b5101611c8f565b90611d42565b946112f8565b93611f87565b5f6304df4acf60e31b8152806120a5600482016104e0565b0390fd5b6120c4855f9182916321df4dfd60e01b83526004830161029d565b0390fd5b909350806120df6120d96064611d65565b91610361565b0361214b5750906120fe612108926120f561313f565b60018301611f00565b5f60019101611701565b336121337f2876366326174fcdb3de4d2c886645201d572dcc433593a3369e8da520e4c10691610cda565b9061213c610142565b80612146816104e0565b0390a2565b612166905f9182916333e5960f60e11b835260048301611d8e565b0390fd5b612185335f91829163bf8b146560e01b83526004830161080b565b0390fd5b5f631f7b263d60e01b8152806121a1600482016104e0565b0390fd5b5f6381a1a10760e01b8152806121bd600482016104e0565b0390fd5b6121ca90611ad8565b565b5f90565b6121d86121cc565b506121e25f610f1b565b90565b6122026121fc6121f760063390611346565b611a06565b1561033c565b6122115761220f9061222d565b565b5f631135d65360e11b815280612229600482016104e0565b0390fd5b61223f61223a6007610b24565b6101d9565b61225961225361224e5f610b50565b610240565b91610240565b14612269576122679061245b565b565b5f63330f558d60e01b815280612281600482016104e0565b0390fd5b606090565b9061229490610cda565b5f5260205260405f2090565b5490565b6122ae60c0610653565b90565b6122bb9051610317565b90565b60a81b90565b906122d360ff60a81b916122be565b9181191691161790565b906122f26122ed6122f992611372565b61137e565b82546122c4565b9055565b5190565b9061238e60a06003612394946123245f820161231e5f8801611c82565b906113f0565b61233c5f8201612336602088016122b1565b90611701565b6123545f820161234e60408801611171565b906122dd565b61236d60018201612367606088016122fd565b90611f00565b6123866002820161238060808801611c82565b906113f0565b019201611e42565b906114a3565b565b906123a091612301565b565b90565b5f5260205f2090565b5490565b6123bb816123ae565b8210156123d5576123cd6001916123a5565b910201905f90565b611307565b919060086123fa9102916123f460018060a01b038461157f565b9261157f565b9181191691161790565b919061241a61241561242293610cda565b6113ed565b9083546123da565b9055565b9081549168010000000000000000831015612456578261244e916001612454950181556123b2565b90612404565b565b610616565b6124715f61246b60028490610ee6565b01610f91565b6125f6576124ff612480612285565b6124ee83916124e55f916124dc6001916124d333936124ca6124ac6124a76003339061228a565b6122a0565b976124c16124b86122a4565b9b5f8d01610f28565b60208b01610f63565b60408901610f9e565b606087016110cb565b60808501610f28565b60a08301611005565b6124fa60028490610ee6565b612396565b61250881613285565b61252661251f61251a6003339061228a565b6123a2565b8290612426565b612568602061253d6125386007610b24565b6101d9565b636a6278429061255d5f8693612551610142565b96879586948593610b60565b83526004830161080b565b03925af180156125f1576125c5575b5033906125ad6125a77fa13d29c70439b6e78acbb3edfde073aead7bc08e982c0bbfc2d8ac984c6b3d6693610cda565b91610cda565b916125b6610142565b806125c0816104e0565b0390a3565b6125e59060203d81116125ea575b6125dd818361062a565b810190610b75565b612577565b503d6125d3565b610b93565b612611905f918291637f281e0960e01b83526004830161080b565b0390fd5b61261e906121e5565b565b61263d61263761263260063390611346565b611a06565b1561033c565b61264c5761264a90612668565b565b5f631135d65360e11b815280612664600482016104e0565b0390fd5b61268561267f61267a60058490611346565b611a06565b1561033c565b6127645761269d61269860028390610ee6565b6112d9565b916126ab60025f8501611701565b6126b45f6112dc565b5b806126d36126cd6126c860018801610fac565b61028d565b9161028d565b101561271f5761271a906127156126f76126f160018801849061131b565b50611343565b61271060019161270a5f60019201610f1b565b90611346565b611381565b6112f8565b6126b5565b50915061274c7f571ea8006007033bbd5f1edc1babe29f66f4b127efe354a815e4b2330dcda20091610cda565b90612755610142565b8061275f816104e0565b0390a2565b61277f905f9182916376ffc6bf60e11b83526004830161080b565b0390fd5b61278c90612620565b565b606090565b6127b06127aa6127a560063390611346565b611a06565b1561033c565b6127c0576127bd90612971565b90565b5f631135d65360e11b8152806127d8600482016104e0565b0390fd5b60209181520190565b5f5260205f2090565b906127fb816020936102e7565b0190565b6128099054610f07565b90565b60010190565b9061282f612829612822846122a0565b80936127dc565b926127e5565b905f5b81811061283f5750505090565b90919261285f612859600192612854876127ff565b6127ee565b9461280c565b9101919091612832565b9061287391612812565b90565b9061289661288f92612886610142565b93848092612869565b038361062a565b565b6128a190612876565b90565b5190565b67ffffffffffffffff81116128c05760208091020190565b610616565b906128d76128d2836128a8565b610653565b918252565b6128e4610d6e565b90565b5f5b8281106128f557505050565b6020906129006128dc565b81840152016128e9565b9061292f612917836128c5565b9260208061292586936128a8565b92019103906128e7565b565b9061293b826128a4565b81101561294c576020809102010190565b611307565b9061295b826108bb565b81101561296c576020809102010190565b611307565b506129866129816003339061228a565b612898565b612997612992826128a4565b61290a565b906129a15f6112dc565b5b806129bd6129b76129b2856128a4565b61028d565b9161028d565b1015612a0f57612a0a90612a036129e860026129e26129dd878690612931565b611c82565b90610ee6565b856129f38492611165565b6129fd8383612951565b52612951565b51506112f8565b6129a2565b505090565b612a24612a1f61278e565b612793565b90565b612a39612a346007610b24565b6101d9565b612a53612a4d612a485f610b50565b610240565b91610240565b14612a6257612a60612a7e565b565b5f63330f558d60e01b815280612a7a600482016104e0565b0390fd5b612a90612a8b6007610b24565b6101d9565b612aaa612aa4612a9f5f610b50565b610240565b91610240565b14612b7757612af06020612ac6612ac16007610b24565b6101d9565b6370a0823190612ae53392612ad9610142565b95869485938493610b60565b83526004830161080b565b03915afa908115612b72575f91612b44575b50612b16612b106001610ba6565b9161028d565b03612b2557612b23612c52565b565b612b40335f9182916376ffc6bf60e11b83526004830161080b565b0390fd5b612b65915060203d8111612b6b575b612b5d818361062a565b810190610b75565b5f612b02565b503d612b53565b610b93565b5f63330f558d60e01b815280612b8f600482016104e0565b0390fd5b5f612b9d91611e10565b565b905f03612bb157612baf90612b93565b565b6113da565b612bc6906008612bcb930261015f565b610efc565b90565b90612bd99154612bb6565b90565b612bee91612be86121cc565b91612404565b565b612bf9816123ae565b8015612c1a576001900390612c17612c1183836123b2565b90612bdc565b55565b611536565b5f910312612c2957565b61014c565b612c37906101b1565b90565b612c4390612c2e565b90565b612c4f906101cd565b90565b612c66612c6160023390610ee6565b6112d9565b612c715f8201610f56565b612c84612c7e6002610317565b91610317565b14612f1b57612d83612ca0612c9b60043390610ce6565b610d13565b91612d45612d40612cbf6003612cb860028601610f1b565b9401610d13565b92612cd85f6001612cd260023390610ee6565b01612b9f565b612cf5612ce45f6112dc565b612cf060043390610ce6565b6114a3565b612d0c5f5f612d0660023390610ee6565b016122dd565b612d2460045f612d1e60023390610ee6565b01611701565b612d395f612d3460053390611346565b611381565b600361228a565b6123a2565b90612d62612d52836123ae565b612d5c6001610ba6565b906113b5565b9080612d76612d708461028d565b9161028d565b03612ed5575b5050612bf0565b612d95612d906007610b24565b6101d9565b6389afcb4433823b15612ed057612dcb92612dc05f8094612db4610142565b96879586948593610b60565b83526004830161080b565b03925af18015612ecb57612e9f575b5080612dee612de85f6112dc565b9161028d565b11612e38575b5033612e207fc17d6b506af5eb977ab917816ea2471b340abd3d29485bbbb1eec1fc468f38a991610cda565b90612e29610142565b80612e33816104e0565b0390a2565b5f80612e7692612e4f612e4a33612c3a565b612c46565b90612e58610142565b9081612e638161164c565b03925af1612e6f611697565b501561033c565b612e80575f612df4565b612e9b335f918291634754b9cf60e01b83526004830161080b565b0390fd5b612ebe905f3d8111612ec4575b612eb6818361062a565b810190612c1f565b5f612dda565b503d612eac565b610b93565b610b5c565b6003612f0e612ef0612eea612f1495876123b2565b90612bce565b92612f0684612f008884906123b2565b90612404565b926002610ee6565b016114a3565b5f80612d7c565b5f631d441b0160e11b815280612f33600482016104e0565b0390fd5b612f3f612a27565b565b612f496119ee565b50612f5e612f5960013390611346565b611a06565b90565b612f73612f6e6007610b24565b6101d9565b612f8d612f87612f825f610b50565b610240565b91610240565b1461305a57612fd36020612fa9612fa46007610b24565b6101d9565b6370a0823190612fc83392612fbc610142565b95869485938493610b60565b83526004830161080b565b03915afa908115613055575f91613027575b50612ff9612ff36001610ba6565b9161028d565b036130085761300661309b565b565b613023335f9182916376ffc6bf60e11b83526004830161080b565b0390fd5b613048915060203d811161304e575b613040818361062a565b810190610b75565b5f612fe5565b503d613036565b610b93565b5f63330f558d60e01b815280613072600482016104e0565b0390fd5b61308561308b9193929361028d565b9261028d565b820180921161309657565b6113a1565b346130ae6130a85f6112dc565b9161028d565b1115613123576130dc346130d66130c760043390610ce6565b916130d183610d13565b613076565b906114a3565b33349061311e61310c7f61d85293b98e7ffc5c0037f242855b175f52fb85a8c626f201b6905ae3531a7a92610cda565b92613115610142565b9182918261029d565b0390a2565b5f631f7b263d60e01b81528061313b600482016104e0565b0390fd5b613147612f61565b565b613160613165916131586119ee565b506006611346565b611a06565b90565b613179906131746131d8565b61317b565b565b8061319661319061318b5f610b50565b610240565b91610240565b146131a6576131a490613226565b565b6131c96131b25f610b50565b5f918291631e4fbdf760e01b83526004830161080b565b0390fd5b6131d690613168565b565b6131e06121d0565b6131f96131f36131ee6132dd565b610240565b91610240565b0361320057565b61322261320b6132dd565b5f91829163118cdaa760e01b83526004830161080b565b0390fd5b61322f5f610f1b565b613239825f6113f0565b9061326d6132677f8be0079c531659141344cd1fd0a4f28419497f9722a3daafe3b4186f6b6457e093610cda565b91610cda565b91613276610142565b80613280816104e0565b0390a3565b61329b600161329660058490611346565b611381565b6132c57f4ae785db89f2d840bd297642a60ba580a721c04f519d8b0ed74c1c21dbed9ce791610cda565b906132ce610142565b806132d8816104e0565b0390a2565b6132e56121cc565b50339056fea26469706673582212207ba662a014c1b61c55c829ca0dc7f6a2444d04571eba7decbe13dbcbc7e5f47764736f6c634300081e0033",
  "linkReferences": {},
  "deployedLinkReferences": {},
  "immutableReferences": {},
  "inputSourceName": "project/contracts/Wallegacy.sol",
  "buildInfoId": "solc-0_8_30-566932ab8cc0a9022cca26b9a667ee91dc4dc651"
}