{
    "_format": "hh3-artifact-1",
    "contractName": "Wallegacy",
    "sourceName": "contracts/Wallegacy.sol",
    "abi": [
        {
            "inputs": [],
            "stateMutability": "nonpayable",
            "type": "constructor"
        },
        {
            "inputs": [
                {
                    "internalType": "address",
                    "name": "owner",
                    "type": "address"
                }
            ],
            "name": "OwnableInvalidOwner",
            "type": "error"
        },
        {
            "inputs": [
                {
                    "internalType": "address",
                    "name": "account",
                    "type": "address"
                }
            ],
            "name": "OwnableUnauthorizedAccount",
            "type": "error"
        },
        {
            "inputs": [],
            "name": "WallegacySBT__NoAddress",
            "type": "error"
        },
        {
            "inputs": [],
            "name": "WallegacySBT__NotSet",
            "type": "error"
        },
        {
            "inputs": [
                {
                    "internalType": "address",
                    "name": "testatorAddress",
                    "type": "address"
                },
                {
                    "internalType": "address",
                    "name": "heirAddress",
                    "type": "address"
                },
                {
                    "internalType": "uint256",
                    "name": "heirAmount",
                    "type": "uint256"
                }
            ],
            "name": "Wallegacy__ErrorSendingLegacy",
            "type": "error"
        },
        {
            "inputs": [
                {
                    "internalType": "uint256",
                    "name": "heirIndex",
                    "type": "uint256"
                }
            ],
            "name": "Wallegacy__HeirWithoutAddress",
            "type": "error"
        },
        {
            "inputs": [
                {
                    "internalType": "uint8",
                    "name": "percent",
                    "type": "uint8"
                }
            ],
            "name": "Wallegacy__NewWillNotGoodPercent",
            "type": "error"
        },
        {
            "inputs": [],
            "name": "Wallegacy__NoCancelPossible",
            "type": "error"
        },
        {
            "inputs": [],
            "name": "Wallegacy__NoHeirs",
            "type": "error"
        },
        {
            "inputs": [
                {
                    "internalType": "address",
                    "name": "testatorAddress",
                    "type": "address"
                }
            ],
            "name": "Wallegacy__NoLegacy",
            "type": "error"
        },
        {
            "inputs": [
                {
                    "internalType": "address",
                    "name": "sender",
                    "type": "address"
                }
            ],
            "name": "Wallegacy__NoTestator",
            "type": "error"
        },
        {
            "inputs": [
                {
                    "internalType": "address",
                    "name": "sender",
                    "type": "address"
                }
            ],
            "name": "Wallegacy__NoTestatorNoNotary",
            "type": "error"
        },
        {
            "inputs": [],
            "name": "Wallegacy__NoWaitingHeir",
            "type": "error"
        },
        {
            "inputs": [],
            "name": "Wallegacy__NotEnoughAmount",
            "type": "error"
        },
        {
            "inputs": [],
            "name": "Wallegacy__NotaryAlreadyRegistered",
            "type": "error"
        },
        {
            "inputs": [
                {
                    "internalType": "address",
                    "name": "sender",
                    "type": "address"
                }
            ],
            "name": "Wallegacy__RefundFailed",
            "type": "error"
        },
        {
            "inputs": [],
            "name": "Wallegacy__TestatorHeir",
            "type": "error"
        },
        {
            "inputs": [
                {
                    "internalType": "address",
                    "name": "sender",
                    "type": "address"
                }
            ],
            "name": "Wallegacy__TestatorWithoutWill",
            "type": "error"
        },
        {
            "inputs": [],
            "name": "Wallegacy__Unauthorized",
            "type": "error"
        },
        {
            "inputs": [
                {
                    "internalType": "address",
                    "name": "testatorAddress",
                    "type": "address"
                }
            ],
            "name": "Wallegacy__WillAlreadySet",
            "type": "error"
        },
        {
            "inputs": [
                {
                    "internalType": "address",
                    "name": "testatorAddress",
                    "type": "address"
                }
            ],
            "name": "Wallegacy__WillNoValueLocked",
            "type": "error"
        },
        {
            "inputs": [
                {
                    "internalType": "address",
                    "name": "testatorAddress",
                    "type": "address"
                }
            ],
            "name": "Wallegacy__WillNotFound",
            "type": "error"
        },
        {
            "inputs": [],
            "name": "Wallegacy__WillStatusNotCorrect",
            "type": "error"
        },
        {
            "anonymous": false,
            "inputs": [
                {
                    "indexed": true,
                    "internalType": "address",
                    "name": "testatorAddress",
                    "type": "address"
                }
            ],
            "name": "LegacyDone",
            "type": "event"
        },
        {
            "anonymous": false,
            "inputs": [
                {
                    "indexed": true,
                    "internalType": "address",
                    "name": "testatorAddress",
                    "type": "address"
                }
            ],
            "name": "LegacySent",
            "type": "event"
        },
        {
            "anonymous": false,
            "inputs": [
                {
                    "indexed": true,
                    "internalType": "address",
                    "name": "heirAddress",
                    "type": "address"
                }
            ],
            "name": "LegacySentToHeir",
            "type": "event"
        },
        {
            "anonymous": false,
            "inputs": [
                {
                    "indexed": true,
                    "internalType": "address",
                    "name": "notaryAddress",
                    "type": "address"
                },
                {
                    "indexed": true,
                    "internalType": "address",
                    "name": "testatorAddress",
                    "type": "address"
                }
            ],
            "name": "NotaryNewWill",
            "type": "event"
        },
        {
            "anonymous": false,
            "inputs": [
                {
                    "indexed": true,
                    "internalType": "address",
                    "name": "notaryAddress",
                    "type": "address"
                }
            ],
            "name": "NotaryRegistered",
            "type": "event"
        },
        {
            "anonymous": false,
            "inputs": [
                {
                    "indexed": true,
                    "internalType": "address",
                    "name": "previousOwner",
                    "type": "address"
                },
                {
                    "indexed": true,
                    "internalType": "address",
                    "name": "newOwner",
                    "type": "address"
                }
            ],
            "name": "OwnershipTransferred",
            "type": "event"
        },
        {
            "anonymous": false,
            "inputs": [
                {
                    "indexed": true,
                    "internalType": "address",
                    "name": "sbtAddess",
                    "type": "address"
                }
            ],
            "name": "SBTContractSet",
            "type": "event"
        },
        {
            "anonymous": false,
            "inputs": [
                {
                    "indexed": true,
                    "internalType": "address",
                    "name": "testatorAddress",
                    "type": "address"
                }
            ],
            "name": "TestatorRegistered",
            "type": "event"
        },
        {
            "anonymous": false,
            "inputs": [
                {
                    "indexed": true,
                    "internalType": "address",
                    "name": "testator",
                    "type": "address"
                },
                {
                    "indexed": false,
                    "internalType": "uint256",
                    "name": "amount",
                    "type": "uint256"
                }
            ],
            "name": "TestatorValueLocked",
            "type": "event"
        },
        {
            "anonymous": false,
            "inputs": [
                {
                    "indexed": true,
                    "internalType": "address",
                    "name": "testatorAddress",
                    "type": "address"
                }
            ],
            "name": "Wallegacy__TriggerLegacyProcess",
            "type": "event"
        },
        {
            "anonymous": false,
            "inputs": [
                {
                    "indexed": true,
                    "internalType": "address",
                    "name": "testatorAddress",
                    "type": "address"
                }
            ],
            "name": "WillCancelled",
            "type": "event"
        },
        {
            "anonymous": false,
            "inputs": [
                {
                    "indexed": true,
                    "internalType": "address",
                    "name": "testator",
                    "type": "address"
                }
            ],
            "name": "WillSetUp",
            "type": "event"
        },
        {
            "inputs": [],
            "name": "cancelWill",
            "outputs": [],
            "stateMutability": "nonpayable",
            "type": "function"
        },
        {
            "inputs": [
                {
                    "internalType": "address",
                    "name": "testatorAddress",
                    "type": "address"
                }
            ],
            "name": "claimLegacy",
            "outputs": [],
            "stateMutability": "nonpayable",
            "type": "function"
        },
        {
            "inputs": [
                {
                    "internalType": "address",
                    "name": "testatorAddress",
                    "type": "address"
                }
            ],
            "name": "getLockedValue",
            "outputs": [
                {
                    "internalType": "uint256",
                    "name": "",
                    "type": "uint256"
                }
            ],
            "stateMutability": "view",
            "type": "function"
        },
        {
            "inputs": [],
            "name": "getNotaryWills",
            "outputs": [
                {
                    "components": [
                        {
                            "internalType": "address",
                            "name": "testator",
                            "type": "address"
                        },
                        {
                            "internalType": "enum Wallegacy.WillStatus",
                            "name": "status",
                            "type": "uint8"
                        },
                        {
                            "internalType": "bool",
                            "name": "exists",
                            "type": "bool"
                        },
                        {
                            "components": [
                                {
                                    "internalType": "address",
                                    "name": "heirAddress",
                                    "type": "address"
                                },
                                {
                                    "internalType": "uint8",
                                    "name": "percent",
                                    "type": "uint8"
                                },
                                {
                                    "internalType": "uint256",
                                    "name": "legacy",
                                    "type": "uint256"
                                }
                            ],
                            "internalType": "struct Wallegacy.Heir[]",
                            "name": "heirs",
                            "type": "tuple[]"
                        },
                        {
                            "internalType": "address",
                            "name": "notary",
                            "type": "address"
                        },
                        {
                            "internalType": "uint256",
                            "name": "index",
                            "type": "uint256"
                        }
                    ],
                    "internalType": "struct Wallegacy.Will[]",
                    "name": "",
                    "type": "tuple[]"
                }
            ],
            "stateMutability": "view",
            "type": "function"
        },
        {
            "inputs": [],
            "name": "getWill",
            "outputs": [
                {
                    "components": [
                        {
                            "internalType": "address",
                            "name": "testator",
                            "type": "address"
                        },
                        {
                            "internalType": "enum Wallegacy.WillStatus",
                            "name": "status",
                            "type": "uint8"
                        },
                        {
                            "internalType": "bool",
                            "name": "exists",
                            "type": "bool"
                        },
                        {
                            "components": [
                                {
                                    "internalType": "address",
                                    "name": "heirAddress",
                                    "type": "address"
                                },
                                {
                                    "internalType": "uint8",
                                    "name": "percent",
                                    "type": "uint8"
                                },
                                {
                                    "internalType": "uint256",
                                    "name": "legacy",
                                    "type": "uint256"
                                }
                            ],
                            "internalType": "struct Wallegacy.Heir[]",
                            "name": "heirs",
                            "type": "tuple[]"
                        },
                        {
                            "internalType": "address",
                            "name": "notary",
                            "type": "address"
                        },
                        {
                            "internalType": "uint256",
                            "name": "index",
                            "type": "uint256"
                        }
                    ],
                    "internalType": "struct Wallegacy.Will",
                    "name": "",
                    "type": "tuple"
                }
            ],
            "stateMutability": "view",
            "type": "function"
        },
        {
            "inputs": [
                {
                    "internalType": "address",
                    "name": "notaryAddress",
                    "type": "address"
                }
            ],
            "name": "isNotary",
            "outputs": [
                {
                    "internalType": "bool",
                    "name": "",
                    "type": "bool"
                }
            ],
            "stateMutability": "view",
            "type": "function"
        },
        {
            "inputs": [],
            "name": "isTestator",
            "outputs": [
                {
                    "internalType": "bool",
                    "name": "",
                    "type": "bool"
                }
            ],
            "stateMutability": "view",
            "type": "function"
        },
        {
            "inputs": [],
            "name": "isWaitingHeir",
            "outputs": [
                {
                    "internalType": "bool",
                    "name": "",
                    "type": "bool"
                }
            ],
            "stateMutability": "view",
            "type": "function"
        },
        {
            "inputs": [],
            "name": "lockTestatorFunds",
            "outputs": [],
            "stateMutability": "payable",
            "type": "function"
        },
        {
            "inputs": [
                {
                    "internalType": "address",
                    "name": "testatorAddress",
                    "type": "address"
                }
            ],
            "name": "newWill",
            "outputs": [],
            "stateMutability": "nonpayable",
            "type": "function"
        },
        {
            "inputs": [],
            "name": "owner",
            "outputs": [
                {
                    "internalType": "address",
                    "name": "",
                    "type": "address"
                }
            ],
            "stateMutability": "view",
            "type": "function"
        },
        {
            "inputs": [
                {
                    "internalType": "address",
                    "name": "notaryAddress",
                    "type": "address"
                }
            ],
            "name": "registerNotary",
            "outputs": [],
            "stateMutability": "nonpayable",
            "type": "function"
        },
        {
            "inputs": [],
            "name": "renounceOwnership",
            "outputs": [],
            "stateMutability": "nonpayable",
            "type": "function"
        },
        {
            "inputs": [],
            "name": "sbtContract",
            "outputs": [
                {
                    "internalType": "contract WallegacySBT",
                    "name": "",
                    "type": "address"
                }
            ],
            "stateMutability": "view",
            "type": "function"
        },
        {
            "inputs": [
                {
                    "internalType": "address",
                    "name": "_sbtContract",
                    "type": "address"
                }
            ],
            "name": "setSBTContract",
            "outputs": [],
            "stateMutability": "nonpayable",
            "type": "function"
        },
        {
            "inputs": [
                {
                    "components": [
                        {
                            "internalType": "address",
                            "name": "heirAddress",
                            "type": "address"
                        },
                        {
                            "internalType": "uint8",
                            "name": "percent",
                            "type": "uint8"
                        },
                        {
                            "internalType": "uint256",
                            "name": "legacy",
                            "type": "uint256"
                        }
                    ],
                    "internalType": "struct Wallegacy.Heir[]",
                    "name": "heirsParams",
                    "type": "tuple[]"
                }
            ],
            "name": "setUpWill",
            "outputs": [],
            "stateMutability": "payable",
            "type": "function"
        },
        {
            "inputs": [
                {
                    "internalType": "address",
                    "name": "newOwner",
                    "type": "address"
                }
            ],
            "name": "transferOwnership",
            "outputs": [],
            "stateMutability": "nonpayable",
            "type": "function"
        },
        {
            "inputs": [
                {
                    "internalType": "address",
                    "name": "testatorAddress",
                    "type": "address"
                }
            ],
            "name": "triggerLegacyProcess",
            "outputs": [],
            "stateMutability": "nonpayable",
            "type": "function"
        }
    ],
    "bytecode": "0x60806040523461002757610011610036565b61001961002c565b61343c610207823961343c90f35b610032565b60405190565b5f80fd5b61003f336100a8565b565b90565b60018060a01b031690565b90565b61006661006161006b92610041565b61004f565b610044565b90565b61007790610052565b90565b61008390610044565b90565b61008f9061007a565b9052565b91906100a6905f60208501940190610086565b565b806100c36100bd6100b85f61006e565b61007a565b9161007a565b146100d3576100d1906101a7565b565b6100f66100df5f61006e565b5f918291631e4fbdf760e01b835260048301610093565b0390fd5b5f1c90565b60018060a01b031690565b61011661011b916100fa565b6100ff565b90565b610128905461010a565b90565b5f1b90565b9061014160018060a01b039161012b565b9181191691161790565b61015f61015a61016492610044565b61004f565b610044565b90565b6101709061014b565b90565b61017c90610167565b90565b90565b9061019761019261019e92610173565b61017f565b8254610130565b9055565b5f0190565b6101b05f61011e565b6101ba825f610182565b906101ee6101e87f8be0079c531659141344cd1fd0a4f28419497f9722a3daafe3b4186f6b6457e093610173565b91610173565b916101f761002c565b80610201816101a2565b0390a356fe60806040526004361015610013575b610b03565b61001d5f3561013c565b80630615836014610137578063067a1e16146101325780631a1ab9501461012d57806330095f891461012857806341efb0981461012357806360a0db881461011e5780636d6ccbcf14610119578063715018a61461011457806377c1b66a1461010f5780638da5cb5b1461010a578063b0c6369314610105578063bf1b452f14610100578063d3ea6468146100fb578063d558204e146100f6578063d8663538146100f1578063e95a0866146100ec578063f13eed97146100e75763f2fde38b0361000e57610ad0565b610a9b565b610a72565b610a3d565b610a0a565b6109d5565b610888565b610855565b610820565b6107d5565b6105d5565b6105a2565b61056d565b610518565b6104e5565b6104ab565b6102b2565b610207565b60e01c90565b60405190565b5f80fd5b5f80fd5b5f91031261015a57565b61014c565b1c90565b60018060a01b031690565b61017e906008610183930261015f565b610163565b90565b90610191915461016e565b90565b6101a060075f90610186565b90565b60018060a01b031690565b90565b6101c56101c06101ca926101a3565b6101ae565b6101a3565b90565b6101d6906101b1565b90565b6101e2906101cd565b90565b6101ee906101d9565b9052565b9190610205905f602085019401906101e5565b565b3461023757610217366004610150565b610233610222610194565b61022a610142565b918291826101f2565b0390f35b610148565b5f80fd5b610249906101a3565b90565b61025581610240565b0361025c57565b5f80fd5b9050359061026d8261024c565b565b9060208282031261028857610285915f01610260565b90565b61014c565b90565b6102999061028d565b9052565b91906102b0905f60208501940190610290565b565b346102e2576102de6102cd6102c836600461026f565b610d38565b6102d5610142565b9182918261029d565b0390f35b610148565b6102f090610240565b9052565b634e487b7160e01b5f52602160045260245ffd5b6005111561031257565b6102f4565b9061032182610308565b565b61032c90610317565b90565b61033890610323565b9052565b151590565b61034a9061033c565b9052565b5190565b60209181520190565b60200190565b60ff1690565b61037090610361565b9052565b61037d9061028d565b9052565b906040806103b5936103995f8201515f8601906102e7565b6103ab60208201516020860190610367565b0151910190610374565b565b906103c481606093610381565b0190565b60200190565b906103eb6103e56103de8461034e565b8093610352565b9261035b565b905f5b8181106103fb5750505090565b90919261041461040e60019286516103b7565b946103c8565b91019190916103ee565b906104909060a08061047360c0840161043d5f8801515f8701906102e7565b61044f6020880151602087019061032f565b61046160408801516040870190610341565b606087015185820360608701526103ce565b94610486608082015160808601906102e7565b0151910190610374565b90565b6104a89160208201915f81840391015261041e565b90565b346104db576104bb366004610150565b6104d76104c66111ce565b6104ce610142565b91829182610493565b0390f35b610148565b5f0190565b34610513576104fd6104f836600461026f565b611248565b610505610142565b8061050f816104e0565b0390f35b610148565b346105465761053061052b36600461026f565b611738565b610538610142565b80610542816104e0565b0390f35b610148565b6105549061033c565b9052565b919061056b905f6020850194019061054b565b565b3461059d5761057d366004610150565b610599610588611a64565b610590610142565b91829182610558565b0390f35b610148565b346105d0576105ba6105b536600461026f565b611b37565b6105c2610142565b806105cc816104e0565b0390f35b610148565b34610603576105e5366004610150565b6105ed611b67565b6105f5610142565b806105ff816104e0565b0390f35b610148565b5f80fd5b601f801991011690565b634e487b7160e01b5f52604160045260245ffd5b906106349061060c565b810190811067ffffffffffffffff82111761064e57604052565b610616565b9061066661065f610142565b928361062a565b565b67ffffffffffffffff81116106805760208091020190565b610616565b5f80fd5b5f80fd5b61069681610361565b0361069d57565b5f80fd5b905035906106ae8261068d565b565b6106b98161028d565b036106c057565b5f80fd5b905035906106d1826106b0565b565b919060608382031261071f57610718906106ed6060610653565b936106fa825f8301610260565b5f86015261070b82602083016106a1565b60208601526040016106c4565b6040830152565b610689565b9092919261073961073482610668565b610653565b93818552606060208601920283019281841161077857915b83831061075e5750505050565b602060609161076d84866106d3565b815201920191610751565b610685565b9080601f8301121561079b5781602061079893359101610724565b90565b610608565b906020828203126107d0575f82013567ffffffffffffffff81116107cb576107c8920161077d565b90565b61023c565b61014c565b6107e86107e33660046107a0565b612242565b6107f0610142565b806107fa816104e0565b0390f35b61080790610240565b9052565b919061081e905f602085019401906107fe565b565b3461085057610830366004610150565b61084c61083b612251565b610843610142565b9182918261080b565b0390f35b610148565b346108835761086d61086836600461026f565b61273d565b610875610142565b8061087f816104e0565b0390f35b610148565b346108b6576108a061089b36600461026f565b6128ae565b6108a8610142565b806108b2816104e0565b0390f35b610148565b5190565b60209181520190565b60200190565b906109409060a08061092360c084016108ed5f8801515f8701906102e7565b6108ff6020880151602087019061032f565b61091160408801516040870190610341565b606087015185820360608701526103ce565b94610936608082015160808601906102e7565b0151910190610374565b90565b9061094d916108ce565b90565b60200190565b9061096a610963836108bb565b80926108bf565b908161097b602083028401946108c8565b925f915b83831061098e57505050505090565b909192939460206109b06109aa83856001950387528951610943565b97610950565b930193019193929061097f565b6109d29160208201915f818403910152610956565b90565b34610a05576109e5366004610150565b610a016109f0612b3f565b6109f8610142565b918291826109bd565b0390f35b610148565b34610a3857610a1a366004610150565b610a22613053565b610a2a610142565b80610a34816104e0565b0390f35b610148565b34610a6d57610a4d366004610150565b610a69610a5861305d565b610a60610142565b91829182610558565b0390f35b610148565b610a7d366004610150565b610a8561325b565b610a8d610142565b80610a97816104e0565b0390f35b34610acb57610ac7610ab6610ab136600461026f565b613265565b610abe610142565b91829182610558565b0390f35b610148565b34610afe57610ae8610ae336600461026f565b6132e9565b610af0610142565b80610afa816104e0565b0390f35b610148565b5f80fd5b5f90565b5f1c90565b610b1c610b2191610b0b565b610163565b90565b610b2e9054610b10565b90565b90565b610b48610b43610b4d92610b31565b6101ae565b6101a3565b90565b610b5990610b34565b90565b5f80fd5b60e01b90565b90505190610b73826106b0565b565b90602082820312610b8e57610b8b915f01610b66565b90565b61014c565b610b9b610142565b3d5f823e3d90fd5b90565b610bba610bb5610bbf92610ba3565b6101ae565b61028d565b90565b90610bd5610bd06007610b24565b6101d9565b610bef610be9610be45f610b50565b610240565b91610240565b14610cbe57610c356020610c0b610c066007610b24565b6101d9565b6370a0823190610c2a3392610c1e610142565b95869485938493610b60565b83526004830161080b565b03915afa908115610cb9575f91610c8b575b50610c5b610c556001610ba6565b9161028d565b03610c6c57610c6991610d20565b90565b610c87335f9182916376ffc6bf60e11b83526004830161080b565b0390fd5b610cac915060203d8111610cb2575b610ca4818361062a565b810190610b75565b5f610c47565b503d610c9a565b610b93565b5f63330f558d60e01b815280610cd6600482016104e0565b0390fd5b610ce3906101cd565b90565b90610cf090610cda565b5f5260205260405f2090565b90565b610d0b610d1091610b0b565b610cfc565b90565b610d1d9054610cff565b90565b610d3591610d3091506004610ce6565b610d13565b90565b610d4990610d44610b07565b610bc2565b90565b610d5660c0610653565b90565b5f90565b5f90565b5f90565b606090565b5f90565b610d76610d4c565b906020808080808087610d87610d59565b815201610d92610d5d565b815201610d9d610d61565b815201610da8610d65565b815201610db3610d59565b815201610dbe610d6a565b81525050565b610dcc610d6e565b90565b610de1610ddc6007610b24565b6101d9565b610dfb610df5610df05f610b50565b610240565b91610240565b14610eca57610e416020610e17610e126007610b24565b6101d9565b6370a0823190610e363392610e2a610142565b95869485938493610b60565b83526004830161080b565b03915afa908115610ec5575f91610e97575b50610e67610e616001610ba6565b9161028d565b03610e7857610e759061117e565b90565b610e93335f9182916376ffc6bf60e11b83526004830161080b565b0390fd5b610eb8915060203d8111610ebe575b610eb0818361062a565b810190610b75565b5f610e53565b503d610ea6565b610b93565b5f63330f558d60e01b815280610ee2600482016104e0565b0390fd5b90610ef090610cda565b5f5260205260405f2090565b60018060a01b031690565b610f13610f1891610b0b565b610efc565b90565b610f259054610f07565b90565b90610f3290610240565b9052565b60a01c90565b60ff1690565b610f4e610f5391610f36565b610f3c565b90565b610f609054610f42565b90565b90610f6d90610317565b9052565b60a81c90565b60ff1690565b610f89610f8e91610f71565b610f77565b90565b610f9b9054610f7d565b90565b90610fa89061033c565b9052565b5490565b90610fc2610fbd83610668565b610653565b918252565b5f5260205f2090565b60ff1690565b610fe2610fe791610f36565b610fd0565b90565b610ff49054610fd6565b90565b9061100190610361565b9052565b9061100f9061028d565b9052565b61101d6060610653565b90565b9061106e6110656001611031611013565b946110486110405f8301610f1b565b5f8801610f28565b61105f6110565f8301610fea565b60208801610ff7565b01610d13565b60408401611005565b565b61107990611020565b90565b9061108682610fac565b61108f81610fb0565b9261109d6020850191610fc7565b5f915b8383106110ad5750505050565b600260206001926110bd85611070565b8152019201920191906110a0565b52565b9061116361115a60036110df610d4c565b946110f66110ee5f8301610f1b565b5f8801610f28565b61110d6111045f8301610f56565b60208801610f63565b61112461111b5f8301610f91565b60408801610f9e565b61113c6111336001830161107c565b606088016110cb565b61115461114b60028301610f1b565b60808801610f28565b01610d13565b60a08401611005565b565b61116e906110ce565b90565b61117b905161033c565b90565b5061119361118e60023390610ee6565b611165565b6111a86111a260408301611171565b1561033c565b6111af5790565b6111ca335f91829163763da88160e11b83526004830161080b565b0390fd5b6111de6111d9610dc4565b610dcf565b90565b6111ea906101b1565b90565b6111f6906111e1565b90565b5f1b90565b9061120f60018060a01b03916111f9565b9181191691161790565b611222906111e1565b90565b90565b9061123d61123861124492611219565b611225565b82546111fe565b9055565b8061126361125d6112585f610b50565b610240565b91610240565b146112bd5761127b611274826111ed565b6007611228565b6112a57f9ad04d4c6ba7e850cd07be1896cdd4db84780a1c030c4c2a2bc935bbe6bcfc0091610cda565b906112ae610142565b806112b8816104e0565b0390a2565b5f639241a65160e01b8152806112d5600482016104e0565b0390fd5b90565b6112f06112eb6112f592610b31565b6101ae565b61028d565b90565b6001611304910161028d565b90565b634e487b7160e01b5f52603260045260245ffd5b61132481610fac565b82101561133e57611336600291610fc7565b910201905f90565b611307565b61134d9051610240565b90565b61135a905161028d565b90565b634e487b7160e01b5f52601160045260245ffd5b6113806113869193929361028d565b9261028d565b820391821161139157565b61135d565b634e487b7160e01b5f525f60045260245ffd5b90565b906113c16113bc6113c892610cda565b6113a9565b82546111fe565b9055565b60a01b90565b906113e160ff60a01b916113cc565b9181191691161790565b6113ff6113fa61140492610361565b6101ae565b610361565b90565b90565b9061141f61141a611426926113eb565b611407565b82546113d2565b9055565b906114365f19916111f9565b9181191691161790565b61145461144f6114599261028d565b6101ae565b61028d565b90565b90565b9061147461146f61147b92611440565b61145c565b825461142a565b9055565b9080820361148c575b5050565b6114cc600180846114ad5f6114d297016114a75f8801610f1b565b906113ac565b6114c45f82016114be5f8801610fea565b9061140a565b019201610d13565b9061145f565b5f80611488565b91906114ea576114e89161147f565b565b611396565b90565b634e487b7160e01b5f52603160045260245ffd5b5490565b5f5260205f2090565b61151c81611506565b8210156115365761152e60029161150a565b910201905f90565b611307565b1b90565b9190600861155a9102916115545f198461153b565b9261153b565b9181191691161790565b919061157a61157561158293611440565b61145c565b90835461153f565b9055565b61159891611592610b07565b91611564565b565b5f60016115ac92828082015501611586565b565b905f036115c0576115be9061159a565b565b611396565b6115ce81611506565b80156115ef5760019003906115ec6115e68383611513565b906115ae565b55565b6114f2565b6115fd90610317565b90565b90565b9061161861161361161f926115f4565b611600565b82546113d2565b9055565b9061162d90610cda565b5f5260205260405f2090565b9061164560ff916111f9565b9181191691161790565b6116589061033c565b90565b90565b9061167361166e61167a9261164f565b61165b565b8254611639565b9055565b905090565b61168e5f809261167e565b0190565b61169b90611683565b90565b67ffffffffffffffff81116116bc576116b860209161060c565b0190565b610616565b906116d36116ce8361169e565b610653565b918252565b606090565b3d5f146116f8576116ed3d6116c1565b903d5f602084013e5b565b6117006116d8565b906116f6565b60409061172f611736949695939661172560608401985f8501906107fe565b60208301906107fe565b0190610290565b565b61174c61174760028390610ee6565b6112d9565b9061176161175b5f8401610f91565b1561033c565b611a20575f916117705f6112dc565b6117795f6112dc565b5b8061179861179261178d60018701610fac565b61028d565b9161028d565b1015611a17576117b56117af60018501839061131b565b50611070565b6117c05f8201611343565b6117d26117cc33610240565b91610240565b146117e657506117e1906112f8565b61177a565b90945061187691506117fa60408201611350565b9461180760018501610fac565b61181a6118146001610ba6565b9161028d565b116119cd575b50611835611830600185016114ef565b6115c5565b61184160018401610fac565b61185361184d5f6112dc565b9161028d565b146119bb575b6118715f9161186b5f60019201611343565b90611623565b61165e565b61189e8361189861188960048690610ce6565b9161189383610d13565b611371565b9061145f565b6118ec60018092336118d07fec41147ebc2cc79208cb6f7d256ffa8072b45ced3e1d6e464cee1afcc973d30b91610cda565b906118d9610142565b806118e3816104e0565b0390a201610fac565b6118fe6118f85f6112dc565b9161028d565b14611975575b5b61190e575b5050565b6119235f61191e60013390611623565b61165e565b6119505f803385611932610142565b908161193d81611692565b03925af16119496116dd565b501561033c565b1561190a5761197133925f938493637c54d33360e01b855260048501611706565b0390fd5b816119a07f7867f41c7a0a576b3ffff7649039cb7f59d09b0ae7ac3aad454f38f6ba062d4791610cda565b906119a9610142565b806119b3816104e0565b0390a2611904565b6119c860035f8501611603565b611859565b611a1190611a0b611a00600187016119fa6119ea60018a01610fac565b6119f46001610ba6565b90611371565b9061131b565b50916001870161131b565b906114d9565b5f611820565b50929050611905565b611a3b905f9182916318915a1b60e11b83526004830161080b565b0390fd5b5f90565b611a4f611a5491610b0b565b610f77565b90565b611a619054611a43565b90565b611a6c611a3f565b50611a81611a7c60053390611623565b611a57565b90565b611a9590611a906132f4565b611a97565b565b611aab611aa660068390611623565b611a57565b611abe611ab8600161033c565b9161033c565b14611b1b57611ad96001611ad460068490611623565b61165e565b611b037f1e59e06fbc9b065c65d072c1f7a2ed1d81154e6e57768747c6c082207dca730891610cda565b90611b0c610142565b80611b16816104e0565b0390a2565b5f63e42ca19f60e01b815280611b33600482016104e0565b0390fd5b611b4090611a84565b565b611b4a6132f4565b611b52611b54565b565b611b65611b605f610b50565b613342565b565b611b6f611b42565b565b611b83611b7e6007610b24565b6101d9565b611b9d611b97611b925f610b50565b610240565b91610240565b14611bad57611bab90611bc9565b565b5f63330f558d60e01b815280611bc5600482016104e0565b0390fd5b611bdb611bd66007610b24565b6101d9565b611bf5611bef611bea5f610b50565b610240565b91610240565b14611cc357611c3b6020611c11611c0c6007610b24565b6101d9565b6370a0823190611c303392611c24610142565b95869485938493610b60565b83526004830161080b565b03915afa908115611cbe575f91611c90575b50611c61611c5b6001610ba6565b9161028d565b03611c7157611c6f90611f8b565b565b611c8c335f9182916376ffc6bf60e11b83526004830161080b565b0390fd5b611cb1915060203d8111611cb7575b611ca9818361062a565b810190610b75565b5f611c4d565b503d611c9f565b610b93565b5f63330f558d60e01b815280611cdb600482016104e0565b0390fd5b611cf3611cee611cf892610b31565b6101ae565b610361565b90565b90611d058261034e565b811015611d16576020809102010190565b611307565b611d259051610361565b90565b611d3c611d37611d4192610361565b6101ae565b61028d565b90565b611d53611d599193929361028d565b9261028d565b91611d6583820261028d565b928184041490151715611d7457565b61135d565b90565b611d90611d8b611d9592611d79565b6101ae565b61028d565b90565b634e487b7160e01b5f52601260045260245ffd5b611db8611dbe9161028d565b9161028d565b908115611dc9570490565b611d98565b611dda611de091610361565b91610361565b019060ff8211611dec57565b61135d565b611e05611e00611e0a92611d79565b6101ae565b610361565b90565b611e1690610361565b9052565b9190611e2d905f60208501940190611e0d565b565b611e3a906002611d44565b90565b5b818110611e49575050565b80611e565f6002936115ae565b01611e3e565b9091828110611e6b575b505050565b611e89611e83611e7d611e9495611e2f565b92611e2f565b92610fc7565b918201910190611e3d565b5f8080611e66565b90680100000000000000008111611ec55781611eba611ec393610fac565b90828155611e5c565b565b610616565b5190565b90611f1160406001611f1794611ef15f8201611eeb5f8801611343565b906113ac565b611f095f8201611f0360208801611d1b565b9061140a565b019201611350565b9061145f565b565b90611f2391611ece565b565b611f4a611f44611f348461034e565b93611f3f8585611e9c565b61035b565b91610fc7565b5f915b838310611f5a5750505050565b6002602082611f73611f6d600195611eca565b86611f19565b01920192019190611f4d565b90611f8991611f25565b565b611f948161034e565b611fa6611fa05f6112dc565b9161028d565b146122265734611fbe611fb85f6112dc565b9161028d565b111561220a57611fd8611fd360023390610ee6565b6112d9565b90611fed611fe75f8401610f91565b1561033c565b6121eb57611ffa5f611cdf565b34936120055f6112dc565b915b8261202261201c6120178761034e565b61028d565b9161028d565b10156121485761203e5f612037868690611cfb565b5101611343565b61205861205261204d5f610b50565b610240565b91610240565b14612129576120735f61206c868690611cfb565b5101611343565b61208561207f33610240565b91610240565b1461210d57612101612107916120e46120d06120c08a6120ba6120b560206120ae8d8d90611cfb565b5101611d1b565b611d28565b90611d44565b6120ca6064611d7c565b90611dac565b60406120dd898990611cfb565b5101611005565b6120fb60206120f4888890611cfb565b5101611d1b565b90611dce565b926112f8565b91612007565b5f6304df4acf60e31b815280612125600482016104e0565b0390fd5b612144835f9182916321df4dfd60e01b83526004830161029d565b0390fd5b915093508061216061215a6064611df1565b91610361565b036121cc57509061217f6121899261217661325b565b60018301611f7f565b5f60019101611603565b336121b47f2876366326174fcdb3de4d2c886645201d572dcc433593a3369e8da520e4c10691610cda565b906121bd610142565b806121c7816104e0565b0390a2565b6121e7905f9182916333e5960f60e11b835260048301611e1a565b0390fd5b612206335f91829163bf8b146560e01b83526004830161080b565b0390fd5b5f631f7b263d60e01b815280612222600482016104e0565b0390fd5b5f6381a1a10760e01b81528061223e600482016104e0565b0390fd5b61224b90611b71565b565b5f90565b61225961224d565b506122635f610f1b565b90565b61228361227d61227860063390611623565b611a57565b1561033c565b61229257612290906122ae565b565b5f631135d65360e11b8152806122aa600482016104e0565b0390fd5b6122c06122bb6007610b24565b6101d9565b6122da6122d46122cf5f610b50565b610240565b91610240565b146122ea576122e890612571565b565b5f63330f558d60e01b815280612302600482016104e0565b0390fd5b5f90565b612312611013565b906020808084612320610d59565b81520161232b612306565b815201612336610d6a565b81525050565b61234461230a565b90565b5f5b82811061235557505050565b60209061236061233c565b8184015201612349565b9061238f61237783610fb0565b926020806123858693610668565b9201910390612347565b565b9061239b90610cda565b5f5260205260405f2090565b5490565b6123b560c0610653565b90565b6123c29051610317565b90565b60a81b90565b906123da60ff60a81b916123c5565b9181191691161790565b906123f96123f46124009261164f565b61165b565b82546123cb565b9055565b5190565b9061249560a0600361249b9461242b5f82016124255f8801611343565b906113ac565b6124435f820161243d602088016123b8565b90611603565b61245b5f820161245560408801611171565b906123e4565b6124746001820161246e60608801612404565b90611f7f565b61248d6002820161248760808801611343565b906113ac565b019201611350565b9061145f565b565b906124a791612408565b565b90565b5f5260205f2090565b5490565b6124c2816124b5565b8210156124dc576124d46001916124ac565b910201905f90565b611307565b919060086125019102916124fb60018060a01b038461153b565b9261153b565b9181191691161790565b919061252161251c61252993610cda565b6113a9565b9083546124e1565b9055565b908154916801000000000000000083101561255d578261255591600161255b950181556124b9565b9061250b565b565b610616565b5f91031261256c57565b61014c565b6125875f61258160028490610ee6565b01610f91565b61271e5761261b8161260a5f61260160016125f86125ac6125a75f6112dc565b61236a565b6125ef33936125e66125c86125c360033390612391565b6123a7565b976125dd6125d46123ab565b9b5f8d01610f28565b60208b01610f63565b60408901610f9e565b606087016110cb565b60808501610f28565b60a08301611005565b61261660028490610ee6565b61249d565b612624816133a1565b61264261263b61263660033390612391565b6124a9565b829061252d565b33816126776126717fa13d29c70439b6e78acbb3edfde073aead7bc08e982c0bbfc2d8ac984c6b3d6693610cda565b91610cda565b91612680610142565b8061268a816104e0565b0390a361269f61269a6007610b24565b6101d9565b90636a62784290823b15612719576126d6926126cb5f80946126bf610142565b96879586948593610b60565b83526004830161080b565b03925af18015612714576126e8575b50565b612707905f3d811161270d575b6126ff818361062a565b810190612562565b5f6126e5565b503d6126f5565b610b93565b610b5c565b612739905f918291637f281e0960e01b83526004830161080b565b0390fd5b61274690612266565b565b61276561275f61275a60063390611623565b611a57565b1561033c565b6127745761277290612793565b565b5f631135d65360e11b81528061278c600482016104e0565b0390fd5b90565b6127b06127aa6127a560058490611623565b611a57565b1561033c565b61288f576127c86127c360028390610ee6565b6112d9565b916127d660025f8501611603565b6127df5f6112dc565b5b806127fe6127f86127f360018801610fac565b61028d565b9161028d565b101561284a576128459061284061282261281c60018801849061131b565b50612790565b61283b6001916128355f60019201610f1b565b90611623565b61165e565b6112f8565b6127e0565b5091506128777f571ea8006007033bbd5f1edc1babe29f66f4b127efe354a815e4b2330dcda20091610cda565b90612880610142565b8061288a816104e0565b0390a2565b6128aa905f9182916376ffc6bf60e11b83526004830161080b565b0390fd5b6128b790612748565b565b606090565b6128db6128d56128d060063390611623565b611a57565b1561033c565b6128eb576128e890612a9c565b90565b5f631135d65360e11b815280612903600482016104e0565b0390fd5b60209181520190565b5f5260205f2090565b90612926816020936102e7565b0190565b6129349054610f07565b90565b60010190565b9061295a61295461294d846123a7565b8093612907565b92612910565b905f5b81811061296a5750505090565b90919261298a61298460019261297f8761292a565b612919565b94612937565b910191909161295d565b9061299e9161293d565b90565b906129c16129ba926129b1610142565b93848092612994565b038361062a565b565b6129cc906129a1565b90565b5190565b67ffffffffffffffff81116129eb5760208091020190565b610616565b90612a026129fd836129d3565b610653565b918252565b612a0f610d6e565b90565b5f5b828110612a2057505050565b602090612a2b612a07565b8184015201612a14565b90612a5a612a42836129f0565b92602080612a5086936129d3565b9201910390612a12565b565b90612a66826129cf565b811015612a77576020809102010190565b611307565b90612a86826108bb565b811015612a97576020809102010190565b611307565b50612ab1612aac60033390612391565b6129c3565b612ac2612abd826129cf565b612a35565b90612acc5f6112dc565b5b80612ae8612ae2612add856129cf565b61028d565b9161028d565b1015612b3a57612b3590612b2e612b136002612b0d612b08878690612a5c565b611343565b90610ee6565b85612b1e8492611165565b612b288383612a7c565b52612a7c565b51506112f8565b612acd565b505090565b612b4f612b4a6128b9565b6128be565b90565b612b64612b5f6007610b24565b6101d9565b612b7e612b78612b735f610b50565b610240565b91610240565b14612b8d57612b8b612ba9565b565b5f63330f558d60e01b815280612ba5600482016104e0565b0390fd5b612bbb612bb66007610b24565b6101d9565b612bd5612bcf612bca5f610b50565b610240565b91610240565b14612ca257612c1b6020612bf1612bec6007610b24565b6101d9565b6370a0823190612c103392612c04610142565b95869485938493610b60565b83526004830161080b565b03915afa908115612c9d575f91612c6f575b50612c41612c3b6001610ba6565b9161028d565b03612c5057612c4e612d6e565b565b612c6b335f9182916376ffc6bf60e11b83526004830161080b565b0390fd5b612c90915060203d8111612c96575b612c88818361062a565b810190610b75565b5f612c2d565b503d612c7e565b610b93565b5f63330f558d60e01b815280612cba600482016104e0565b0390fd5b5f612cc891611e9c565b565b905f03612cdc57612cda90612cbe565b565b611396565b612cf1906008612cf6930261015f565b610efc565b90565b90612d049154612ce1565b90565b612d1991612d1361224d565b9161250b565b565b612d24816124b5565b8015612d45576001900390612d42612d3c83836124b9565b90612d07565b55565b6114f2565b612d53906101b1565b90565b612d5f90612d4a565b90565b612d6b906101cd565b90565b612d82612d7d60023390610ee6565b6112d9565b612d8d5f8201610f56565b612da0612d9a6002610317565b91610317565b1461303757612e9f612dbc612db760043390610ce6565b610d13565b91612e61612e5c612ddb6003612dd460028601610f1b565b9401610d13565b92612df45f6001612dee60023390610ee6565b01612cca565b612e11612e005f6112dc565b612e0c60043390610ce6565b61145f565b612e285f5f612e2260023390610ee6565b016123e4565b612e4060045f612e3a60023390610ee6565b01611603565b612e555f612e5060053390611623565b61165e565b6003612391565b6124a9565b90612e7e612e6e836124b5565b612e786001610ba6565b90611371565b9080612e92612e8c8461028d565b9161028d565b03612ff1575b5050612d1b565b33612eca7fc17d6b506af5eb977ab917816ea2471b340abd3d29485bbbb1eec1fc468f38a991610cda565b90612ed3610142565b80612edd816104e0565b0390a2612ef2612eed6007610b24565b6101d9565b6389afcb4433823b15612fec57612f2892612f1d5f8094612f11610142565b96879586948593610b60565b83526004830161080b565b03925af18015612fe757612fbb575b5080612f4b612f455f6112dc565b9161028d565b11612f54575b50565b5f80612f9292612f6b612f6633612d56565b612d62565b90612f74610142565b9081612f7f81611692565b03925af1612f8b6116dd565b501561033c565b612f9c575f612f51565b612fb7335f918291634754b9cf60e01b83526004830161080b565b0390fd5b612fda905f3d8111612fe0575b612fd2818361062a565b810190612562565b5f612f37565b503d612fc8565b610b93565b610b5c565b600361302a61300c61300661303095876124b9565b90612cf9565b926130228461301c8884906124b9565b9061250b565b926002610ee6565b0161145f565b5f80612e98565b5f631d441b0160e11b81528061304f600482016104e0565b0390fd5b61305b612b52565b565b613065611a3f565b5061307a61307560013390611623565b611a57565b90565b61308f61308a6007610b24565b6101d9565b6130a96130a361309e5f610b50565b610240565b91610240565b14613176576130ef60206130c56130c06007610b24565b6101d9565b6370a08231906130e433926130d8610142565b95869485938493610b60565b83526004830161080b565b03915afa908115613171575f91613143575b5061311561310f6001610ba6565b9161028d565b03613124576131226131b7565b565b61313f335f9182916376ffc6bf60e11b83526004830161080b565b0390fd5b613164915060203d811161316a575b61315c818361062a565b810190610b75565b5f613101565b503d613152565b610b93565b5f63330f558d60e01b81528061318e600482016104e0565b0390fd5b6131a16131a79193929361028d565b9261028d565b82018092116131b257565b61135d565b346131ca6131c45f6112dc565b9161028d565b111561323f576131f8346131f26131e360043390610ce6565b916131ed83610d13565b613192565b9061145f565b33349061323a6132287f61d85293b98e7ffc5c0037f242855b175f52fb85a8c626f201b6905ae3531a7a92610cda565b92613231610142565b9182918261029d565b0390a2565b5f631f7b263d60e01b815280613257600482016104e0565b0390fd5b61326361307d565b565b61327c61328191613274611a3f565b506006611623565b611a57565b90565b613295906132906132f4565b613297565b565b806132b26132ac6132a75f610b50565b610240565b91610240565b146132c2576132c090613342565b565b6132e56132ce5f610b50565b5f918291631e4fbdf760e01b83526004830161080b565b0390fd5b6132f290613284565b565b6132fc612251565b61331561330f61330a6133f9565b610240565b91610240565b0361331c57565b61333e6133276133f9565b5f91829163118cdaa760e01b83526004830161080b565b0390fd5b61334b5f610f1b565b613355825f6113ac565b906133896133837f8be0079c531659141344cd1fd0a4f28419497f9722a3daafe3b4186f6b6457e093610cda565b91610cda565b91613392610142565b8061339c816104e0565b0390a3565b6133b760016133b260058490611623565b61165e565b6133e17f4ae785db89f2d840bd297642a60ba580a721c04f519d8b0ed74c1c21dbed9ce791610cda565b906133ea610142565b806133f4816104e0565b0390a2565b61340161224d565b50339056fea2646970667358221220ce8f3268830fe2c94c768c8f2b8f51a0227a5633a0c398c033f35b0c0b12b4a464736f6c634300081e0033",
    "linkReferences": {},
    "deployedLinkReferences": {},
    "immutableReferences": {},
    "inputSourceName": "project/contracts/Wallegacy.sol",
    "buildInfoId": "solc-0_8_30-2cce9e88a7ce05608abb27f79a81a5cdcb08703f"
}