{
  "_format": "hh3-artifact-1",
  "contractName": "WallegacySBT",
  "sourceName": "contracts/WallegacySBT.sol",
  "abi": [
    {
      "inputs": [
        {
          "internalType": "string",
          "name": "baseTokenURI",
          "type": "string"
        },
        {
          "internalType": "address",
          "name": "_wallegacyContract",
          "type": "address"
        }
      ],
      "stateMutability": "nonpayable",
      "type": "constructor"
    },
    {
      "inputs": [
        {
          "internalType": "address",
          "name": "sender",
          "type": "address"
        },
        {
          "internalType": "uint256",
          "name": "tokenId",
          "type": "uint256"
        },
        {
          "internalType": "address",
          "name": "owner",
          "type": "address"
        }
      ],
      "name": "ERC721IncorrectOwner",
      "type": "error"
    },
    {
      "inputs": [
        {
          "internalType": "address",
          "name": "operator",
          "type": "address"
        },
        {
          "internalType": "uint256",
          "name": "tokenId",
          "type": "uint256"
        }
      ],
      "name": "ERC721InsufficientApproval",
      "type": "error"
    },
    {
      "inputs": [
        {
          "internalType": "address",
          "name": "approver",
          "type": "address"
        }
      ],
      "name": "ERC721InvalidApprover",
      "type": "error"
    },
    {
      "inputs": [
        {
          "internalType": "address",
          "name": "operator",
          "type": "address"
        }
      ],
      "name": "ERC721InvalidOperator",
      "type": "error"
    },
    {
      "inputs": [
        {
          "internalType": "address",
          "name": "owner",
          "type": "address"
        }
      ],
      "name": "ERC721InvalidOwner",
      "type": "error"
    },
    {
      "inputs": [
        {
          "internalType": "address",
          "name": "receiver",
          "type": "address"
        }
      ],
      "name": "ERC721InvalidReceiver",
      "type": "error"
    },
    {
      "inputs": [
        {
          "internalType": "address",
          "name": "sender",
          "type": "address"
        }
      ],
      "name": "ERC721InvalidSender",
      "type": "error"
    },
    {
      "inputs": [
        {
          "internalType": "uint256",
          "name": "tokenId",
          "type": "uint256"
        }
      ],
      "name": "ERC721NonexistentToken",
      "type": "error"
    },
    {
      "inputs": [
        {
          "internalType": "address",
          "name": "testatorAddress",
          "type": "address"
        }
      ],
      "name": "SBT_NoSBTFound",
      "type": "error"
    },
    {
      "inputs": [],
      "name": "SBT__NoWallegacyContract",
      "type": "error"
    },
    {
      "inputs": [
        {
          "internalType": "address",
          "name": "testatorAddress",
          "type": "address"
        }
      ],
      "name": "SBT__TestatorAlreadyHasSBT",
      "type": "error"
    },
    {
      "inputs": [],
      "name": "SBT__TransferNotAllowed",
      "type": "error"
    },
    {
      "anonymous": false,
      "inputs": [
        {
          "indexed": true,
          "internalType": "address",
          "name": "owner",
          "type": "address"
        },
        {
          "indexed": true,
          "internalType": "address",
          "name": "approved",
          "type": "address"
        },
        {
          "indexed": true,
          "internalType": "uint256",
          "name": "tokenId",
          "type": "uint256"
        }
      ],
      "name": "Approval",
      "type": "event"
    },
    {
      "anonymous": false,
      "inputs": [
        {
          "indexed": true,
          "internalType": "address",
          "name": "owner",
          "type": "address"
        },
        {
          "indexed": true,
          "internalType": "address",
          "name": "operator",
          "type": "address"
        },
        {
          "indexed": false,
          "internalType": "bool",
          "name": "approved",
          "type": "bool"
        }
      ],
      "name": "ApprovalForAll",
      "type": "event"
    },
    {
      "anonymous": false,
      "inputs": [
        {
          "indexed": true,
          "internalType": "address",
          "name": "testatorAddress",
          "type": "address"
        },
        {
          "indexed": true,
          "internalType": "uint256",
          "name": "tokenID",
          "type": "uint256"
        }
      ],
      "name": "SBTBurned",
      "type": "event"
    },
    {
      "anonymous": false,
      "inputs": [
        {
          "indexed": true,
          "internalType": "address",
          "name": "testatorAddress",
          "type": "address"
        },
        {
          "indexed": true,
          "internalType": "uint256",
          "name": "tokenID",
          "type": "uint256"
        }
      ],
      "name": "SBTMinted",
      "type": "event"
    },
    {
      "anonymous": false,
      "inputs": [
        {
          "indexed": true,
          "internalType": "address",
          "name": "from",
          "type": "address"
        },
        {
          "indexed": true,
          "internalType": "address",
          "name": "to",
          "type": "address"
        },
        {
          "indexed": true,
          "internalType": "uint256",
          "name": "tokenId",
          "type": "uint256"
        }
      ],
      "name": "Transfer",
      "type": "event"
    },
    {
      "inputs": [
        {
          "internalType": "address",
          "name": "to",
          "type": "address"
        },
        {
          "internalType": "uint256",
          "name": "tokenId",
          "type": "uint256"
        }
      ],
      "name": "approve",
      "outputs": [],
      "stateMutability": "nonpayable",
      "type": "function"
    },
    {
      "inputs": [
        {
          "internalType": "address",
          "name": "owner",
          "type": "address"
        }
      ],
      "name": "balanceOf",
      "outputs": [
        {
          "internalType": "uint256",
          "name": "",
          "type": "uint256"
        }
      ],
      "stateMutability": "view",
      "type": "function"
    },
    {
      "inputs": [
        {
          "internalType": "address",
          "name": "testatorAddress",
          "type": "address"
        }
      ],
      "name": "burn",
      "outputs": [],
      "stateMutability": "nonpayable",
      "type": "function"
    },
    {
      "inputs": [
        {
          "internalType": "uint256",
          "name": "tokenId",
          "type": "uint256"
        }
      ],
      "name": "getApproved",
      "outputs": [
        {
          "internalType": "address",
          "name": "",
          "type": "address"
        }
      ],
      "stateMutability": "view",
      "type": "function"
    },
    {
      "inputs": [
        {
          "internalType": "address",
          "name": "owner",
          "type": "address"
        },
        {
          "internalType": "address",
          "name": "operator",
          "type": "address"
        }
      ],
      "name": "isApprovedForAll",
      "outputs": [
        {
          "internalType": "bool",
          "name": "",
          "type": "bool"
        }
      ],
      "stateMutability": "view",
      "type": "function"
    },
    {
      "inputs": [
        {
          "internalType": "address",
          "name": "testatorAddress",
          "type": "address"
        }
      ],
      "name": "mint",
      "outputs": [
        {
          "internalType": "uint256",
          "name": "",
          "type": "uint256"
        }
      ],
      "stateMutability": "nonpayable",
      "type": "function"
    },
    {
      "inputs": [],
      "name": "name",
      "outputs": [
        {
          "internalType": "string",
          "name": "",
          "type": "string"
        }
      ],
      "stateMutability": "view",
      "type": "function"
    },
    {
      "inputs": [
        {
          "internalType": "uint256",
          "name": "tokenId",
          "type": "uint256"
        }
      ],
      "name": "ownerOf",
      "outputs": [
        {
          "internalType": "address",
          "name": "",
          "type": "address"
        }
      ],
      "stateMutability": "view",
      "type": "function"
    },
    {
      "inputs": [
        {
          "internalType": "address",
          "name": "from",
          "type": "address"
        },
        {
          "internalType": "address",
          "name": "to",
          "type": "address"
        },
        {
          "internalType": "uint256",
          "name": "tokenId",
          "type": "uint256"
        }
      ],
      "name": "safeTransferFrom",
      "outputs": [],
      "stateMutability": "nonpayable",
      "type": "function"
    },
    {
      "inputs": [
        {
          "internalType": "address",
          "name": "from",
          "type": "address"
        },
        {
          "internalType": "address",
          "name": "to",
          "type": "address"
        },
        {
          "internalType": "uint256",
          "name": "tokenId",
          "type": "uint256"
        },
        {
          "internalType": "bytes",
          "name": "data",
          "type": "bytes"
        }
      ],
      "name": "safeTransferFrom",
      "outputs": [],
      "stateMutability": "nonpayable",
      "type": "function"
    },
    {
      "inputs": [
        {
          "internalType": "address",
          "name": "operator",
          "type": "address"
        },
        {
          "internalType": "bool",
          "name": "approved",
          "type": "bool"
        }
      ],
      "name": "setApprovalForAll",
      "outputs": [],
      "stateMutability": "nonpayable",
      "type": "function"
    },
    {
      "inputs": [
        {
          "internalType": "bytes4",
          "name": "interfaceId",
          "type": "bytes4"
        }
      ],
      "name": "supportsInterface",
      "outputs": [
        {
          "internalType": "bool",
          "name": "",
          "type": "bool"
        }
      ],
      "stateMutability": "view",
      "type": "function"
    },
    {
      "inputs": [],
      "name": "symbol",
      "outputs": [
        {
          "internalType": "string",
          "name": "",
          "type": "string"
        }
      ],
      "stateMutability": "view",
      "type": "function"
    },
    {
      "inputs": [
        {
          "internalType": "uint256",
          "name": "tokenId",
          "type": "uint256"
        }
      ],
      "name": "tokenURI",
      "outputs": [
        {
          "internalType": "string",
          "name": "",
          "type": "string"
        }
      ],
      "stateMutability": "view",
      "type": "function"
    },
    {
      "inputs": [
        {
          "internalType": "address",
          "name": "from",
          "type": "address"
        },
        {
          "internalType": "address",
          "name": "to",
          "type": "address"
        },
        {
          "internalType": "uint256",
          "name": "tokenId",
          "type": "uint256"
        }
      ],
      "name": "transferFrom",
      "outputs": [],
      "stateMutability": "nonpayable",
      "type": "function"
    },
    {
      "inputs": [],
      "name": "wallegacyContract",
      "outputs": [
        {
          "internalType": "address",
          "name": "",
          "type": "address"
        }
      ],
      "stateMutability": "view",
      "type": "function"
    }
  ],
  "bytecode": "0x6080604052346100305761001a6100146101ab565b90610548565b610022610035565b612209610591823961220990f35b61003b565b60405190565b5f80fd5b601f801991011690565b634e487b7160e01b5f52604160045260245ffd5b906100679061003f565b810190811060018060401b0382111761007f57604052565b610049565b90610097610090610035565b928361005d565b565b5f80fd5b5f80fd5b5f80fd5b5f80fd5b60018060401b0381116100c5576100c160209161003f565b0190565b610049565b90825f9392825e0152565b909291926100ea6100e5826100a9565b610084565b9381855260208501908284011161010657610104926100ca565b565b6100a5565b9080601f8301121561012957816020610126935191016100d5565b90565b6100a1565b60018060a01b031690565b6101429061012e565b90565b61014e81610139565b0361015557565b5f80fd5b9050519061016682610145565b565b91906040838203126101a6575f8301519060018060401b0382116101a1576101958161019e93860161010b565b93602001610159565b90565b61009d565b610099565b6101c961279a803803806101be81610084565b928339810190610168565b9091565b906101df6101da836100a9565b610084565b918252565b5f7f57616c6c65676163790000000000000000000000000000000000000000000000910152565b61021560096101cd565b90610222602083016101e4565b565b61022c61020b565b90565b5f7f574c534254000000000000000000000000000000000000000000000000000000910152565b61026060056101cd565b9061026d6020830161022f565b565b610277610256565b90565b5190565b634e487b7160e01b5f52602260045260245ffd5b90600160028304921680156102b2575b60208310146102ad57565b61027e565b91607f16916102a2565b5f5260205f2090565b601f602091010490565b1b90565b919060086102ee9102916102e85f19846102cf565b926102cf565b9181191691161790565b90565b90565b61031261030d610317926102f8565b6102fb565b6102f8565b90565b90565b919061033361032e61033b936102fe565b61031a565b9083546102d3565b9055565b5f90565b6103559161034f61033f565b9161031d565b565b5b818110610363575050565b806103705f600193610343565b01610358565b9190601f8111610386575b505050565b6103926103b7936102bc565b90602061039e846102c5565b830193106103bf575b6103b0906102c5565b0190610357565b5f8080610381565b91506103b0819290506103a7565b1c90565b906103e1905f19906008026103cd565b191690565b816103f0916103d1565b906002021790565b906104028161027a565b9060018060401b0382116104c0576104248261041e8554610292565b85610376565b602090601f831160011461045857918091610447935f9261044c575b50506103e6565b90555b565b90915001515f80610440565b601f19831691610467856102bc565b925f5b8181106104a85750916002939185600196941061048e575b5050500201905561044a565b61049e910151601f8416906103d1565b90555f8080610482565b9193602060018192878701518155019501920161046a565b610049565b906104cf916103f8565b565b5f1b90565b906104e760018060a01b03916104d1565b9181191691161790565b61050561050061050a9261012e565b6102fb565b61012e565b90565b610516906104f1565b90565b6105229061050d565b90565b90565b9061053d61053861054492610519565b610525565b82546104d6565b9055565b906105706105779261056961055b610224565b61056361026f565b90610579565b60066104c5565b6008610528565b565b9061058761058e925f6104c5565b60016104c5565b56fe60806040526004361015610013575b6108bc565b61001d5f3561011c565b806301ffc9a71461011757806306fdde0314610112578063081812fc1461010d578063095ea7b31461010857806323b872dd1461010357806342842e0e146100fe5780636352211e146100f9578063638a5222146100f45780636a627842146100ef57806370a08231146100ea57806389afcb44146100e557806395d89b41146100e0578063a22cb465146100db578063b88d4fde146100d6578063c87b56dd146100d15763e985e9c50361000e57610886565b610824565b6107ed565b610679565b6105f4565b6105c1565b61058c565b610557565b6104e2565b610469565b610435565b610401565b610393565b610309565b610257565b6101a8565b60e01c90565b60405190565b5f80fd5b5f80fd5b5f80fd5b63ffffffff60e01b1690565b61014981610134565b0361015057565b5f80fd5b9050359061016182610140565b565b9060208282031261017c57610179915f01610154565b90565b61012c565b151590565b61018f90610181565b9052565b91906101a6905f60208501940190610186565b565b346101d8576101d46101c36101be366004610163565b6108c4565b6101cb610122565b91829182610193565b0390f35b610128565b5f9103126101e757565b61012c565b5190565b60209181520190565b90825f9392825e0152565b601f801991011690565b61022d61023660209361023b93610224816101ec565b938480936101f0565b958691016101f9565b610204565b0190565b6102549160208201915f81840391015261020e565b90565b34610287576102673660046101dd565b610283610272610a48565b61027a610122565b9182918261023f565b0390f35b610128565b90565b6102988161028c565b0361029f57565b5f80fd5b905035906102b08261028f565b565b906020828203126102cb576102c8915f016102a3565b90565b61012c565b60018060a01b031690565b6102e4906102d0565b90565b6102f0906102db565b9052565b9190610307905f602085019401906102e7565b565b346103395761033561032461031f3660046102b2565b610a61565b61032c610122565b918291826102f4565b0390f35b610128565b610347816102db565b0361034e57565b5f80fd5b9050359061035f8261033e565b565b9190604083820312610389578061037d610386925f8601610352565b936020016102a3565b90565b61012c565b5f0190565b346103c2576103ac6103a6366004610361565b90610a80565b6103b4610122565b806103be8161038e565b0390f35b610128565b90916060828403126103fc576103f96103e2845f8501610352565b936103f08160208601610352565b936040016102a3565b90565b61012c565b346104305761041a6104143660046103c7565b91610af6565b610422610122565b8061042c8161038e565b0390f35b610128565b346104645761044e6104483660046103c7565b91610be2565b610456610122565b806104608161038e565b0390f35b610128565b346104995761049561048461047f3660046102b2565b610bf8565b61048c610122565b918291826102f4565b0390f35b610128565b1c90565b60018060a01b031690565b6104bd9060086104c2930261049e565b6104a2565b90565b906104d091546104ad565b90565b6104df60085f906104c5565b90565b34610512576104f23660046101dd565b61050e6104fd6104d3565b610505610122565b918291826102f4565b0390f35b610128565b906020828203126105305761052d915f01610352565b90565b61012c565b61053e9061028c565b9052565b9190610555905f60208501940190610535565b565b346105875761058361057261056d366004610517565b610dbf565b61057a610122565b91829182610542565b0390f35b610128565b346105bc576105b86105a76105a2366004610517565b610e0d565b6105af610122565b91829182610542565b0390f35b610128565b346105ef576105d96105d4366004610517565b610f61565b6105e1610122565b806105eb8161038e565b0390f35b610128565b34610624576106043660046101dd565b61062061060f610f6c565b610617610122565b9182918261023f565b0390f35b610128565b61063281610181565b0361063957565b5f80fd5b9050359061064a82610629565b565b91906040838203126106745780610668610671925f8601610352565b9360200161063d565b90565b61012c565b346106a85761069261068c36600461064c565b90610f82565b61069a610122565b806106a48161038e565b0390f35b610128565b5f80fd5b5f80fd5b634e487b7160e01b5f52604160045260245ffd5b906106d390610204565b810190811067ffffffffffffffff8211176106ed57604052565b6106b5565b906107056106fe610122565b92836106c9565b565b67ffffffffffffffff811161072557610721602091610204565b0190565b6106b5565b90825f939282370152565b9092919261074a61074582610707565b6106f2565b93818552602085019082840111610766576107649261072a565b565b6106b1565b9080601f830112156107895781602061078693359101610735565b90565b6106ad565b906080828203126107e8576107a5815f8401610352565b926107b38260208501610352565b926107c183604083016102a3565b92606082013567ffffffffffffffff81116107e3576107e0920161076b565b90565b610130565b61012c565b3461081f5761080961080036600461078e565b92919091610f98565b610811610122565b8061081b8161038e565b0390f35b610128565b346108545761085061083f61083a3660046102b2565b611042565b610847610122565b9182918261023f565b0390f35b610128565b9190604083820312610881578061087561087e925f8601610352565b93602001610352565b90565b61012c565b346108b7576108b36108a261089c366004610859565b90611101565b6108aa610122565b91829182610193565b0390f35b610128565b5f80fd5b5f90565b6108cc6108c0565b50806108e76108e16380ac58cd60e01b610134565b91610134565b14801561090b575b9081156108fb575b5090565b6109059150611129565b5f6108f7565b5080610926610920635b5e139f60e01b610134565b91610134565b146108ef565b606090565b634e487b7160e01b5f52602260045260245ffd5b9060016002830492168015610965575b602083101461096057565b610931565b91607f1691610955565b60209181520190565b5f5260205f2090565b905f929180549061099b61099483610945565b809461096f565b916001811690815f146109f257506001146109b6575b505050565b6109c39192939450610978565b915f925b8184106109da57505001905f80806109b1565b600181602092959395548486015201910192906109c7565b92949550505060ff19168252151560200201905f80806109b1565b90610a1791610981565b90565b90610a3a610a3392610a2a610122565b93848092610a0d565b03836106c9565b565b610a4590610a1a565b90565b610a5061092c565b50610a5a5f610a3c565b90565b5f90565b610a7d90610a6d610a5d565b50610a778161114f565b506111bb565b90565b90610a949190610a8e6111da565b916111e7565b565b90565b90565b610ab0610aab610ab592610a96565b610a99565b6102d0565b90565b610ac190610a9c565b90565b604090610aed610af49496959396610ae360608401985f8501906102e7565b6020830190610535565b01906102e7565b565b919080610b13610b0d610b085f610ab8565b6102db565b916102db565b14610b6a57610b2b9082610b256111da565b91611276565b9182610b3f610b39836102db565b916102db565b03610b4957505050565b610b669091925f9384936364283d7b60e01b855260048501610ac4565b0390fd5b610b8d610b765f610ab8565b5f918291633250574960e11b8352600483016102f4565b0390fd5b67ffffffffffffffff8111610baf57610bab602091610204565b0190565b6106b5565b90610bc6610bc183610b91565b6106f2565b918252565b610bd45f610bb4565b90565b610bdf610bcb565b90565b91610bf69291610bf0610bd7565b92610f98565b565b610c0a90610c04610a5d565b5061114f565b90565b5f90565b5f1c90565b610c22610c2791610c11565b6104a2565b90565b610c349054610c16565b90565b9033610c54610c4e610c496008610c2a565b6102db565b916102db565b03610c6557610c6291610d15565b90565b5f6312e8cd6560e31b815280610c7d6004820161038e565b0390fd5b610c95610c90610c9a92610a96565b610a99565b61028c565b90565b610cb1610cac610cb6926102d0565b610a99565b6102d0565b90565b610cc290610c9d565b90565b610cd9610cd4610cde926102d0565b610a99565b61028c565b90565b610cea90610c9d565b90565b610cf690610ce1565b90565b610d0d610d08610d129261028c565b610a99565b61028c565b90565b50610d1f81610e0d565b610d31610d2b5f610c81565b9161028c565b03610da057610d47610d4282610cb9565b610cc5565b90610d53818390611329565b81610d87610d817f69180e5630fe9bd5b50dab3216e4151093508a9dfe7eb5fa1166632c7bc6593693610ced565b91610cf9565b91610d90610122565b80610d9a8161038e565b0390a390565b610dbb905f91829163176ba95b60e21b8352600483016102f4565b0390fd5b610dd090610dcb610c0d565b610c37565b90565b90610ddd90610ced565b5f5260205260405f2090565b90565b610df8610dfd91610c11565b610de9565b90565b610e0a9054610dec565b90565b610e15610c0d565b5080610e31610e2b610e265f610ab8565b6102db565b916102db565b14610e4c57610e44610e49916003610dd3565b610e00565b90565b610e6f610e585f610ab8565b5f9182916322718ad960e21b8352600483016102f4565b0390fd5b33610e8f610e89610e846008610c2a565b6102db565b916102db565b03610e9f57610e9d90610ebb565b565b5f6312e8cd6560e31b815280610eb76004820161038e565b0390fd5b610ecc610ec782610cb9565b610cc5565b90610ed68261133f565b610ee8610ee2836102db565b916102db565b03610f4257610ef68261135e565b90610f2a610f247fd75d3ecd2740f7c61670e9bace498fe082f91ad8bb5ef14f9d967ff41ea7aba593610ced565b91610cf9565b91610f33610122565b80610f3d8161038e565b0390a3565b610f5d905f91829163321eaecd60e21b8352600483016102f4565b0390fd5b610f6a90610e73565b565b610f7461092c565b50610f7f6001610a3c565b90565b610f9691610f8e6111da565b919091611405565b565b91610fbc9391610faa84828491610af6565b610fb26111da565b93909192936115cf565b565b90565b5190565b610fcd610bcb565b90565b905090565b610ffa610ff192602092610fe8816101ec565b94858093610fd0565b938491016101f9565b0190565b61100c906110129392610fd5565b90610fd5565b90565b611034929161104091611026610122565b948592602084019283610ffe565b908103825203836106c9565b565b61104a61092c565b506110548161114f565b5061105d611723565b9061106f61106a83610fbe565b610fc1565b61108161107b5f610c81565b9161028c565b115f1461109f5761109561109b92916117f4565b90611015565b5b90565b50506110a9610fc5565b61109c565b906110b890610ced565b5f5260205260405f2090565b906110ce90610ced565b5f5260205260405f2090565b60ff1690565b6110ec6110f191610c11565b6110da565b90565b6110fe90546110e0565b90565b6111269161111c611121926111146108c0565b5060056110ae565b6110c4565b6110f4565b90565b6111316108c0565b5061114b6111456301ffc9a760e01b610134565b91610134565b1490565b611157610a5d565b506111618161133f565b908161117d6111776111725f610ab8565b6102db565b916102db565b14611186575090565b6111a1905f918291637e27328960e01b835260048301610542565b0390fd5b906111af90610cf9565b5f5260205260405f2090565b6111d26111d7916111ca610a5d565b5060046111a5565b610c2a565b90565b6111e2610a5d565b503390565b916111f592916001926118db565b565b60207f61626c6500000000000000000000000000000000000000000000000000000000917f536f756c626f756e643a20746f6b656e206973206e6f6e2d7472616e736665725f8201520152565b61125160246040926101f0565b61125a816111f7565b0190565b6112739060208101905f818303910152611244565b90565b9161127f610a5d565b506112898261133f565b806112a461129e6112995f610ab8565b6102db565b916102db565b141580611306575b90816112e9575b506112c7576112c492919091611a6c565b90565b6112cf610122565b62461bcd60e51b8152806112e56004820161125e565b0390fd5b90506112fe6112f885926102db565b916102db565b14155f6112b3565b508361132261131c6113175f610ab8565b6102db565b916102db565b14156112ac565b9061133d9190611337610bd7565b91611bed565b565b61135661135b9161134e610a5d565b5060026111a5565b610c2a565b90565b61137a61136a5f610ab8565b826113745f610ab8565b91611276565b61139461138e6113895f610ab8565b6102db565b916102db565b1461139c5750565b6113b7905f918291637e27328960e01b835260048301610542565b0390fd5b5f1b90565b906113cc60ff916113bb565b9181191691161790565b6113df90610181565b90565b90565b906113fa6113f5611401926113d6565b6113e2565b82546113c0565b9055565b9190918261142361141d6114185f610ab8565b6102db565b916102db565b14611497576114478261144261143b600585906110ae565b86906110c4565b6113e5565b91909161149261148061147a7f17307eab39ab6107e8899845ad3d59bd9653f200f220920489ca2b5937696c3193610ced565b93610ced565b93611489610122565b91829182610193565b0390a3565b6114b2835f918291630b61174360e31b8352600483016102f4565b0390fd5b6114bf90610c9d565b90565b6114cb906114b6565b90565b6114d790610ce1565b90565b60e01b90565b905051906114ed82610140565b565b9060208282031261150857611505915f016114e0565b90565b61012c565b60209181520190565b61153561153e6020936115439361152c81610fc1565b9384809361150d565b958691016101f9565b610204565b0190565b909261157a90611570611587969461156660808601975f8701906102e7565b60208501906102e7565b6040830190610535565b6060818403910152611516565b90565b9061159c61159783610707565b6106f2565b918252565b606090565b3d5f146115c1576115b63d61158a565b903d5f602084013e5b565b6115c96115a1565b906115bf565b9193843b6115e56115df5f610c81565b9161028c565b116115f2575b5050505050565b61162a5f60209461163561160d6116088a6114c2565b6114ce565b9463150b7a0292969861161e610122565b998a98899788966114da565b865260048601611547565b03925af180915f926116f3575b50155f146116b05750600161165d57505b5f808080806115eb565b6116656115a6565b9061166f82610fc1565b61168161167b5f610c81565b9161028c565b145f146116a7576116a3905f918291633250574960e11b8352600483016102f4565b0390fd5b50602081519101fd5b6116c96116c3630a85bd0160e11b610134565b91610134565b036116d45750611653565b6116ef905f918291633250574960e11b8352600483016102f4565b0390fd5b61171591925060203d811161171c575b61170d81836106c9565b8101906114ef565b905f611642565b503d611703565b61172b61092c565b50611734610fc5565b90565b90565b61174e61174961175392611737565b610a99565b61028c565b90565b90611761910161028c565b90565b369037565b9061178e61177683610bb4565b926020806117848693610b91565b9201910390611764565b565b600161179c910361028c565b90565b90565b6117b66117b16117bb9261179f565b610a99565b61028c565b90565b634e487b7160e01b5f52601260045260245ffd5b6117de6117e49161028c565b9161028c565b9081156117ef570490565b6117be565b6117fc61092c565b5061181961180982611d8f565b611813600161173a565b90611756565b9061182382611769565b9161182c610c0d565b5060208301015b6001156118965761184661187291611790565b916f181899199a1a9b1b9c1cb0b131b232b360811b600a82061a835361186c600a6117a2565b906117d2565b8061188561187f5f610c81565b9161028c565b146118905790611833565b50505b90565b5050611893565b906118ae60018060a01b03916113bb565b9181191691161790565b90565b906118d06118cb6118d792610ced565b6118b8565b825461189d565b9055565b919092808015611a02575b611904575b5050906118fd611902929160046111a5565b6118bb565b565b61190d8461114f565b918061192961192361191e5f610ab8565b6102db565b916102db565b1415806119e7575b806119cd575b6119ae5750916118fd916119029493611953575b5091926118eb565b81849061199261198c6119867f8c5be1e5ebec7d5bd14f71427d1e84f3dd0314c0f7b2291e5b200ac8c7c3b92595610ced565b92610ced565b92610cf9565b9261199b610122565b806119a58161038e565b0390a45f61194b565b6119c9905f91829163a9fbf51f60e01b8352600483016102f4565b0390fd5b506119e26119dc848390611101565b15610181565b611937565b50826119fb6119f5836102db565b916102db565b1415611931565b5081611a1e611a18611a135f610ab8565b6102db565b916102db565b14156118e6565b90611a30910361028c565b90565b90611a3f5f19916113bb565b9181191691161790565b90565b90611a61611a5c611a6892610cf9565b611a49565b8254611a33565b9055565b90611a75610a5d565b50611a7f8161133f565b9280611a9b611a95611a905f610ab8565b6102db565b916102db565b03611bda575b5082611abd611ab7611ab25f610ab8565b6102db565b916102db565b03611b86575b81611ade611ad8611ad35f610ab8565b6102db565b916102db565b03611b50575b611af982611af4600284906111a5565b6118bb565b8291611b37611b31611b2b7fddf252ad1be2c89b69c2b068fc378daa952ba7f163c4a11628f55a4df523b3ef95610ced565b92610ced565b92610cf9565b92611b40610122565b80611b4a8161038e565b0390a490565b611b81611b5d600161173a565b611b7b611b6c60038690610dd3565b91611b7683610e00565b611756565b90611a4c565b611ae4565b611ba4611b925f610ab8565b82611b9c5f610ab8565b905f926118db565b611bd5611bb1600161173a565b611bcf611bc060038790610dd3565b91611bca83610e00565b611a25565b90611a4c565b611ac3565b611be79084908391612013565b5f611aa1565b9091611c1992611bfe83829061208f565b611c066111da565b92611c105f610ab8565b909192936115cf565b565b90565b611c32611c2d611c3792611c1b565b610a99565b61028c565b90565b90565b611c51611c4c611c5692611c3a565b610a99565b61028c565b90565b90565b611c70611c6b611c7592611c59565b610a99565b61028c565b90565b90565b611c8f611c8a611c9492611c78565b610a99565b61028c565b90565b90565b611cae611ca9611cb392611c97565b610a99565b61028c565b90565b90565b611ccd611cc8611cd292611cb6565b610a99565b61028c565b90565b90565b611cec611ce7611cf192611cd5565b610a99565b61028c565b90565b90565b611d0b611d06611d1092611cf4565b610a99565b61028c565b90565b90565b611d2a611d25611d2f92611d13565b610a99565b61028c565b90565b90565b611d49611d44611d4e92611d32565b610a99565b61028c565b90565b90565b611d68611d63611d6d92611d51565b610a99565b61028c565b90565b90565b611d87611d82611d8c92611d70565b610a99565b61028c565b90565b611d97610c0d565b50611da15f610c81565b9080611dd0611dca7a184f03e93ff9f4daa797ed6e38ed64bf6a1f010000000000000000611c1e565b9161028c565b1015611fa8575b80611df8611df26d04ee2d6d415b85acef8100000000611c5c565b9161028c565b1015611f6d575b80611e19611e13662386f26fc10000611c9a565b9161028c565b1015611f39575b80611e37611e316305f5e100611cd8565b9161028c565b1015611f08575b80611e53611e4d612710611d16565b9161028c565b1015611ed9575b80611e6e611e686064611d54565b9161028c565b1015611eab575b611e88611e82600a6117a2565b9161028c565b1015611e92575b90565b611ea690611ea0600161173a565b90611756565b611e8f565b611ec2611ed391611ebc6064611d54565b906117d2565b91611ecd6002611d73565b90611756565b90611e75565b611ef1611f0291611eeb612710611d16565b906117d2565b91611efc6004611d35565b90611756565b90611e5a565b611f22611f3391611f1c6305f5e100611cd8565b906117d2565b91611f2d6008611cf7565b90611756565b90611e3e565b611f56611f6791611f50662386f26fc10000611c9a565b906117d2565b91611f616010611cb9565b90611756565b90611e20565b611f91611fa291611f8b6d04ee2d6d415b85acef8100000000611c5c565b906117d2565b91611f9c6020611c7b565b90611756565b90611dff565b611fd9611fea91611fd37a184f03e93ff9f4daa797ed6e38ed64bf6a1f010000000000000000611c1e565b906117d2565b91611fe46040611c3d565b90611756565b90611dd7565b91602061201192949361200a60408201965f8301906102e7565b0190610535565b565b61202861202282848691612133565b15610181565b61203157505050565b61204b6120456120405f610ab8565b6102db565b916102db565b145f146120715761206d825f918291637e27328960e01b835260048301610542565b0390fd5b61208b5f92839263177e802f60e01b845260048401611ff0565b0390fd5b90816120ab6120a56120a05f610ab8565b6102db565b916102db565b1461210c576120c491906120be5f610ab8565b91611276565b6120de6120d86120d35f610ab8565b6102db565b916102db565b036120e557565b6121086120f15f610ab8565b5f9182916339e3563760e11b8352600483016102f4565b0390fd5b61212f6121185f610ab8565b5f918291633250574960e11b8352600483016102f4565b0390fd5b919061213d6108c0565b508061215961215361214e5f610ab8565b6102db565b916102db565b14159283612168575b50505090565b809192935061217f612179846102db565b916102db565b149081156121c1575b5091821561219b575b50505f8080612162565b6121b99192506121ad6121b3916111bb565b926102db565b916102db565b145f80612191565b6121cd91508290611101565b5f61218856fea264697066735822122016c0daae7198ab3205200a199f89225f2971b67d81269529e6dbaadd7e2ec8e364736f6c634300081e0033",
  "linkReferences": {},
  "deployedLinkReferences": {},
  "immutableReferences": {},
  "inputSourceName": "project/contracts/WallegacySBT.sol",
  "buildInfoId": "solc-0_8_30-07368fed5fc336b00c59facb71a8983fb8e111f3"
}