{
  "_format": "hh3-artifact-1",
  "contractName": "Wallegacy",
  "sourceName": "contracts/Wallegacy.sol",
  "abi": [
    {
      "inputs": [],
      "stateMutability": "nonpayable",
      "type": "constructor"
    },
    {
      "inputs": [
        {
          "internalType": "address",
          "name": "owner",
          "type": "address"
        }
      ],
      "name": "OwnableInvalidOwner",
      "type": "error"
    },
    {
      "inputs": [
        {
          "internalType": "address",
          "name": "account",
          "type": "address"
        }
      ],
      "name": "OwnableUnauthorizedAccount",
      "type": "error"
    },
    {
      "inputs": [],
      "name": "WallegacySBT__NoAddress",
      "type": "error"
    },
    {
      "inputs": [],
      "name": "WallegacySBT__NotSet",
      "type": "error"
    },
    {
      "inputs": [
        {
          "internalType": "address",
          "name": "testatorAddress",
          "type": "address"
        },
        {
          "internalType": "address",
          "name": "heirAddress",
          "type": "address"
        },
        {
          "internalType": "uint256",
          "name": "heirAmount",
          "type": "uint256"
        }
      ],
      "name": "Wallegacy__ErrorSendingLegacy",
      "type": "error"
    },
    {
      "inputs": [
        {
          "internalType": "uint256",
          "name": "heirIndex",
          "type": "uint256"
        }
      ],
      "name": "Wallegacy__HeirWithoutAddress",
      "type": "error"
    },
    {
      "inputs": [],
      "name": "Wallegacy__NewWillMissingNotary",
      "type": "error"
    },
    {
      "inputs": [
        {
          "internalType": "uint8",
          "name": "percent",
          "type": "uint8"
        }
      ],
      "name": "Wallegacy__NewWillNotGoodPercent",
      "type": "error"
    },
    {
      "inputs": [],
      "name": "Wallegacy__NoHeirs",
      "type": "error"
    },
    {
      "inputs": [
        {
          "internalType": "address",
          "name": "sender",
          "type": "address"
        }
      ],
      "name": "Wallegacy__NoTestator",
      "type": "error"
    },
    {
      "inputs": [],
      "name": "Wallegacy__NotEnoughAmount",
      "type": "error"
    },
    {
      "inputs": [
        {
          "internalType": "address",
          "name": "notaryAddress",
          "type": "address"
        }
      ],
      "name": "Wallegacy__NotaryNegativeNumberOfWill",
      "type": "error"
    },
    {
      "inputs": [
        {
          "internalType": "address",
          "name": "testatorAddress",
          "type": "address"
        }
      ],
      "name": "Wallegacy__RefundFailed",
      "type": "error"
    },
    {
      "inputs": [
        {
          "internalType": "address",
          "name": "testatorAddress",
          "type": "address"
        }
      ],
      "name": "Wallegacy__TestatorAlreadyHasWill",
      "type": "error"
    },
    {
      "inputs": [
        {
          "internalType": "address",
          "name": "sender",
          "type": "address"
        }
      ],
      "name": "Wallegacy__TestatorWithoutWill",
      "type": "error"
    },
    {
      "inputs": [],
      "name": "Wallegacy__Unauthorized",
      "type": "error"
    },
    {
      "inputs": [
        {
          "internalType": "address",
          "name": "testatorAddress",
          "type": "address"
        }
      ],
      "name": "Wallegacy__WillAlreadySet",
      "type": "error"
    },
    {
      "inputs": [],
      "name": "Wallegacy__WillDone",
      "type": "error"
    },
    {
      "inputs": [
        {
          "internalType": "address",
          "name": "testatorAddress",
          "type": "address"
        }
      ],
      "name": "Wallegacy__WillNoValueLocked",
      "type": "error"
    },
    {
      "inputs": [
        {
          "internalType": "address",
          "name": "testatorAddress",
          "type": "address"
        }
      ],
      "name": "Wallegacy__WillNotFound",
      "type": "error"
    },
    {
      "inputs": [],
      "name": "Wallegacy__WillStatusNotCorrect",
      "type": "error"
    },
    {
      "anonymous": false,
      "inputs": [
        {
          "indexed": true,
          "internalType": "address",
          "name": "testatorAddress",
          "type": "address"
        }
      ],
      "name": "LegacySent",
      "type": "event"
    },
    {
      "anonymous": false,
      "inputs": [
        {
          "indexed": true,
          "internalType": "address",
          "name": "heirAddress",
          "type": "address"
        }
      ],
      "name": "LegacySentToHeir",
      "type": "event"
    },
    {
      "anonymous": false,
      "inputs": [
        {
          "indexed": true,
          "internalType": "address",
          "name": "notaryAddress",
          "type": "address"
        }
      ],
      "name": "NotaryAddWill",
      "type": "event"
    },
    {
      "anonymous": false,
      "inputs": [
        {
          "indexed": true,
          "internalType": "address",
          "name": "notaryAddress",
          "type": "address"
        }
      ],
      "name": "NotaryCancelWill",
      "type": "event"
    },
    {
      "anonymous": false,
      "inputs": [
        {
          "indexed": true,
          "internalType": "address",
          "name": "notaryAddress",
          "type": "address"
        },
        {
          "indexed": true,
          "internalType": "address",
          "name": "testatorAddress",
          "type": "address"
        }
      ],
      "name": "NotaryNewWill",
      "type": "event"
    },
    {
      "anonymous": false,
      "inputs": [
        {
          "indexed": true,
          "internalType": "address",
          "name": "notaryAddress",
          "type": "address"
        }
      ],
      "name": "NotaryNoMoreWill",
      "type": "event"
    },
    {
      "anonymous": false,
      "inputs": [
        {
          "indexed": true,
          "internalType": "address",
          "name": "notaryAddress",
          "type": "address"
        }
      ],
      "name": "NotaryRegistered",
      "type": "event"
    },
    {
      "anonymous": false,
      "inputs": [
        {
          "indexed": true,
          "internalType": "address",
          "name": "notaryAddress",
          "type": "address"
        }
      ],
      "name": "NotaryRemovedWill",
      "type": "event"
    },
    {
      "anonymous": false,
      "inputs": [
        {
          "indexed": true,
          "internalType": "address",
          "name": "previousOwner",
          "type": "address"
        },
        {
          "indexed": true,
          "internalType": "address",
          "name": "newOwner",
          "type": "address"
        }
      ],
      "name": "OwnershipTransferred",
      "type": "event"
    },
    {
      "anonymous": false,
      "inputs": [
        {
          "indexed": true,
          "internalType": "address",
          "name": "sbtAddess",
          "type": "address"
        }
      ],
      "name": "SBTContractSet",
      "type": "event"
    },
    {
      "anonymous": false,
      "inputs": [
        {
          "indexed": true,
          "internalType": "address",
          "name": "testatorAddress",
          "type": "address"
        }
      ],
      "name": "TestatorRegistered",
      "type": "event"
    },
    {
      "anonymous": false,
      "inputs": [
        {
          "indexed": true,
          "internalType": "address",
          "name": "testator",
          "type": "address"
        },
        {
          "indexed": false,
          "internalType": "uint256",
          "name": "amount",
          "type": "uint256"
        }
      ],
      "name": "TestatorValueLocked",
      "type": "event"
    },
    {
      "anonymous": false,
      "inputs": [
        {
          "indexed": true,
          "internalType": "address",
          "name": "testatorAddress",
          "type": "address"
        }
      ],
      "name": "WillCancelled",
      "type": "event"
    },
    {
      "anonymous": false,
      "inputs": [
        {
          "indexed": true,
          "internalType": "address",
          "name": "testator",
          "type": "address"
        }
      ],
      "name": "WillSetUp",
      "type": "event"
    },
    {
      "inputs": [],
      "name": "cancelWill",
      "outputs": [],
      "stateMutability": "nonpayable",
      "type": "function"
    },
    {
      "inputs": [
        {
          "internalType": "address",
          "name": "testatorAddress",
          "type": "address"
        }
      ],
      "name": "getLockedValue",
      "outputs": [
        {
          "internalType": "uint256",
          "name": "",
          "type": "uint256"
        }
      ],
      "stateMutability": "view",
      "type": "function"
    },
    {
      "inputs": [],
      "name": "getNotaryWills",
      "outputs": [
        {
          "components": [
            {
              "internalType": "address",
              "name": "testator",
              "type": "address"
            },
            {
              "internalType": "enum Wallegacy.WillStatus",
              "name": "status",
              "type": "uint8"
            },
            {
              "internalType": "bool",
              "name": "gasPayed",
              "type": "bool"
            },
            {
              "internalType": "bool",
              "name": "exists",
              "type": "bool"
            },
            {
              "components": [
                {
                  "internalType": "address",
                  "name": "heirAddress",
                  "type": "address"
                },
                {
                  "internalType": "uint8",
                  "name": "percent",
                  "type": "uint8"
                }
              ],
              "internalType": "struct Wallegacy.Heir[]",
              "name": "heirs",
              "type": "tuple[]"
            },
            {
              "internalType": "address",
              "name": "notary",
              "type": "address"
            },
            {
              "internalType": "uint256",
              "name": "index",
              "type": "uint256"
            }
          ],
          "internalType": "struct Wallegacy.Will[]",
          "name": "",
          "type": "tuple[]"
        }
      ],
      "stateMutability": "view",
      "type": "function"
    },
    {
      "inputs": [],
      "name": "getWill",
      "outputs": [
        {
          "components": [
            {
              "internalType": "address",
              "name": "testator",
              "type": "address"
            },
            {
              "internalType": "enum Wallegacy.WillStatus",
              "name": "status",
              "type": "uint8"
            },
            {
              "internalType": "bool",
              "name": "gasPayed",
              "type": "bool"
            },
            {
              "internalType": "bool",
              "name": "exists",
              "type": "bool"
            },
            {
              "components": [
                {
                  "internalType": "address",
                  "name": "heirAddress",
                  "type": "address"
                },
                {
                  "internalType": "uint8",
                  "name": "percent",
                  "type": "uint8"
                }
              ],
              "internalType": "struct Wallegacy.Heir[]",
              "name": "heirs",
              "type": "tuple[]"
            },
            {
              "internalType": "address",
              "name": "notary",
              "type": "address"
            },
            {
              "internalType": "uint256",
              "name": "index",
              "type": "uint256"
            }
          ],
          "internalType": "struct Wallegacy.Will",
          "name": "",
          "type": "tuple"
        }
      ],
      "stateMutability": "view",
      "type": "function"
    },
    {
      "inputs": [
        {
          "internalType": "address",
          "name": "notaryAddress",
          "type": "address"
        }
      ],
      "name": "isNotary",
      "outputs": [
        {
          "internalType": "bool",
          "name": "",
          "type": "bool"
        }
      ],
      "stateMutability": "view",
      "type": "function"
    },
    {
      "inputs": [],
      "name": "isTestator",
      "outputs": [
        {
          "internalType": "bool",
          "name": "",
          "type": "bool"
        }
      ],
      "stateMutability": "view",
      "type": "function"
    },
    {
      "inputs": [],
      "name": "lockTestatorFunds",
      "outputs": [],
      "stateMutability": "payable",
      "type": "function"
    },
    {
      "inputs": [
        {
          "internalType": "address",
          "name": "testatorAddress",
          "type": "address"
        }
      ],
      "name": "newWill",
      "outputs": [],
      "stateMutability": "nonpayable",
      "type": "function"
    },
    {
      "inputs": [],
      "name": "owner",
      "outputs": [
        {
          "internalType": "address",
          "name": "",
          "type": "address"
        }
      ],
      "stateMutability": "view",
      "type": "function"
    },
    {
      "inputs": [
        {
          "internalType": "address",
          "name": "notaryAddress",
          "type": "address"
        }
      ],
      "name": "registerNotary",
      "outputs": [],
      "stateMutability": "nonpayable",
      "type": "function"
    },
    {
      "inputs": [],
      "name": "renounceOwnership",
      "outputs": [],
      "stateMutability": "nonpayable",
      "type": "function"
    },
    {
      "inputs": [],
      "name": "sbtContract",
      "outputs": [
        {
          "internalType": "contract WallegacySBT",
          "name": "",
          "type": "address"
        }
      ],
      "stateMutability": "view",
      "type": "function"
    },
    {
      "inputs": [
        {
          "internalType": "address",
          "name": "_sbtContract",
          "type": "address"
        }
      ],
      "name": "setSBTContract",
      "outputs": [],
      "stateMutability": "nonpayable",
      "type": "function"
    },
    {
      "inputs": [
        {
          "components": [
            {
              "internalType": "address",
              "name": "heirAddress",
              "type": "address"
            },
            {
              "internalType": "uint8",
              "name": "percent",
              "type": "uint8"
            }
          ],
          "internalType": "struct Wallegacy.Heir[]",
          "name": "heirsParams",
          "type": "tuple[]"
        }
      ],
      "name": "setUpWill",
      "outputs": [],
      "stateMutability": "payable",
      "type": "function"
    },
    {
      "inputs": [
        {
          "internalType": "address",
          "name": "newOwner",
          "type": "address"
        }
      ],
      "name": "transferOwnership",
      "outputs": [],
      "stateMutability": "nonpayable",
      "type": "function"
    },
    {
      "inputs": [
        {
          "internalType": "address",
          "name": "testatorAddress",
          "type": "address"
        }
      ],
      "name": "triggerLegacyProcess",
      "outputs": [],
      "stateMutability": "nonpayable",
      "type": "function"
    }
  ],
  "bytecode": "0x60806040523461002757610011610036565b61001961002c565b612cc96102078239612cc990f35b610032565b60405190565b5f80fd5b61003f336100a8565b565b90565b60018060a01b031690565b90565b61006661006161006b92610041565b61004f565b610044565b90565b61007790610052565b90565b61008390610044565b90565b61008f9061007a565b9052565b91906100a6905f60208501940190610086565b565b806100c36100bd6100b85f61006e565b61007a565b9161007a565b146100d3576100d1906101a7565b565b6100f66100df5f61006e565b5f918291631e4fbdf760e01b835260048301610093565b0390fd5b5f1c90565b60018060a01b031690565b61011661011b916100fa565b6100ff565b90565b610128905461010a565b90565b5f1b90565b9061014160018060a01b039161012b565b9181191691161790565b61015f61015a61016492610044565b61004f565b610044565b90565b6101709061014b565b90565b61017c90610167565b90565b90565b9061019761019261019e92610173565b61017f565b8254610130565b9055565b5f0190565b6101b05f61011e565b6101ba825f610182565b906101ee6101e87f8be0079c531659141344cd1fd0a4f28419497f9722a3daafe3b4186f6b6457e093610173565b91610173565b916101f761002c565b80610201816101a2565b0390a356fe60806040526004361015610013575b610a58565b61001d5f3561011c565b80630615836014610117578063067a1e16146101125780631a1ab9501461010d57806324e223701461010857806330095f891461010357806360a0db88146100fe5780636d6ccbcf146100f9578063715018a6146100f45780638da5cb5b146100ef578063b0c63693146100ea578063bf1b452f146100e5578063d3ea6468146100e0578063d558204e146100db578063e95a0866146100d6578063f13eed97146100d15763f2fde38b0361000e57610a25565b6109f0565b6109c7565b610994565b61095f565b610800565b6107cd565b610798565b610743565b610710565b6106db565b610686565b61065d565b61048b565b610292565b6101e7565b60e01c90565b60405190565b5f80fd5b5f80fd5b5f91031261013a57565b61012c565b1c90565b60018060a01b031690565b61015e906008610163930261013f565b610143565b90565b90610171915461014e565b90565b61018060075f90610166565b90565b60018060a01b031690565b90565b6101a56101a06101aa92610183565b61018e565b610183565b90565b6101b690610191565b90565b6101c2906101ad565b90565b6101ce906101b9565b9052565b91906101e5905f602085019401906101c5565b565b34610217576101f7366004610130565b610213610202610174565b61020a610122565b918291826101d2565b0390f35b610128565b5f80fd5b61022990610183565b90565b61023581610220565b0361023c57565b5f80fd5b9050359061024d8261022c565b565b9060208282031261026857610265915f01610240565b90565b61012c565b90565b6102799061026d565b9052565b9190610290905f60208501940190610270565b565b346102c2576102be6102ad6102a836600461024f565b610aab565b6102b5610122565b9182918261027d565b0390f35b610128565b6102d090610220565b9052565b634e487b7160e01b5f52602160045260245ffd5b600411156102f257565b6102d4565b90610301826102e8565b565b61030c906102f7565b90565b61031890610303565b9052565b151590565b61032a9061031c565b9052565b5190565b60209181520190565b60200190565b60ff1690565b61035090610341565b9052565b906020806103769361036c5f8201515f8601906102c7565b0151910190610347565b565b9061038581604093610354565b0190565b60200190565b906103ac6103a661039f8461032e565b8093610332565b9261033b565b905f5b8181106103bc5750505090565b9091926103d56103cf6001928651610378565b94610389565b91019190916103af565b6103e89061026d565b9052565b906104709060c08061045360e0840161040b5f8801515f8701906102c7565b61041d6020880151602087019061030f565b61042f60408801516040870190610321565b61044160608801516060870190610321565b6080870151858203608087015261038f565b9461046660a082015160a08601906102c7565b01519101906103df565b90565b6104889160208201915f8184039101526103ec565b90565b346104bb5761049b366004610130565b6104b76104a6610f07565b6104ae610122565b91829182610473565b0390f35b610128565b5f80fd5b601f801991011690565b634e487b7160e01b5f52604160045260245ffd5b906104ec906104c4565b810190811067ffffffffffffffff82111761050657604052565b6104ce565b9061051e610517610122565b92836104e2565b565b67ffffffffffffffff81116105385760208091020190565b6104ce565b5f80fd5b5f80fd5b61054e81610341565b0361055557565b5f80fd5b9050359061056682610545565b565b91906040838203126105a25761059b90610582604061050b565b9361058f825f8301610240565b5f860152602001610559565b6020830152565b610541565b909291926105bc6105b782610520565b61050b565b9381855260406020860192028301928184116105fb57915b8383106105e15750505050565b60206040916105f08486610568565b8152019201916105d4565b61053d565b9080601f8301121561061e5781602061061b933591016105a7565b90565b6104c0565b90602082820312610653575f82013567ffffffffffffffff811161064e5761064b9201610600565b90565b61021c565b61012c565b5f0190565b61067061066b366004610623565b6116a7565b610678610122565b8061068281610658565b0390f35b346106b45761069e61069936600461024f565b6116f9565b6106a6610122565b806106b081610658565b0390f35b610128565b6106c29061031c565b9052565b91906106d9905f602085019401906106b9565b565b3461070b576106eb366004610130565b6107076106f661178e565b6106fe610122565b918291826106c6565b0390f35b610128565b3461073e5761072861072336600461024f565b61185e565b610730610122565b8061073a81610658565b0390f35b610128565b3461077157610753366004610130565b61075b61188e565b610763610122565b8061076d81610658565b0390f35b610128565b61077f90610220565b9052565b9190610796905f60208501940190610776565b565b346107c8576107a8366004610130565b6107c46107b361189c565b6107bb610122565b91829182610783565b0390f35b610128565b346107fb576107e56107e036600461024f565b611cda565b6107ed610122565b806107f781610658565b0390f35b610128565b3461082e5761081861081336600461024f565b611d38565b610820610122565b8061082a81610658565b0390f35b610128565b5190565b60209181520190565b60200190565b906108ca9060c0806108ad60e084016108655f8801515f8701906102c7565b6108776020880151602087019061030f565b61088960408801516040870190610321565b61089b60608801516060870190610321565b6080870151858203608087015261038f565b946108c060a082015160a08601906102c7565b01519101906103df565b90565b906108d791610846565b90565b60200190565b906108f46108ed83610833565b8092610837565b908161090560208302840194610840565b925f915b83831061091857505050505090565b9091929394602061093a610934838560019503875289516108cd565b976108da565b9301930191939290610909565b61095c9160208201915f8184039101526108e0565b90565b3461098f5761096f366004610130565b61098b61097a611fc9565b610982610122565b91829182610947565b0390f35b610128565b346109c2576109a4366004610130565b6109ac6124fe565b6109b4610122565b806109be81610658565b0390f35b610128565b6109d2366004610130565b6109da612639565b6109e2610122565b806109ec81610658565b0390f35b34610a2057610a1c610a0b610a0636600461024f565b612643565b610a13610122565b918291826106c6565b0390f35b610128565b34610a5357610a3d610a3836600461024f565b6126c7565b610a45610122565b80610a4f81610658565b0390f35b610128565b5f80fd5b5f90565b610a69906101ad565b90565b90610a7690610a60565b5f5260205260405f2090565b5f1c90565b90565b610a96610a9b91610a82565b610a87565b90565b610aa89054610a8a565b90565b610ac2610ac791610aba610a5c565b506003610a6c565b610a9e565b90565b610ad460e061050b565b90565b5f90565b5f90565b5f90565b606090565b5f90565b610af4610aca565b90602080808080808088610b06610ad7565b815201610b11610adb565b815201610b1c610adf565b815201610b27610adf565b815201610b32610ae3565b815201610b3d610ad7565b815201610b48610ae8565b81525050565b610b56610aec565b90565b90610b6390610a60565b5f5260205260405f2090565b60ff1690565b610b81610b8691610a82565b610b6f565b90565b610b939054610b75565b90565b610bb3610bad610ba860043390610b59565b610b89565b1561031c565b80610be8575b610bc957610bc690610eb7565b90565b610be4335f9182916376ffc6bf60e11b835260048301610783565b0390fd5b50610bfb610bf533612643565b1561031c565b610bb9565b90610c0a90610a60565b5f5260205260405f2090565b60018060a01b031690565b610c2d610c3291610a82565b610c16565b90565b610c3f9054610c21565b90565b90610c4c90610220565b9052565b60a01c90565b60ff1690565b610c68610c6d91610c50565b610c56565b90565b610c7a9054610c5c565b90565b90610c87906102f7565b9052565b60a81c90565b610c9d610ca291610c8b565b610b6f565b90565b610caf9054610c91565b90565b90610cbc9061031c565b9052565b60b01c90565b610cd2610cd791610cc0565b610b6f565b90565b610ce49054610cc6565b90565b5490565b90610cfd610cf883610520565b61050b565b918252565b5f5260205f2090565b60ff1690565b610d1d610d2291610c50565b610d0b565b90565b610d2f9054610d11565b90565b90610d3c90610341565b9052565b610d4a604061050b565b90565b90610d83610d7a5f610d5d610d40565b94610d74610d6c838301610c35565b838801610c42565b01610d25565b60208401610d32565b565b610d8e90610d4d565b90565b90610d9b82610ce7565b610da481610ceb565b92610db26020850191610d02565b5f915b838310610dc25750505050565b600160208192610dd185610d85565b815201920192019190610db5565b52565b90610dec9061026d565b9052565b90610e9c610e936003610e01610aca565b94610e18610e105f8301610c35565b5f8801610c42565b610e2f610e265f8301610c70565b60208801610c7d565b610e46610e3d5f8301610ca5565b60408801610cb2565b610e5d610e545f8301610cda565b60608801610cb2565b610e75610e6c60018301610d91565b60808801610ddf565b610e8d610e8460028301610c35565b60a08801610c42565b01610a9e565b60c08401610de2565b565b610ea790610df0565b90565b610eb4905161031c565b90565b50610ecc610ec760013390610c00565b610e9e565b610ee1610edb60608301610eaa565b1561031c565b610ee85790565b610f03335f91829163763da88160e11b835260048301610783565b0390fd5b610f17610f12610b4e565b610b96565b90565b610f26610f2b91610a82565b610143565b90565b610f389054610f1a565b90565b90565b610f52610f4d610f5792610f3b565b61018e565b610183565b90565b610f6390610f3e565b90565b610f78610f736007610f2e565b6101b9565b610f92610f8c610f875f610f5a565b610220565b91610220565b14610fa257610fa090610fbe565b565b5f63330f558d60e01b815280610fba60048201610658565b0390fd5b610fdb610fd5610fd060043390610b59565b610b89565b1561031c565b8061100f575b610ff057610fee90611407565b565b61100b335f9182916376ffc6bf60e11b835260048301610783565b0390fd5b5061102261101c33612643565b1561031c565b610fe1565b61103b61103661104092610f3b565b61018e565b61026d565b90565b90565b61105a61105561105f92610f3b565b61018e565b610341565b90565b600161106e910161026d565b90565b634e487b7160e01b5f52603260045260245ffd5b9061108f8261032e565b8110156110a0576020809102010190565b611071565b6110af9051610220565b90565b6110bc9051610341565b90565b634e487b7160e01b5f52601160045260245ffd5b6110df6110e591610341565b91610341565b019060ff82116110f157565b6110bf565b90565b61110d611108611112926110f6565b61018e565b610341565b90565b61111e90610341565b9052565b9190611135905f60208501940190611115565b565b5f80fd5b60e01b90565b61114a8161026d565b0361115157565b5f80fd5b9050519061116282611141565b565b9060208282031261117d5761117a915f01611155565b90565b61012c565b61118a610122565b3d5f823e3d90fd5b634e487b7160e01b5f525f60045260245ffd5b6111b46111ba9193929361026d565b9261026d565b916111c683820261026d565b9281840414901517156111d557565b6110bf565b600190818003010490565b5f80910155565b905f036111fe576111fc906111e5565b565b611192565b5b81811061120f575050565b8061121c5f6001936111ec565b01611204565b9091828110611231575b505050565b61124f61124961124361125a956111da565b926111da565b92610d02565b918201910190611203565b5f808061122c565b9068010000000000000000811161128b578161128061128993610ce7565b90828155611222565b565b6104ce565b5190565b5f1b90565b906112aa60018060a01b0391611294565b9181191691161790565b90565b906112cc6112c76112d392610a60565b6112b4565b8254611299565b9055565b60a01b90565b906112ec60ff60a01b916112d7565b9181191691161790565b61130a61130561130f92610341565b61018e565b610341565b90565b90565b9061132a611325611331926112f6565b611312565b82546112dd565b9055565b9061135f60205f611365946113578282016113518488016110a5565b906112b7565b0192016110b2565b90611315565b565b9061137191611335565b565b6113986113926113828461032e565b9361138d8585611262565b61033b565b91610d02565b5f915b8383106113a85750505050565b60016020826113c06113ba8495611290565b86611367565b0192019201919061139b565b906113d691611373565b565b6113e1906102f7565b90565b90565b906113fc6113f7611403926113d8565b6113e4565b82546112dd565b9055565b6114108161032e565b61142261141c5f611027565b9161026d565b1461168b573461143a6114345f611027565b9161026d565b111561166f5761145461144f60013390610c00565b611043565b906114696114635f8401610cda565b1561031c565b611650576114765f611046565b926114805f611027565b935b8461149d6114976114928661032e565b61026d565b9161026d565b1015611527576114b95f6114b2858890611085565b51016110a5565b6114d36114cd6114c85f610f5a565b610220565b91610220565b14611508576114fc611502916114f660206114ef878a90611085565b51016110b2565b906110d3565b94611062565b93611482565b611523855f9182916321df4dfd60e01b83526004830161027d565b0390fd5b935091908361153f61153960646110f9565b91610341565b0361163157611591929350611552612639565b60206115666115616007610f2e565b6101b9565b636a627842906115865f339361157a610122565b9889958694859361113b565b835260048301610783565b03925af190811561162c576115bd936115b392611600575b50600183016113cc565b5f600191016113e7565b336115e87f2876366326174fcdb3de4d2c886645201d572dcc433593a3369e8da520e4c10691610a60565b906115f1610122565b806115fb81610658565b0390a2565b6116209060203d8111611625575b61161881836104e2565b810190611164565b6115a9565b503d61160e565b611182565b61164c845f9182916333e5960f60e11b835260048301611122565b0390fd5b61166b335f91829163bf8b146560e01b835260048301610783565b0390fd5b5f631f7b263d60e01b81528061168760048201610658565b0390fd5b5f6381a1a10760e01b8152806116a360048201610658565b0390fd5b6116b090610f66565b565b6116bb90610191565b90565b6116c7906116b2565b90565b6116d3906116b2565b90565b90565b906116ee6116e96116f5926116ca565b6116d6565b8254611299565b9055565b8061171461170e6117095f610f5a565b610220565b91610220565b1461176e5761172c611725826116be565b60076116d9565b6117567f9ad04d4c6ba7e850cd07be1896cdd4db84780a1c030c4c2a2bc935bbe6bcfc0091610a60565b9061175f610122565b8061176981610658565b0390a2565b5f639241a65160e01b81528061178660048201610658565b0390fd5b5f90565b61179661178a565b506117ab6117a660043390610b59565b610b89565b90565b6117bf906117ba6126d2565b611806565b565b906117cd60ff91611294565b9181191691161790565b6117e09061031c565b90565b90565b906117fb6117f6611802926117d7565b6117e3565b82546117c1565b9055565b61181c600161181760068490610b59565b6117e6565b6118467f1e59e06fbc9b065c65d072c1f7a2ed1d81154e6e57768747c6c082207dca730891610a60565b9061184f610122565b8061185981610658565b0390a2565b611867906117ae565b565b6118716126d2565b61187961187b565b565b61188c6118875f610f5a565b612720565b565b611896611869565b565b5f90565b6118a4611898565b506118ae5f610c35565b90565b6118ce6118c86118c360063390610b59565b610b89565b1561031c565b6118dd576118db90611b8c565b565b5f631135d65360e11b8152806118f560048201610658565b0390fd5b606090565b9061190890610a60565b5f5260205260405f2090565b5490565b61192260e061050b565b90565b61192f90516102f7565b90565b60a81b90565b9061194760ff60a81b91611932565b9181191691161790565b9061196661196161196d926117d7565b6117e3565b8254611938565b9055565b60b01b90565b9061198660ff60b01b91611971565b9181191691161790565b906119a56119a06119ac926117d7565b6117e3565b8254611977565b9055565b5190565b6119be905161026d565b90565b906119cd5f1991611294565b9181191691161790565b6119eb6119e66119f09261026d565b61018e565b61026d565b90565b90565b90611a0b611a06611a12926119d7565b6119f3565b82546119c1565b9055565b90611abb60c06003611ac194611a395f8201611a335f88016110a5565b906112b7565b611a515f8201611a4b60208801611925565b906113e7565b611a695f8201611a6360408801610eaa565b90611951565b611a815f8201611a7b60608801610eaa565b90611990565b611a9a60018201611a94608088016119b0565b906113cc565b611ab360028201611aad60a088016110a5565b906112b7565b0192016119b4565b906119f6565b565b90611acd91611a16565b565b90565b5f5260205f2090565b5490565b611ae881611adb565b821015611b0257611afa600191611ad2565b910201905f90565b611071565b1b90565b91906008611b2b910291611b2560018060a01b0384611b07565b92611b07565b9181191691161790565b9190611b4b611b46611b5393610a60565b6112b4565b908354611b0b565b9055565b9081549168010000000000000000831015611b875782611b7f916001611b8595018155611adf565b90611b35565b565b6104ce565b611ba25f611b9c60018490610c00565b01610cda565b611cbb57611c3f5f611c2e611bb56118f9565b611c258591611c1c8591611c138791611c0a60019193611c013397611bf8611be7611be2600233906118fe565b611914565b9b611bf0611918565b9e8f01610c42565b60208d01610c7d565b60408b01610cb2565b60608901610cb2565b60808701610ddf565b60a08501610c42565b60c08301610de2565b611c3a60018490610c00565b611ac3565b611c488161277f565b611c506128a3565b611c6e611c67611c62600233906118fe565b611acf565b8290611b57565b3390611ca3611c9d7fa13d29c70439b6e78acbb3edfde073aead7bc08e982c0bbfc2d8ac984c6b3d6693610a60565b91610a60565b91611cac610122565b80611cb681610658565b0390a3565b611cd6905f918291637f281e0960e01b835260048301610783565b0390fd5b611ce3906118b1565b565b611d02611cfc611cf760063390610b59565b610b89565b1561031c565b611d1157611d0f90611d2d565b565b5f631135d65360e11b815280611d2960048201610658565b0390fd5b611d3690612975565b565b611d4190611ce5565b565b606090565b611d65611d5f611d5a60063390610b59565b610b89565b1561031c565b611d7557611d7290611f26565b90565b5f631135d65360e11b815280611d8d60048201610658565b0390fd5b60209181520190565b5f5260205f2090565b90611db0816020936102c7565b0190565b611dbe9054610c21565b90565b60010190565b90611de4611dde611dd784611914565b8093611d91565b92611d9a565b905f5b818110611df45750505090565b909192611e14611e0e600192611e0987611db4565b611da3565b94611dc1565b9101919091611de7565b90611e2891611dc7565b90565b90611e4b611e4492611e3b610122565b93848092611e1e565b03836104e2565b565b611e5690611e2b565b90565b5190565b67ffffffffffffffff8111611e755760208091020190565b6104ce565b90611e8c611e8783611e5d565b61050b565b918252565b611e99610aec565b90565b5f5b828110611eaa57505050565b602090611eb5611e91565b8184015201611e9e565b90611ee4611ecc83611e7a565b92602080611eda8693611e5d565b9201910390611e9c565b565b90611ef082611e59565b811015611f01576020809102010190565b611071565b90611f1082610833565b811015611f21576020809102010190565b611071565b50611f3b611f36600233906118fe565b611e4d565b611f4c611f4782611e59565b611ebf565b90611f565f611027565b5b80611f72611f6c611f6785611e59565b61026d565b9161026d565b1015611fc457611fbf90611fb8611f9d6001611f97611f92878690611ee6565b6110a5565b90610c00565b85611fa88492610e9e565b611fb28383611f06565b52611f06565b5150611062565b611f57565b505090565b611fd9611fd4611d43565b611d48565b90565b611ff9611ff3611fee60043390610b59565b610b89565b1561031c565b8061202c575b61200d5761200b612044565b565b612028335f9182916376ffc6bf60e11b835260048301610783565b0390fd5b5061203f61203933612643565b1561031c565b611fff565b6120566120516007610f2e565b6101b9565b61207061206a6120655f610f5a565b610220565b91610220565b1461207f5761207d61223a565b565b5f63330f558d60e01b81528061209760048201610658565b0390fd5b5f6120a591611262565b565b905f036120b9576120b79061209b565b565b611192565b90565b6120d56120d06120da926120be565b61018e565b61026d565b90565b6120ec6120f29193929361026d565b9261026d565b82039182116120fd57565b6110bf565b612112906008612117930261013f565b610c16565b90565b906121259154612102565b90565b634e487b7160e01b5f52603160045260245ffd5b61214e91612148611898565b91611b35565b565b61215981611adb565b801561217a5760019003906121776121718383611adf565b9061213c565b55565b612128565b5f91031261218957565b61012c565b61219790610191565b90565b6121a39061218e565b90565b6121af906101ad565b90565b905090565b6121c25f80926121b2565b0190565b6121cf906121b7565b90565b67ffffffffffffffff81116121f0576121ec6020916104c4565b0190565b6104ce565b90612207612202836121d2565b61050b565b918252565b606090565b3d5f1461222c576122213d6121f5565b903d5f602084013e5b565b61223461220c565b9061222a565b61224e61224960013390610c00565b611043565b61234761226561226060033390610a6c565b610a9e565b91612309612304612284600361227d60028601610c35565b9401610a9e565b9261229c5f6001612296813390610c00565b016120a7565b6122b96122a85f611027565b6122b460033390610a6c565b6119f6565b6122d05f5f6122ca60013390610c00565b01611990565b6122e860035f6122e260013390610c00565b016113e7565b6122fd5f6122f860043390610b59565b6117e6565b60026118fe565b611acf565b9061232661231683611adb565b61232060016120c1565b906120dd565b908061233a6123348461026d565b9161026d565b036124b8575b5050612150565b612366612361600261235b60013390610c00565b01610c35565b612bd4565b6123786123736007610f2e565b6101b9565b6389afcb4433823b156124b3576123ae926123a35f8094612397610122565b9687958694859361113b565b835260048301610783565b03925af180156124ae57612482575b50806123d16123cb5f611027565b9161026d565b1161241b575b50336124037fc17d6b506af5eb977ab917816ea2471b340abd3d29485bbbb1eec1fc468f38a991610a60565b9061240c610122565b8061241681610658565b0390a2565b5f806124599261243261242d3361219a565b6121a6565b9061243b610122565b9081612446816121c6565b03925af1612452612211565b501561031c565b612463575f6123d7565b61247e335f918291634754b9cf60e01b835260048301610783565b0390fd5b6124a1905f3d81116124a7575b61249981836104e2565b81019061217f565b5f6123bd565b503d61248f565b611182565b611137565b60036124f16124d36124cd6124f79587611adf565b9061211a565b926124e9846124e3888490611adf565b90611b35565b926001610c00565b016119f6565b5f80612340565b612506611fdc565b565b61252561251f61251a60043390610b59565b610b89565b1561031c565b80612558575b61253957612537612595565b565b612554335f9182916376ffc6bf60e11b835260048301610783565b0390fd5b5061256b61256533612643565b1561031c565b61252b565b61257f6125859193929361026d565b9261026d565b820180921161259057565b6110bf565b346125a86125a25f611027565b9161026d565b111561261d576125d6346125d06125c160033390610a6c565b916125cb83610a9e565b612570565b906119f6565b3334906126186126067f61d85293b98e7ffc5c0037f242855b175f52fb85a8c626f201b6905ae3531a7a92610a60565b9261260f610122565b9182918261027d565b0390a2565b5f631f7b263d60e01b81528061263560048201610658565b0390fd5b612641612508565b565b61265a61265f9161265261178a565b506006610b59565b610b89565b90565b6126739061266e6126d2565b612675565b565b8061269061268a6126855f610f5a565b610220565b91610220565b146126a05761269e90612720565b565b6126c36126ac5f610f5a565b5f918291631e4fbdf760e01b835260048301610783565b0390fd5b6126d090612662565b565b6126da61189c565b6126f36126ed6126e8612c86565b610220565b91610220565b036126fa57565b61271c612705612c86565b5f91829163118cdaa760e01b835260048301610783565b0390fd5b6127295f610c35565b612733825f6112b7565b906127676127617f8be0079c531659141344cd1fd0a4f28419497f9722a3daafe3b4186f6b6457e093610a60565b91610a60565b91612770610122565b8061277a81610658565b0390a3565b612795600161279060048490610b59565b6117e6565b6127bf7f4ae785db89f2d840bd297642a60ba580a721c04f519d8b0ed74c1c21dbed9ce791610a60565b906127c8610122565b806127d281610658565b0390a2565b6127f46127ee6127e960063390610b59565b610b89565b1561031c565b6128025761280061283a565b565b5f631135d65360e11b81528061281a60048201610658565b0390fd5b6128279061026d565b5f1981146128355760010190565b6110bf565b61286061284960053390610a6c565b61285a61285582610a9e565b61281e565b906119f6565b3361288b7fb5c28e16753a6b54e6cece016a01a2d4c136b9cab7594a8a454319d4c734acaf91610a60565b90612894610122565b8061289e81610658565b0390a2565b6128ab6127d7565b565b6128b681610ce7565b8210156128d0576128c8600191610d02565b910201905f90565b611071565b6128e96128e46128ee92610341565b61018e565b61026d565b90565b61290561290061290a926110f6565b61018e565b61026d565b90565b634e487b7160e01b5f52601260045260245ffd5b61292d6129339161026d565b9161026d565b90811561293e570490565b61290d565b60409061296c612973949695939661296260608401985f850190610776565b6020830190610776565b0190610270565b565b61299261298c61298760048490610b59565b610b89565b1561031c565b612b99576129aa6129a560018390610c00565b611043565b906129bf6129ba60038390610a6c565b610a9e565b6129cc60025f85016113e7565b6129e96129d85f611027565b6129e460038590610a6c565b6119f6565b6129fd6129f860028501610c35565b612bd4565b612a065f611027565b5b80612a25612a1f612a1a60018801610ce7565b61026d565b9161026d565b1015612b5357612a69612a5983612a53612a4e5f612a4760018b0188906128ad565b5001610d25565b6128d5565b906111a5565b612a6360646128f1565b90612921565b612aae5f80612a8781612a8060018b0188906128ad565b5001610c35565b84612a90610122565b9081612a9b816121c6565b03925af1612aa7612211565b501561031c565b612b1a5750612b1590612ad05f612ac96001880184906128ad565b5001610c35565b612afa7fec41147ebc2cc79208cb6f7d256ffa8072b45ced3e1d6e464cee1afcc973d30b91610a60565b90612b03610122565b80612b0d81610658565b0390a2611062565b612a07565b84612b4f612b375f612b308660018a96016128ad565b5001610c35565b925f938493637c54d33360e01b855260048501612943565b0390fd5b50509050612b817fa3ed805e94c59604a546b6fcbda571425db926becf14e84467ba36d772fc02bc91610a60565b90612b8a610122565b80612b9481610658565b0390a2565b612bb4905f9182916376ffc6bf60e11b835260048301610783565b0390fd5b612bc19061026d565b5f8114612bcf576001900390565b6110bf565b612bfa612be360058390610a6c565b612bf4612bef82610a9e565b612bb8565b906119f6565b612c0e612c0960058390610a6c565b610a9e565b612c20612c1a5f611027565b9161026d565b10612c6757612c4f7faa8e8e0dbb760f50d1c72b5650c4435a8564574a5e6b937feac03a8699f0a3dd91610a60565b90612c58610122565b80612c6281610658565b0390a2565b612c82905f918291632e3159cb60e01b835260048301610783565b0390fd5b612c8e611898565b50339056fea2646970667358221220a18f921b38b04e66934277008321e0eedefd1d4d5a6a6a99268be616b3f1aacf64736f6c634300081e0033",
  "linkReferences": {},
  "deployedLinkReferences": {},
  "immutableReferences": {},
  "inputSourceName": "project/contracts/Wallegacy.sol",
  "buildInfoId": "solc-0_8_30-a76cf6464f47dbb36957c72643be70a12eb4d03d"
}