{
  "_format": "hh3-artifact-1",
  "contractName": "Wallegacy",
  "sourceName": "contracts/Wallegacy.sol",
  "abi": [
    {
      "inputs": [],
      "stateMutability": "nonpayable",
      "type": "constructor"
    },
    {
      "inputs": [
        {
          "internalType": "address",
          "name": "owner",
          "type": "address"
        }
      ],
      "name": "OwnableInvalidOwner",
      "type": "error"
    },
    {
      "inputs": [
        {
          "internalType": "address",
          "name": "account",
          "type": "address"
        }
      ],
      "name": "OwnableUnauthorizedAccount",
      "type": "error"
    },
    {
      "inputs": [],
      "name": "WallegacySBT__NoAddress",
      "type": "error"
    },
    {
      "inputs": [],
      "name": "WallegacySBT__NotSet",
      "type": "error"
    },
    {
      "inputs": [
        {
          "internalType": "address",
          "name": "testatorAddress",
          "type": "address"
        },
        {
          "internalType": "address",
          "name": "heirAddress",
          "type": "address"
        },
        {
          "internalType": "uint256",
          "name": "heirAmount",
          "type": "uint256"
        }
      ],
      "name": "Wallegacy__ErrorSendingLegacy",
      "type": "error"
    },
    {
      "inputs": [
        {
          "internalType": "uint256",
          "name": "heirIndex",
          "type": "uint256"
        }
      ],
      "name": "Wallegacy__HeirWithoutAddress",
      "type": "error"
    },
    {
      "inputs": [],
      "name": "Wallegacy__NewWillMissingNotary",
      "type": "error"
    },
    {
      "inputs": [
        {
          "internalType": "uint8",
          "name": "percent",
          "type": "uint8"
        }
      ],
      "name": "Wallegacy__NewWillNotGoodPercent",
      "type": "error"
    },
    {
      "inputs": [],
      "name": "Wallegacy__NoHeirs",
      "type": "error"
    },
    {
      "inputs": [
        {
          "internalType": "address",
          "name": "sender",
          "type": "address"
        }
      ],
      "name": "Wallegacy__NoTestator",
      "type": "error"
    },
    {
      "inputs": [],
      "name": "Wallegacy__NotEnoughAmount",
      "type": "error"
    },
    {
      "inputs": [
        {
          "internalType": "address",
          "name": "notaryAddress",
          "type": "address"
        }
      ],
      "name": "Wallegacy__NotaryNegativeNumberOfWill",
      "type": "error"
    },
    {
      "inputs": [
        {
          "internalType": "address",
          "name": "testatorAddress",
          "type": "address"
        }
      ],
      "name": "Wallegacy__TestatorAlreadyHasWill",
      "type": "error"
    },
    {
      "inputs": [
        {
          "internalType": "address",
          "name": "sender",
          "type": "address"
        }
      ],
      "name": "Wallegacy__TestatorWithoutWill",
      "type": "error"
    },
    {
      "inputs": [],
      "name": "Wallegacy__Unauthorized",
      "type": "error"
    },
    {
      "inputs": [
        {
          "internalType": "address",
          "name": "testatorAddress",
          "type": "address"
        }
      ],
      "name": "Wallegacy__WillAlreadySet",
      "type": "error"
    },
    {
      "inputs": [],
      "name": "Wallegacy__WillDone",
      "type": "error"
    },
    {
      "inputs": [
        {
          "internalType": "address",
          "name": "testatorAddress",
          "type": "address"
        }
      ],
      "name": "Wallegacy__WillNoValueLocked",
      "type": "error"
    },
    {
      "inputs": [
        {
          "internalType": "address",
          "name": "testatorAddress",
          "type": "address"
        }
      ],
      "name": "Wallegacy__WillNotFound",
      "type": "error"
    },
    {
      "inputs": [],
      "name": "Wallegacy__WillStatusNotCorrect",
      "type": "error"
    },
    {
      "anonymous": false,
      "inputs": [
        {
          "indexed": true,
          "internalType": "address",
          "name": "testatorAddress",
          "type": "address"
        }
      ],
      "name": "LegacySent",
      "type": "event"
    },
    {
      "anonymous": false,
      "inputs": [
        {
          "indexed": true,
          "internalType": "address",
          "name": "heirAddress",
          "type": "address"
        }
      ],
      "name": "LegacySentToHeir",
      "type": "event"
    },
    {
      "anonymous": false,
      "inputs": [
        {
          "indexed": true,
          "internalType": "address",
          "name": "notaryAddress",
          "type": "address"
        }
      ],
      "name": "NotaryAddWill",
      "type": "event"
    },
    {
      "anonymous": false,
      "inputs": [
        {
          "indexed": true,
          "internalType": "address",
          "name": "notaryAddress",
          "type": "address"
        }
      ],
      "name": "NotaryCancelWill",
      "type": "event"
    },
    {
      "anonymous": false,
      "inputs": [
        {
          "indexed": true,
          "internalType": "address",
          "name": "notaryAddress",
          "type": "address"
        },
        {
          "indexed": true,
          "internalType": "address",
          "name": "testatorAddress",
          "type": "address"
        }
      ],
      "name": "NotaryNewWill",
      "type": "event"
    },
    {
      "anonymous": false,
      "inputs": [
        {
          "indexed": true,
          "internalType": "address",
          "name": "notaryAddress",
          "type": "address"
        }
      ],
      "name": "NotaryNoMoreWill",
      "type": "event"
    },
    {
      "anonymous": false,
      "inputs": [
        {
          "indexed": true,
          "internalType": "address",
          "name": "notaryAddress",
          "type": "address"
        }
      ],
      "name": "NotaryRegistered",
      "type": "event"
    },
    {
      "anonymous": false,
      "inputs": [
        {
          "indexed": true,
          "internalType": "address",
          "name": "notaryAddress",
          "type": "address"
        }
      ],
      "name": "NotaryRemovedWill",
      "type": "event"
    },
    {
      "anonymous": false,
      "inputs": [
        {
          "indexed": true,
          "internalType": "address",
          "name": "previousOwner",
          "type": "address"
        },
        {
          "indexed": true,
          "internalType": "address",
          "name": "newOwner",
          "type": "address"
        }
      ],
      "name": "OwnershipTransferred",
      "type": "event"
    },
    {
      "anonymous": false,
      "inputs": [
        {
          "indexed": true,
          "internalType": "address",
          "name": "sbtAddess",
          "type": "address"
        }
      ],
      "name": "SBTContractSet",
      "type": "event"
    },
    {
      "anonymous": false,
      "inputs": [
        {
          "indexed": true,
          "internalType": "address",
          "name": "testatorAddress",
          "type": "address"
        }
      ],
      "name": "TestatorRegistered",
      "type": "event"
    },
    {
      "anonymous": false,
      "inputs": [
        {
          "indexed": true,
          "internalType": "address",
          "name": "testator",
          "type": "address"
        },
        {
          "indexed": false,
          "internalType": "uint256",
          "name": "amount",
          "type": "uint256"
        }
      ],
      "name": "TestatorValueLocked",
      "type": "event"
    },
    {
      "anonymous": false,
      "inputs": [
        {
          "indexed": true,
          "internalType": "address",
          "name": "testatorAddress",
          "type": "address"
        }
      ],
      "name": "WillCancelled",
      "type": "event"
    },
    {
      "anonymous": false,
      "inputs": [
        {
          "indexed": true,
          "internalType": "address",
          "name": "testator",
          "type": "address"
        }
      ],
      "name": "WillSetUp",
      "type": "event"
    },
    {
      "inputs": [],
      "name": "cancelWill",
      "outputs": [],
      "stateMutability": "nonpayable",
      "type": "function"
    },
    {
      "inputs": [
        {
          "internalType": "address",
          "name": "testatorAddress",
          "type": "address"
        }
      ],
      "name": "getLockedValue",
      "outputs": [
        {
          "internalType": "uint256",
          "name": "",
          "type": "uint256"
        }
      ],
      "stateMutability": "view",
      "type": "function"
    },
    {
      "inputs": [],
      "name": "getNotaryWills",
      "outputs": [
        {
          "components": [
            {
              "internalType": "address",
              "name": "testator",
              "type": "address"
            },
            {
              "internalType": "enum Wallegacy.WillStatus",
              "name": "status",
              "type": "uint8"
            },
            {
              "internalType": "bool",
              "name": "gasPayed",
              "type": "bool"
            },
            {
              "internalType": "bool",
              "name": "exists",
              "type": "bool"
            },
            {
              "components": [
                {
                  "internalType": "address",
                  "name": "heirAddress",
                  "type": "address"
                },
                {
                  "internalType": "uint8",
                  "name": "percent",
                  "type": "uint8"
                }
              ],
              "internalType": "struct Wallegacy.Heir[]",
              "name": "heirs",
              "type": "tuple[]"
            },
            {
              "internalType": "address",
              "name": "notary",
              "type": "address"
            }
          ],
          "internalType": "struct Wallegacy.Will[]",
          "name": "",
          "type": "tuple[]"
        }
      ],
      "stateMutability": "view",
      "type": "function"
    },
    {
      "inputs": [],
      "name": "getWill",
      "outputs": [
        {
          "components": [
            {
              "internalType": "address",
              "name": "testator",
              "type": "address"
            },
            {
              "internalType": "enum Wallegacy.WillStatus",
              "name": "status",
              "type": "uint8"
            },
            {
              "internalType": "bool",
              "name": "gasPayed",
              "type": "bool"
            },
            {
              "internalType": "bool",
              "name": "exists",
              "type": "bool"
            },
            {
              "components": [
                {
                  "internalType": "address",
                  "name": "heirAddress",
                  "type": "address"
                },
                {
                  "internalType": "uint8",
                  "name": "percent",
                  "type": "uint8"
                }
              ],
              "internalType": "struct Wallegacy.Heir[]",
              "name": "heirs",
              "type": "tuple[]"
            },
            {
              "internalType": "address",
              "name": "notary",
              "type": "address"
            }
          ],
          "internalType": "struct Wallegacy.Will",
          "name": "",
          "type": "tuple"
        }
      ],
      "stateMutability": "view",
      "type": "function"
    },
    {
      "inputs": [
        {
          "internalType": "address",
          "name": "notaryAddress",
          "type": "address"
        }
      ],
      "name": "isNotary",
      "outputs": [
        {
          "internalType": "bool",
          "name": "",
          "type": "bool"
        }
      ],
      "stateMutability": "view",
      "type": "function"
    },
    {
      "inputs": [],
      "name": "isTestator",
      "outputs": [
        {
          "internalType": "bool",
          "name": "",
          "type": "bool"
        }
      ],
      "stateMutability": "view",
      "type": "function"
    },
    {
      "inputs": [],
      "name": "lockTestatorFunds",
      "outputs": [],
      "stateMutability": "payable",
      "type": "function"
    },
    {
      "inputs": [
        {
          "internalType": "address",
          "name": "testatorAddress",
          "type": "address"
        }
      ],
      "name": "newWill",
      "outputs": [],
      "stateMutability": "nonpayable",
      "type": "function"
    },
    {
      "inputs": [],
      "name": "owner",
      "outputs": [
        {
          "internalType": "address",
          "name": "",
          "type": "address"
        }
      ],
      "stateMutability": "view",
      "type": "function"
    },
    {
      "inputs": [
        {
          "internalType": "address",
          "name": "notaryAddress",
          "type": "address"
        }
      ],
      "name": "registerNotary",
      "outputs": [],
      "stateMutability": "nonpayable",
      "type": "function"
    },
    {
      "inputs": [],
      "name": "renounceOwnership",
      "outputs": [],
      "stateMutability": "nonpayable",
      "type": "function"
    },
    {
      "inputs": [],
      "name": "sbtContract",
      "outputs": [
        {
          "internalType": "contract WallegacySBT",
          "name": "",
          "type": "address"
        }
      ],
      "stateMutability": "view",
      "type": "function"
    },
    {
      "inputs": [
        {
          "internalType": "address",
          "name": "_sbtContract",
          "type": "address"
        }
      ],
      "name": "setSBTContract",
      "outputs": [],
      "stateMutability": "nonpayable",
      "type": "function"
    },
    {
      "inputs": [
        {
          "components": [
            {
              "internalType": "address",
              "name": "heirAddress",
              "type": "address"
            },
            {
              "internalType": "uint8",
              "name": "percent",
              "type": "uint8"
            }
          ],
          "internalType": "struct Wallegacy.Heir[]",
          "name": "heirsParams",
          "type": "tuple[]"
        }
      ],
      "name": "setUpWill",
      "outputs": [],
      "stateMutability": "payable",
      "type": "function"
    },
    {
      "inputs": [
        {
          "internalType": "address",
          "name": "newOwner",
          "type": "address"
        }
      ],
      "name": "transferOwnership",
      "outputs": [],
      "stateMutability": "nonpayable",
      "type": "function"
    },
    {
      "inputs": [
        {
          "internalType": "address",
          "name": "testatorAddress",
          "type": "address"
        }
      ],
      "name": "triggerLegacyProcess",
      "outputs": [],
      "stateMutability": "nonpayable",
      "type": "function"
    }
  ],
  "bytecode": "0x60806040523461002757610011610036565b61001961002c565b6129bd61020782396129bd90f35b610032565b60405190565b5f80fd5b61003f336100a8565b565b90565b60018060a01b031690565b90565b61006661006161006b92610041565b61004f565b610044565b90565b61007790610052565b90565b61008390610044565b90565b61008f9061007a565b9052565b91906100a6905f60208501940190610086565b565b806100c36100bd6100b85f61006e565b61007a565b9161007a565b146100d3576100d1906101a7565b565b6100f66100df5f61006e565b5f918291631e4fbdf760e01b835260048301610093565b0390fd5b5f1c90565b60018060a01b031690565b61011661011b916100fa565b6100ff565b90565b610128905461010a565b90565b5f1b90565b9061014160018060a01b039161012b565b9181191691161790565b61015f61015a61016492610044565b61004f565b610044565b90565b6101709061014b565b90565b61017c90610167565b90565b90565b9061019761019261019e92610173565b61017f565b8254610130565b9055565b5f0190565b6101b05f61011e565b6101ba825f610182565b906101ee6101e87f8be0079c531659141344cd1fd0a4f28419497f9722a3daafe3b4186f6b6457e093610173565b91610173565b916101f761002c565b80610201816101a2565b0390a356fe60806040526004361015610013575b610a27565b61001d5f3561011c565b80630615836014610117578063067a1e16146101125780631a1ab9501461010d57806324e223701461010857806330095f891461010357806360a0db88146100fe5780636d6ccbcf146100f9578063715018a6146100f45780638da5cb5b146100ef578063b0c63693146100ea578063bf1b452f146100e5578063d3ea6468146100e0578063d558204e146100db578063e95a0866146100d6578063f13eed97146100d15763f2fde38b0361000e576109f4565b6109bf565b610996565b610963565b61092e565b6107e1565b6107ae565b610779565b610724565b6106f1565b6106bc565b610667565b61063e565b61046c565b610292565b6101e7565b60e01c90565b60405190565b5f80fd5b5f80fd5b5f91031261013a57565b61012c565b1c90565b60018060a01b031690565b61015e906008610163930261013f565b610143565b90565b90610171915461014e565b90565b61018060075f90610166565b90565b60018060a01b031690565b90565b6101a56101a06101aa92610183565b61018e565b610183565b90565b6101b690610191565b90565b6101c2906101ad565b90565b6101ce906101b9565b9052565b91906101e5905f602085019401906101c5565b565b34610217576101f7366004610130565b610213610202610174565b61020a610122565b918291826101d2565b0390f35b610128565b5f80fd5b61022990610183565b90565b61023581610220565b0361023c57565b5f80fd5b9050359061024d8261022c565b565b9060208282031261026857610265915f01610240565b90565b61012c565b90565b6102799061026d565b9052565b9190610290905f60208501940190610270565b565b346102c2576102be6102ad6102a836600461024f565b610a7a565b6102b5610122565b9182918261027d565b0390f35b610128565b6102d090610220565b9052565b634e487b7160e01b5f52602160045260245ffd5b600411156102f257565b6102d4565b90610301826102e8565b565b61030c906102f7565b90565b61031890610303565b9052565b151590565b61032a9061031c565b9052565b5190565b60209181520190565b60200190565b60ff1690565b61035090610341565b9052565b906020806103769361036c5f8201515f8601906102c7565b0151910190610347565b565b9061038581604093610354565b0190565b60200190565b906103ac6103a661039f8461032e565b8093610332565b9261033b565b905f5b8181106103bc5750505090565b9091926103d56103cf6001928651610378565b94610389565b91019190916103af565b906104519060a08061044660c084016103fe5f8801515f8701906102c7565b6104106020880151602087019061030f565b61042260408801516040870190610321565b61043460608801516060870190610321565b6080870151858203608087015261038f565b9401519101906102c7565b90565b6104699160208201915f8184039101526103df565b90565b3461049c5761047c366004610130565b610498610487610ea0565b61048f610122565b91829182610454565b0390f35b610128565b5f80fd5b601f801991011690565b634e487b7160e01b5f52604160045260245ffd5b906104cd906104a5565b810190811067ffffffffffffffff8211176104e757604052565b6104af565b906104ff6104f8610122565b92836104c3565b565b67ffffffffffffffff81116105195760208091020190565b6104af565b5f80fd5b5f80fd5b61052f81610341565b0361053657565b5f80fd5b9050359061054782610526565b565b91906040838203126105835761057c9061056360406104ec565b93610570825f8301610240565b5f86015260200161053a565b6020830152565b610522565b9092919261059d61059882610501565b6104ec565b9381855260406020860192028301928184116105dc57915b8383106105c25750505050565b60206040916105d18486610549565b8152019201916105b5565b61051e565b9080601f830112156105ff578160206105fc93359101610588565b90565b6104a1565b90602082820312610634575f82013567ffffffffffffffff811161062f5761062c92016105e1565b90565b61021c565b61012c565b5f0190565b61065161064c366004610604565b611640565b610659610122565b8061066381610639565b0390f35b346106955761067f61067a36600461024f565b611692565b610687610122565b8061069181610639565b0390f35b610128565b6106a39061031c565b9052565b91906106ba905f6020850194019061069a565b565b346106ec576106cc366004610130565b6106e86106d7611727565b6106df610122565b918291826106a7565b0390f35b610128565b3461071f5761070961070436600461024f565b6117f7565b610711610122565b8061071b81610639565b0390f35b610128565b3461075257610734366004610130565b61073c611827565b610744610122565b8061074e81610639565b0390f35b610128565b61076090610220565b9052565b9190610777905f60208501940190610757565b565b346107a957610789366004610130565b6107a5610794611835565b61079c610122565b91829182610764565b0390f35b610128565b346107dc576107c66107c136600461024f565b611bd3565b6107ce610122565b806107d881610639565b0390f35b610128565b3461080f576107f96107f436600461024f565b611c31565b610801610122565b8061080b81610639565b0390f35b610128565b5190565b60209181520190565b60200190565b906108999060a08061088e60c084016108465f8801515f8701906102c7565b6108586020880151602087019061030f565b61086a60408801516040870190610321565b61087c60608801516060870190610321565b6080870151858203608087015261038f565b9401519101906102c7565b90565b906108a691610827565b90565b60200190565b906108c36108bc83610814565b8092610818565b90816108d460208302840194610821565b925f915b8383106108e757505050505090565b909192939460206109096109038385600195038752895161089c565b976108a9565b93019301919392906108d8565b61092b9160208201915f8184039101526108af565b90565b3461095e5761093e366004610130565b61095a610949611ec6565b610951610122565b91829182610916565b0390f35b610128565b3461099157610973366004610130565b61097b612115565b610983610122565b8061098d81610639565b0390f35b610128565b6109a1366004610130565b6109a96122a5565b6109b1610122565b806109bb81610639565b0390f35b346109ef576109eb6109da6109d536600461024f565b6122af565b6109e2610122565b918291826106a7565b0390f35b610128565b34610a2257610a0c610a0736600461024f565b612333565b610a14610122565b80610a1e81610639565b0390f35b610128565b5f80fd5b5f90565b610a38906101ad565b90565b90610a4590610a2f565b5f5260205260405f2090565b5f1c90565b90565b610a65610a6a91610a51565b610a56565b90565b610a779054610a59565b90565b610a91610a9691610a89610a2b565b506003610a3b565b610a6d565b90565b610aa360c06104ec565b90565b5f90565b5f90565b5f90565b606090565b610abf610a99565b906020808080808087610ad0610aa6565b815201610adb610aaa565b815201610ae6610aae565b815201610af1610aae565b815201610afc610ab2565b815201610b07610aa6565b81525050565b610b15610ab7565b90565b90610b2290610a2f565b5f5260205260405f2090565b60ff1690565b610b40610b4591610a51565b610b2e565b90565b610b529054610b34565b90565b610b72610b6c610b6760043390610b18565b610b48565b1561031c565b80610ba7575b610b8857610b8590610e50565b90565b610ba3335f9182916376ffc6bf60e11b835260048301610764565b0390fd5b50610bba610bb4336122af565b1561031c565b610b78565b90610bc990610a2f565b5f5260205260405f2090565b60018060a01b031690565b610bec610bf191610a51565b610bd5565b90565b610bfe9054610be0565b90565b90610c0b90610220565b9052565b60a01c90565b60ff1690565b610c27610c2c91610c0f565b610c15565b90565b610c399054610c1b565b90565b90610c46906102f7565b9052565b60a81c90565b610c5c610c6191610c4a565b610b2e565b90565b610c6e9054610c50565b90565b90610c7b9061031c565b9052565b60b01c90565b610c91610c9691610c7f565b610b2e565b90565b610ca39054610c85565b90565b5490565b90610cbc610cb783610501565b6104ec565b918252565b5f5260205f2090565b60ff1690565b610cdc610ce191610c0f565b610cca565b90565b610cee9054610cd0565b90565b90610cfb90610341565b9052565b610d0960406104ec565b90565b90610d42610d395f610d1c610cff565b94610d33610d2b838301610bf4565b838801610c01565b01610ce4565b60208401610cf1565b565b610d4d90610d0c565b90565b90610d5a82610ca6565b610d6381610caa565b92610d716020850191610cc1565b5f915b838310610d815750505050565b600160208192610d9085610d44565b815201920192019190610d74565b52565b90610e35610e2c6002610db2610a99565b94610dc9610dc15f8301610bf4565b5f8801610c01565b610de0610dd75f8301610c2f565b60208801610c3c565b610df7610dee5f8301610c64565b60408801610c71565b610e0e610e055f8301610c99565b60608801610c71565b610e26610e1d60018301610d50565b60808801610d9e565b01610bf4565b60a08401610c01565b565b610e4090610da1565b90565b610e4d905161031c565b90565b50610e65610e6060013390610bbf565b610e37565b610e7a610e7460608301610e43565b1561031c565b610e815790565b610e9c335f91829163763da88160e11b835260048301610764565b0390fd5b610eb0610eab610b0d565b610b55565b90565b610ebf610ec491610a51565b610143565b90565b610ed19054610eb3565b90565b90565b610eeb610ee6610ef092610ed4565b61018e565b610183565b90565b610efc90610ed7565b90565b610f11610f0c6007610ec7565b6101b9565b610f2b610f25610f205f610ef3565b610220565b91610220565b14610f3b57610f3990610f57565b565b5f63330f558d60e01b815280610f5360048201610639565b0390fd5b610f74610f6e610f6960043390610b18565b610b48565b1561031c565b80610fa8575b610f8957610f87906113a0565b565b610fa4335f9182916376ffc6bf60e11b835260048301610764565b0390fd5b50610fbb610fb5336122af565b1561031c565b610f7a565b610fd4610fcf610fd992610ed4565b61018e565b61026d565b90565b90565b610ff3610fee610ff892610ed4565b61018e565b610341565b90565b6001611007910161026d565b90565b634e487b7160e01b5f52603260045260245ffd5b906110288261032e565b811015611039576020809102010190565b61100a565b6110489051610220565b90565b6110559051610341565b90565b634e487b7160e01b5f52601160045260245ffd5b61107861107e91610341565b91610341565b019060ff821161108a57565b611058565b90565b6110a66110a16110ab9261108f565b61018e565b610341565b90565b6110b790610341565b9052565b91906110ce905f602085019401906110ae565b565b5f80fd5b60e01b90565b6110e38161026d565b036110ea57565b5f80fd5b905051906110fb826110da565b565b9060208282031261111657611113915f016110ee565b90565b61012c565b611123610122565b3d5f823e3d90fd5b634e487b7160e01b5f525f60045260245ffd5b61114d6111539193929361026d565b9261026d565b9161115f83820261026d565b92818404149015171561116e57565b611058565b600190818003010490565b5f80910155565b905f03611197576111959061117e565b565b61112b565b5b8181106111a8575050565b806111b55f600193611185565b0161119d565b90918281106111ca575b505050565b6111e86111e26111dc6111f395611173565b92611173565b92610cc1565b91820191019061119c565b5f80806111c5565b90680100000000000000008111611224578161121961122293610ca6565b908281556111bb565b565b6104af565b5190565b5f1b90565b9061124360018060a01b039161122d565b9181191691161790565b90565b9061126561126061126c92610a2f565b61124d565b8254611232565b9055565b60a01b90565b9061128560ff60a01b91611270565b9181191691161790565b6112a361129e6112a892610341565b61018e565b610341565b90565b90565b906112c36112be6112ca9261128f565b6112ab565b8254611276565b9055565b906112f860205f6112fe946112f08282016112ea84880161103e565b90611250565b01920161104b565b906112ae565b565b9061130a916112ce565b565b61133161132b61131b8461032e565b9361132685856111fb565b61033b565b91610cc1565b5f915b8383106113415750505050565b60016020826113596113538495611229565b86611300565b01920192019190611334565b9061136f9161130c565b565b61137a906102f7565b90565b90565b9061139561139061139c92611371565b61137d565b8254611276565b9055565b6113a98161032e565b6113bb6113b55f610fc0565b9161026d565b1461162457346113d36113cd5f610fc0565b9161026d565b1115611608576113ed6113e860013390610bbf565b610fdc565b906114026113fc5f8401610c99565b1561031c565b6115e95761140f5f610fdf565b926114195f610fc0565b935b8461143661143061142b8661032e565b61026d565b9161026d565b10156114c0576114525f61144b85889061101e565b510161103e565b61146c6114666114615f610ef3565b610220565b91610220565b146114a15761149561149b9161148f6020611488878a9061101e565b510161104b565b9061106c565b94610ffb565b9361141b565b6114bc855f9182916321df4dfd60e01b83526004830161027d565b0390fd5b93509190836114d86114d26064611092565b91610341565b036115ca5761152a9293506114eb6122a5565b60206114ff6114fa6007610ec7565b6101b9565b636a6278429061151f5f3393611513610122565b988995869485936110d4565b835260048301610764565b03925af19081156115c5576115569361154c92611599575b5060018301611365565b5f60019101611380565b336115817f2876366326174fcdb3de4d2c886645201d572dcc433593a3369e8da520e4c10691610a2f565b9061158a610122565b8061159481610639565b0390a2565b6115b99060203d81116115be575b6115b181836104c3565b8101906110fd565b611542565b503d6115a7565b61111b565b6115e5845f9182916333e5960f60e11b8352600483016110bb565b0390fd5b611604335f91829163bf8b146560e01b835260048301610764565b0390fd5b5f631f7b263d60e01b81528061162060048201610639565b0390fd5b5f6381a1a10760e01b81528061163c60048201610639565b0390fd5b61164990610eff565b565b61165490610191565b90565b6116609061164b565b90565b61166c9061164b565b90565b90565b9061168761168261168e92611663565b61166f565b8254611232565b9055565b806116ad6116a76116a25f610ef3565b610220565b91610220565b14611707576116c56116be82611657565b6007611672565b6116ef7f9ad04d4c6ba7e850cd07be1896cdd4db84780a1c030c4c2a2bc935bbe6bcfc0091610a2f565b906116f8610122565b8061170281610639565b0390a2565b5f639241a65160e01b81528061171f60048201610639565b0390fd5b5f90565b61172f611723565b5061174461173f60043390610b18565b610b48565b90565b6117589061175361233e565b61179f565b565b9061176660ff9161122d565b9181191691161790565b6117799061031c565b90565b90565b9061179461178f61179b92611770565b61177c565b825461175a565b9055565b6117b560016117b060068490610b18565b61177f565b6117df7f1e59e06fbc9b065c65d072c1f7a2ed1d81154e6e57768747c6c082207dca730891610a2f565b906117e8610122565b806117f281610639565b0390a2565b61180090611747565b565b61180a61233e565b611812611814565b565b6118256118205f610ef3565b61238c565b565b61182f611802565b565b5f90565b61183d611831565b506118475f610bf4565b90565b61186761186161185c60063390610b18565b610b48565b1561031c565b6118765761187490611aa6565b565b5f631135d65360e11b81528061188e60048201610639565b0390fd5b606090565b6118a160c06104ec565b90565b6118ae90516102f7565b90565b60a81b90565b906118c660ff60a81b916118b1565b9181191691161790565b906118e56118e06118ec92611770565b61177c565b82546118b7565b9055565b60b01b90565b9061190560ff60b01b916118f0565b9181191691161790565b9061192461191f61192b92611770565b61177c565b82546118f6565b9055565b5190565b906119bf60a060026119c5946119565f82016119505f880161103e565b90611250565b61196e5f8201611968602088016118a4565b90611380565b6119865f820161198060408801610e43565b906118d0565b61199e5f820161199860608801610e43565b9061190f565b6119b7600182016119b16080880161192f565b90611365565b01920161103e565b90611250565b565b906119d191611933565b565b906119dd90610a2f565b5f5260205260405f2090565b90565b5f5260205f2090565b5490565b611a02816119f5565b821015611a1c57611a146001916119ec565b910201905f90565b61100a565b1b90565b91906008611a45910291611a3f60018060a01b0384611a21565b92611a21565b9181191691161790565b9190611a65611a60611a6d93610a2f565b61124d565b908354611a25565b9055565b9081549168010000000000000000831015611aa15782611a99916001611a9f950181556119f9565b90611a4f565b565b6104af565b611abc5f611ab660018490610bbf565b01610c99565b611bb457611b38611acb611892565b611b278391611b1e5f91611b155f91611b0c60019193611b033397611afa611af1611897565b9b5f8d01610c01565b60208b01610c3c565b60408901610c71565b60608701610c71565b60808501610d9e565b60a08301610c01565b611b3360018490610bbf565b6119c7565b611b41816123eb565b611b4961250f565b611b67611b60611b5b600233906119d3565b6119e9565b8290611a71565b3390611b9c611b967fa13d29c70439b6e78acbb3edfde073aead7bc08e982c0bbfc2d8ac984c6b3d6693610a2f565b91610a2f565b91611ba5610122565b80611baf81610639565b0390a3565b611bcf905f918291637f281e0960e01b835260048301610764565b0390fd5b611bdc9061184a565b565b611bfb611bf5611bf060063390610b18565b610b48565b1561031c565b611c0a57611c0890611c26565b565b5f631135d65360e11b815280611c2260048201610639565b0390fd5b611c2f90612669565b565b611c3a90611bde565b565b606090565b611c5e611c58611c5360063390610b18565b610b48565b1561031c565b611c6e57611c6b90611e23565b90565b5f631135d65360e11b815280611c8660048201610639565b0390fd5b5490565b60209181520190565b5f5260205f2090565b90611cad816020936102c7565b0190565b611cbb9054610be0565b90565b60010190565b90611ce1611cdb611cd484611c8a565b8093611c8e565b92611c97565b905f5b818110611cf15750505090565b909192611d11611d0b600192611d0687611cb1565b611ca0565b94611cbe565b9101919091611ce4565b90611d2591611cc4565b90565b90611d48611d4192611d38610122565b93848092611d1b565b03836104c3565b565b611d5390611d28565b90565b5190565b67ffffffffffffffff8111611d725760208091020190565b6104af565b90611d89611d8483611d5a565b6104ec565b918252565b611d96610ab7565b90565b5f5b828110611da757505050565b602090611db2611d8e565b8184015201611d9b565b90611de1611dc983611d77565b92602080611dd78693611d5a565b9201910390611d99565b565b90611ded82611d56565b811015611dfe576020809102010190565b61100a565b90611e0d82610814565b811015611e1e576020809102010190565b61100a565b50611e38611e33600233906119d3565b611d4a565b611e49611e4482611d56565b611dbc565b90611e535f610fc0565b5b80611e6f611e69611e6485611d56565b61026d565b9161026d565b1015611ec157611ebc90611eb5611e9a6001611e94611e8f878690611de3565b61103e565b90610bbf565b85611ea58492610e37565b611eaf8383611e03565b52611e03565b5150610ffb565b611e54565b505090565b611ed6611ed1611c3c565b611c41565b90565b611ef6611ef0611eeb60043390610b18565b610b48565b1561031c565b80611f29575b611f0a57611f08611f41565b565b611f25335f9182916376ffc6bf60e11b835260048301610764565b0390fd5b50611f3c611f36336122af565b1561031c565b611efc565b611f53611f4e6007610ec7565b6101b9565b611f6d611f67611f625f610ef3565b610220565b91610220565b14611f7c57611f7a611fca565b565b5f63330f558d60e01b815280611f9460048201610639565b0390fd5b5f611fa2916111fb565b565b905f03611fb657611fb490611f98565b565b61112b565b5f910312611fc557565b61012c565b611fe15f6001611fdb813390610bbf565b01611fa4565b611ff85f5f611ff260013390610bbf565b0161190f565b61201060035f61200a60013390610bbf565b01611380565b6120255f61202060043390610b18565b61177f565b61204461203f600261203960013390610bbf565b01610bf4565b6128c8565b6120566120516007610ec7565b6101b9565b6389afcb4433823b156121105761208c926120815f8094612075610122565b968795869485936110d4565b835260048301610764565b03925af1801561210b576120df575b50336120c77fc17d6b506af5eb977ab917816ea2471b340abd3d29485bbbb1eec1fc468f38a991610a2f565b906120d0610122565b806120da81610639565b0390a2565b6120fe905f3d8111612104575b6120f681836104c3565b810190611fbb565b5f61209b565b503d6120ec565b61111b565b6110d0565b61211d611ed9565b565b61213c61213661213160043390610b18565b610b48565b1561031c565b8061216f575b6121505761214e612201565b565b61216b335f9182916376ffc6bf60e11b835260048301610764565b0390fd5b5061218261217c336122af565b1561031c565b612142565b61219661219c9193929361026d565b9261026d565b82018092116121a757565b611058565b906121b85f199161122d565b9181191691161790565b6121d66121d16121db9261026d565b61018e565b61026d565b90565b90565b906121f66121f16121fd926121c2565b6121de565b82546121ac565b9055565b3461221461220e5f610fc0565b9161026d565b1115612289576122423461223c61222d60033390610a3b565b9161223783610a6d565b612187565b906121e1565b3334906122846122727f61d85293b98e7ffc5c0037f242855b175f52fb85a8c626f201b6905ae3531a7a92610a2f565b9261227b610122565b9182918261027d565b0390a2565b5f631f7b263d60e01b8152806122a160048201610639565b0390fd5b6122ad61211f565b565b6122c66122cb916122be611723565b506006610b18565b610b48565b90565b6122df906122da61233e565b6122e1565b565b806122fc6122f66122f15f610ef3565b610220565b91610220565b1461230c5761230a9061238c565b565b61232f6123185f610ef3565b5f918291631e4fbdf760e01b835260048301610764565b0390fd5b61233c906122ce565b565b612346611835565b61235f61235961235461297a565b610220565b91610220565b0361236657565b61238861237161297a565b5f91829163118cdaa760e01b835260048301610764565b0390fd5b6123955f610bf4565b61239f825f611250565b906123d36123cd7f8be0079c531659141344cd1fd0a4f28419497f9722a3daafe3b4186f6b6457e093610a2f565b91610a2f565b916123dc610122565b806123e681610639565b0390a3565b61240160016123fc60048490610b18565b61177f565b61242b7f4ae785db89f2d840bd297642a60ba580a721c04f519d8b0ed74c1c21dbed9ce791610a2f565b90612434610122565b8061243e81610639565b0390a2565b61246061245a61245560063390610b18565b610b48565b1561031c565b61246e5761246c6124a6565b565b5f631135d65360e11b81528061248660048201610639565b0390fd5b6124939061026d565b5f1981146124a15760010190565b611058565b6124cc6124b560053390610a3b565b6124c66124c182610a6d565b61248a565b906121e1565b336124f77fb5c28e16753a6b54e6cece016a01a2d4c136b9cab7594a8a454319d4c734acaf91610a2f565b90612500610122565b8061250a81610639565b0390a2565b612517612443565b565b61252281610ca6565b82101561253c57612534600191610cc1565b910201905f90565b61100a565b61255561255061255a92610341565b61018e565b61026d565b90565b61257161256c6125769261108f565b61018e565b61026d565b90565b634e487b7160e01b5f52601260045260245ffd5b61259961259f9161026d565b9161026d565b9081156125aa570490565b612579565b905090565b6125bf5f80926125af565b0190565b6125cc906125b4565b90565b67ffffffffffffffff81116125ed576125e96020916104a5565b0190565b6104af565b906126046125ff836125cf565b6104ec565b918252565b606090565b3d5f146126295761261e3d6125f2565b903d5f602084013e5b565b612631612609565b90612627565b604090612660612667949695939661265660608401985f850190610757565b6020830190610757565b0190610270565b565b61268661268061267b60048490610b18565b610b48565b1561031c565b61288d5761269e61269960018390610bbf565b610fdc565b906126b36126ae60038390610a3b565b610a6d565b6126c060025f8501611380565b6126dd6126cc5f610fc0565b6126d860038590610a3b565b6121e1565b6126f16126ec60028501610bf4565b6128c8565b6126fa5f610fc0565b5b8061271961271361270e60018801610ca6565b61026d565b9161026d565b10156128475761275d61274d836127476127425f61273b60018b018890612519565b5001610ce4565b612541565b9061113e565b612757606461255d565b9061258d565b6127a25f8061277b8161277460018b018890612519565b5001610bf4565b84612784610122565b908161278f816125c3565b03925af161279b61260e565b501561031c565b61280e5750612809906127c45f6127bd600188018490612519565b5001610bf4565b6127ee7fec41147ebc2cc79208cb6f7d256ffa8072b45ced3e1d6e464cee1afcc973d30b91610a2f565b906127f7610122565b8061280181610639565b0390a2610ffb565b6126fb565b8461284361282b5f6128248660018a9601612519565b5001610bf4565b925f938493637c54d33360e01b855260048501612637565b0390fd5b505090506128757fa3ed805e94c59604a546b6fcbda571425db926becf14e84467ba36d772fc02bc91610a2f565b9061287e610122565b8061288881610639565b0390a2565b6128a8905f9182916376ffc6bf60e11b835260048301610764565b0390fd5b6128b59061026d565b5f81146128c3576001900390565b611058565b6128ee6128d760058390610a3b565b6128e86128e382610a6d565b6128ac565b906121e1565b6129026128fd60058390610a3b565b610a6d565b61291461290e5f610fc0565b9161026d565b1061295b576129437faa8e8e0dbb760f50d1c72b5650c4435a8564574a5e6b937feac03a8699f0a3dd91610a2f565b9061294c610122565b8061295681610639565b0390a2565b612976905f918291632e3159cb60e01b835260048301610764565b0390fd5b612982611831565b50339056fea2646970667358221220b5e45dc90b68e48e24c5e48fb871ff41c2ba5fb6520c3adf3ed883e60278b23964736f6c634300081e0033",
  "linkReferences": {},
  "deployedLinkReferences": {},
  "immutableReferences": {},
  "inputSourceName": "project/contracts/Wallegacy.sol",
  "buildInfoId": "solc-0_8_30-fbb280b5905709bcc6864743bc79dba3cbc26134"
}