{
  "_format": "hh3-artifact-1",
  "contractName": "WallegacySBT",
  "sourceName": "contracts/WallegacySBT.sol",
  "abi": [
    {
      "inputs": [
        {
          "internalType": "string",
          "name": "baseTokenURI",
          "type": "string"
        },
        {
          "internalType": "address",
          "name": "wallegacyAddress",
          "type": "address"
        }
      ],
      "stateMutability": "nonpayable",
      "type": "constructor"
    },
    {
      "inputs": [
        {
          "internalType": "address",
          "name": "sender",
          "type": "address"
        },
        {
          "internalType": "uint256",
          "name": "tokenId",
          "type": "uint256"
        },
        {
          "internalType": "address",
          "name": "owner",
          "type": "address"
        }
      ],
      "name": "ERC721IncorrectOwner",
      "type": "error"
    },
    {
      "inputs": [
        {
          "internalType": "address",
          "name": "operator",
          "type": "address"
        },
        {
          "internalType": "uint256",
          "name": "tokenId",
          "type": "uint256"
        }
      ],
      "name": "ERC721InsufficientApproval",
      "type": "error"
    },
    {
      "inputs": [
        {
          "internalType": "address",
          "name": "approver",
          "type": "address"
        }
      ],
      "name": "ERC721InvalidApprover",
      "type": "error"
    },
    {
      "inputs": [
        {
          "internalType": "address",
          "name": "operator",
          "type": "address"
        }
      ],
      "name": "ERC721InvalidOperator",
      "type": "error"
    },
    {
      "inputs": [
        {
          "internalType": "address",
          "name": "owner",
          "type": "address"
        }
      ],
      "name": "ERC721InvalidOwner",
      "type": "error"
    },
    {
      "inputs": [
        {
          "internalType": "address",
          "name": "receiver",
          "type": "address"
        }
      ],
      "name": "ERC721InvalidReceiver",
      "type": "error"
    },
    {
      "inputs": [
        {
          "internalType": "address",
          "name": "sender",
          "type": "address"
        }
      ],
      "name": "ERC721InvalidSender",
      "type": "error"
    },
    {
      "inputs": [
        {
          "internalType": "uint256",
          "name": "tokenId",
          "type": "uint256"
        }
      ],
      "name": "ERC721NonexistentToken",
      "type": "error"
    },
    {
      "inputs": [
        {
          "internalType": "address",
          "name": "testatorAddress",
          "type": "address"
        }
      ],
      "name": "SBT_NoSBTFound",
      "type": "error"
    },
    {
      "inputs": [],
      "name": "SBT__NoWallegacyContract",
      "type": "error"
    },
    {
      "inputs": [
        {
          "internalType": "address",
          "name": "testatorAddress",
          "type": "address"
        }
      ],
      "name": "SBT__TestatorAlreadyHasSBT",
      "type": "error"
    },
    {
      "inputs": [],
      "name": "SBT__TransferNotAllowed",
      "type": "error"
    },
    {
      "inputs": [],
      "name": "WallegacySBT__WallegacyNotSet",
      "type": "error"
    },
    {
      "anonymous": false,
      "inputs": [
        {
          "indexed": true,
          "internalType": "address",
          "name": "owner",
          "type": "address"
        },
        {
          "indexed": true,
          "internalType": "address",
          "name": "approved",
          "type": "address"
        },
        {
          "indexed": true,
          "internalType": "uint256",
          "name": "tokenId",
          "type": "uint256"
        }
      ],
      "name": "Approval",
      "type": "event"
    },
    {
      "anonymous": false,
      "inputs": [
        {
          "indexed": true,
          "internalType": "address",
          "name": "owner",
          "type": "address"
        },
        {
          "indexed": true,
          "internalType": "address",
          "name": "operator",
          "type": "address"
        },
        {
          "indexed": false,
          "internalType": "bool",
          "name": "approved",
          "type": "bool"
        }
      ],
      "name": "ApprovalForAll",
      "type": "event"
    },
    {
      "anonymous": false,
      "inputs": [
        {
          "indexed": true,
          "internalType": "address",
          "name": "testatorAddress",
          "type": "address"
        },
        {
          "indexed": true,
          "internalType": "uint256",
          "name": "tokenID",
          "type": "uint256"
        }
      ],
      "name": "SBTBurned",
      "type": "event"
    },
    {
      "anonymous": false,
      "inputs": [
        {
          "indexed": true,
          "internalType": "address",
          "name": "testatorAddress",
          "type": "address"
        },
        {
          "indexed": true,
          "internalType": "uint256",
          "name": "tokenID",
          "type": "uint256"
        }
      ],
      "name": "SBTMinted",
      "type": "event"
    },
    {
      "anonymous": false,
      "inputs": [
        {
          "indexed": true,
          "internalType": "address",
          "name": "from",
          "type": "address"
        },
        {
          "indexed": true,
          "internalType": "address",
          "name": "to",
          "type": "address"
        },
        {
          "indexed": true,
          "internalType": "uint256",
          "name": "tokenId",
          "type": "uint256"
        }
      ],
      "name": "Transfer",
      "type": "event"
    },
    {
      "inputs": [
        {
          "internalType": "address",
          "name": "to",
          "type": "address"
        },
        {
          "internalType": "uint256",
          "name": "tokenId",
          "type": "uint256"
        }
      ],
      "name": "approve",
      "outputs": [],
      "stateMutability": "nonpayable",
      "type": "function"
    },
    {
      "inputs": [
        {
          "internalType": "address",
          "name": "owner",
          "type": "address"
        }
      ],
      "name": "balanceOf",
      "outputs": [
        {
          "internalType": "uint256",
          "name": "",
          "type": "uint256"
        }
      ],
      "stateMutability": "view",
      "type": "function"
    },
    {
      "inputs": [
        {
          "internalType": "address",
          "name": "testatorAddress",
          "type": "address"
        }
      ],
      "name": "burn",
      "outputs": [],
      "stateMutability": "nonpayable",
      "type": "function"
    },
    {
      "inputs": [
        {
          "internalType": "uint256",
          "name": "tokenId",
          "type": "uint256"
        }
      ],
      "name": "getApproved",
      "outputs": [
        {
          "internalType": "address",
          "name": "",
          "type": "address"
        }
      ],
      "stateMutability": "view",
      "type": "function"
    },
    {
      "inputs": [
        {
          "internalType": "address",
          "name": "owner",
          "type": "address"
        },
        {
          "internalType": "address",
          "name": "operator",
          "type": "address"
        }
      ],
      "name": "isApprovedForAll",
      "outputs": [
        {
          "internalType": "bool",
          "name": "",
          "type": "bool"
        }
      ],
      "stateMutability": "view",
      "type": "function"
    },
    {
      "inputs": [
        {
          "internalType": "address",
          "name": "testatorAddress",
          "type": "address"
        }
      ],
      "name": "mint",
      "outputs": [],
      "stateMutability": "nonpayable",
      "type": "function"
    },
    {
      "inputs": [],
      "name": "name",
      "outputs": [
        {
          "internalType": "string",
          "name": "",
          "type": "string"
        }
      ],
      "stateMutability": "view",
      "type": "function"
    },
    {
      "inputs": [
        {
          "internalType": "uint256",
          "name": "tokenId",
          "type": "uint256"
        }
      ],
      "name": "ownerOf",
      "outputs": [
        {
          "internalType": "address",
          "name": "",
          "type": "address"
        }
      ],
      "stateMutability": "view",
      "type": "function"
    },
    {
      "inputs": [
        {
          "internalType": "address",
          "name": "from",
          "type": "address"
        },
        {
          "internalType": "address",
          "name": "to",
          "type": "address"
        },
        {
          "internalType": "uint256",
          "name": "tokenId",
          "type": "uint256"
        }
      ],
      "name": "safeTransferFrom",
      "outputs": [],
      "stateMutability": "nonpayable",
      "type": "function"
    },
    {
      "inputs": [
        {
          "internalType": "address",
          "name": "from",
          "type": "address"
        },
        {
          "internalType": "address",
          "name": "to",
          "type": "address"
        },
        {
          "internalType": "uint256",
          "name": "tokenId",
          "type": "uint256"
        },
        {
          "internalType": "bytes",
          "name": "data",
          "type": "bytes"
        }
      ],
      "name": "safeTransferFrom",
      "outputs": [],
      "stateMutability": "nonpayable",
      "type": "function"
    },
    {
      "inputs": [
        {
          "internalType": "address",
          "name": "operator",
          "type": "address"
        },
        {
          "internalType": "bool",
          "name": "approved",
          "type": "bool"
        }
      ],
      "name": "setApprovalForAll",
      "outputs": [],
      "stateMutability": "nonpayable",
      "type": "function"
    },
    {
      "inputs": [
        {
          "internalType": "bytes4",
          "name": "interfaceId",
          "type": "bytes4"
        }
      ],
      "name": "supportsInterface",
      "outputs": [
        {
          "internalType": "bool",
          "name": "",
          "type": "bool"
        }
      ],
      "stateMutability": "view",
      "type": "function"
    },
    {
      "inputs": [],
      "name": "symbol",
      "outputs": [
        {
          "internalType": "string",
          "name": "",
          "type": "string"
        }
      ],
      "stateMutability": "view",
      "type": "function"
    },
    {
      "inputs": [
        {
          "internalType": "uint256",
          "name": "tokenId",
          "type": "uint256"
        }
      ],
      "name": "tokenURI",
      "outputs": [
        {
          "internalType": "string",
          "name": "",
          "type": "string"
        }
      ],
      "stateMutability": "view",
      "type": "function"
    },
    {
      "inputs": [
        {
          "internalType": "address",
          "name": "from",
          "type": "address"
        },
        {
          "internalType": "address",
          "name": "to",
          "type": "address"
        },
        {
          "internalType": "uint256",
          "name": "tokenId",
          "type": "uint256"
        }
      ],
      "name": "transferFrom",
      "outputs": [],
      "stateMutability": "nonpayable",
      "type": "function"
    },
    {
      "inputs": [],
      "name": "wallegacyContract",
      "outputs": [
        {
          "internalType": "address",
          "name": "",
          "type": "address"
        }
      ],
      "stateMutability": "view",
      "type": "function"
    }
  ],
  "bytecode": "0x6080604052346100305761001a6100146101ab565b90610578565b610022610035565b6121756105fd823961217590f35b61003b565b60405190565b5f80fd5b601f801991011690565b634e487b7160e01b5f52604160045260245ffd5b906100679061003f565b810190811060018060401b0382111761007f57604052565b610049565b90610097610090610035565b928361005d565b565b5f80fd5b5f80fd5b5f80fd5b5f80fd5b60018060401b0381116100c5576100c160209161003f565b0190565b610049565b90825f9392825e0152565b909291926100ea6100e5826100a9565b610084565b9381855260208501908284011161010657610104926100ca565b565b6100a5565b9080601f8301121561012957816020610126935191016100d5565b90565b6100a1565b60018060a01b031690565b6101429061012e565b90565b61014e81610139565b0361015557565b5f80fd5b9050519061016682610145565b565b91906040838203126101a6575f8301519060018060401b0382116101a1576101958161019e93860161010b565b93602001610159565b90565b61009d565b610099565b6101c9612772803803806101be81610084565b928339810190610168565b9091565b906101df6101da836100a9565b610084565b918252565b5f7f57616c6c65676163790000000000000000000000000000000000000000000000910152565b61021560096101cd565b90610222602083016101e4565b565b61022c61020b565b90565b5f7f574c534254000000000000000000000000000000000000000000000000000000910152565b61026060056101cd565b9061026d6020830161022f565b565b610277610256565b90565b5190565b634e487b7160e01b5f52602260045260245ffd5b90600160028304921680156102b2575b60208310146102ad57565b61027e565b91607f16916102a2565b5f5260205f2090565b601f602091010490565b1b90565b919060086102ee9102916102e85f19846102cf565b926102cf565b9181191691161790565b90565b90565b61031261030d610317926102f8565b6102fb565b6102f8565b90565b90565b919061033361032e61033b936102fe565b61031a565b9083546102d3565b9055565b5f90565b6103559161034f61033f565b9161031d565b565b5b818110610363575050565b806103705f600193610343565b01610358565b9190601f8111610386575b505050565b6103926103b7936102bc565b90602061039e846102c5565b830193106103bf575b6103b0906102c5565b0190610357565b5f8080610381565b91506103b0819290506103a7565b1c90565b906103e1905f19906008026103cd565b191690565b816103f0916103d1565b906002021790565b906104028161027a565b9060018060401b0382116104c0576104248261041e8554610292565b85610376565b602090601f831160011461045857918091610447935f9261044c575b50506103e6565b90555b565b90915001515f80610440565b601f19831691610467856102bc565b925f5b8181106104a85750916002939185600196941061048e575b5050500201905561044a565b61049e910151601f8416906103d1565b90555f8080610482565b9193602060018192878701518155019501920161046a565b610049565b906104cf916103f8565b565b90565b6104e86104e36104ed926104d1565b6102fb565b61012e565b90565b6104f9906104d4565b90565b5f0190565b5f1b90565b9061051760018060a01b0391610501565b9181191691161790565b61053561053061053a9261012e565b6102fb565b61012e565b90565b61054690610521565b90565b6105529061053d565b90565b90565b9061056d61056861057492610549565b610555565b8254610506565b9055565b61059c90610595610587610224565b61058f61026f565b906105e5565b60066104c5565b806105b76105b16105ac5f6104f0565b610139565b91610139565b146105c9576105c7906008610558565b565b5f63779dea8d60e01b8152806105e1600482016104fc565b0390fd5b906105f36105fa925f6104c5565b60016104c5565b56fe60806040526004361015610013575b6108ba565b61001d5f3561011c565b806301ffc9a71461011757806306fdde0314610112578063081812fc1461010d578063095ea7b31461010857806323b872dd1461010357806342842e0e146100fe5780636352211e146100f9578063638a5222146100f45780636a627842146100ef57806370a08231146100ea57806389afcb44146100e557806395d89b41146100e0578063a22cb465146100db578063b88d4fde146100d6578063c87b56dd146100d15763e985e9c50361000e57610884565b610822565b6107eb565b610677565b6105f2565b6105bf565b61058a565b610535565b6104e2565b610469565b610435565b610401565b610393565b610309565b610257565b6101a8565b60e01c90565b60405190565b5f80fd5b5f80fd5b5f80fd5b63ffffffff60e01b1690565b61014981610134565b0361015057565b5f80fd5b9050359061016182610140565b565b9060208282031261017c57610179915f01610154565b90565b61012c565b151590565b61018f90610181565b9052565b91906101a6905f60208501940190610186565b565b346101d8576101d46101c36101be366004610163565b6108c2565b6101cb610122565b91829182610193565b0390f35b610128565b5f9103126101e757565b61012c565b5190565b60209181520190565b90825f9392825e0152565b601f801991011690565b61022d61023660209361023b93610224816101ec565b938480936101f0565b958691016101f9565b610204565b0190565b6102549160208201915f81840391015261020e565b90565b34610287576102673660046101dd565b610283610272610a46565b61027a610122565b9182918261023f565b0390f35b610128565b90565b6102988161028c565b0361029f57565b5f80fd5b905035906102b08261028f565b565b906020828203126102cb576102c8915f016102a3565b90565b61012c565b60018060a01b031690565b6102e4906102d0565b90565b6102f0906102db565b9052565b9190610307905f602085019401906102e7565b565b346103395761033561032461031f3660046102b2565b610a5f565b61032c610122565b918291826102f4565b0390f35b610128565b610347816102db565b0361034e57565b5f80fd5b9050359061035f8261033e565b565b9190604083820312610389578061037d610386925f8601610352565b936020016102a3565b90565b61012c565b5f0190565b346103c2576103ac6103a6366004610361565b90610a7e565b6103b4610122565b806103be8161038e565b0390f35b610128565b90916060828403126103fc576103f96103e2845f8501610352565b936103f08160208601610352565b936040016102a3565b90565b61012c565b346104305761041a6104143660046103c7565b91610af4565b610422610122565b8061042c8161038e565b0390f35b610128565b346104645761044e6104483660046103c7565b91610be0565b610456610122565b806104608161038e565b0390f35b610128565b346104995761049561048461047f3660046102b2565b610bf6565b61048c610122565b918291826102f4565b0390f35b610128565b1c90565b60018060a01b031690565b6104bd9060086104c2930261049e565b6104a2565b90565b906104d091546104ad565b90565b6104df60085f906104c5565b90565b34610512576104f23660046101dd565b61050e6104fd6104d3565b610505610122565b918291826102f4565b0390f35b610128565b906020828203126105305761052d915f01610352565b90565b61012c565b346105635761054d610548366004610517565b610db5565b610555610122565b8061055f8161038e565b0390f35b610128565b6105719061028c565b9052565b9190610588905f60208501940190610568565b565b346105ba576105b66105a56105a0366004610517565b610dfe565b6105ad610122565b91829182610575565b0390f35b610128565b346105ed576105d76105d2366004610517565b610f52565b6105df610122565b806105e98161038e565b0390f35b610128565b34610622576106023660046101dd565b61061e61060d610f5d565b610615610122565b9182918261023f565b0390f35b610128565b61063081610181565b0361063757565b5f80fd5b9050359061064882610627565b565b9190604083820312610672578061066661066f925f8601610352565b9360200161063b565b90565b61012c565b346106a65761069061068a36600461064a565b90610f73565b610698610122565b806106a28161038e565b0390f35b610128565b5f80fd5b5f80fd5b634e487b7160e01b5f52604160045260245ffd5b906106d190610204565b810190811067ffffffffffffffff8211176106eb57604052565b6106b3565b906107036106fc610122565b92836106c7565b565b67ffffffffffffffff81116107235761071f602091610204565b0190565b6106b3565b90825f939282370152565b9092919261074861074382610705565b6106f0565b938185526020850190828401116107645761076292610728565b565b6106af565b9080601f830112156107875781602061078493359101610733565b90565b6106ab565b906080828203126107e6576107a3815f8401610352565b926107b18260208501610352565b926107bf83604083016102a3565b92606082013567ffffffffffffffff81116107e1576107de9201610769565b90565b610130565b61012c565b3461081d576108076107fe36600461078c565b92919091610f89565b61080f610122565b806108198161038e565b0390f35b610128565b346108525761084e61083d6108383660046102b2565b611033565b610845610122565b9182918261023f565b0390f35b610128565b919060408382031261087f578061087361087c925f8601610352565b93602001610352565b90565b61012c565b346108b5576108b16108a061089a366004610857565b906110f2565b6108a8610122565b91829182610193565b0390f35b610128565b5f80fd5b5f90565b6108ca6108be565b50806108e56108df6380ac58cd60e01b610134565b91610134565b148015610909575b9081156108f9575b5090565b610903915061111a565b5f6108f5565b508061092461091e635b5e139f60e01b610134565b91610134565b146108ed565b606090565b634e487b7160e01b5f52602260045260245ffd5b9060016002830492168015610963575b602083101461095e57565b61092f565b91607f1691610953565b60209181520190565b5f5260205f2090565b905f929180549061099961099283610943565b809461096d565b916001811690815f146109f057506001146109b4575b505050565b6109c19192939450610976565b915f925b8184106109d857505001905f80806109af565b600181602092959395548486015201910192906109c5565b92949550505060ff19168252151560200201905f80806109af565b90610a159161097f565b90565b90610a38610a3192610a28610122565b93848092610a0b565b03836106c7565b565b610a4390610a18565b90565b610a4e61092a565b50610a585f610a3a565b90565b5f90565b610a7b90610a6b610a5b565b50610a7581611140565b506111ac565b90565b90610a929190610a8c6111cb565b916111d8565b565b90565b90565b610aae610aa9610ab392610a94565b610a97565b6102d0565b90565b610abf90610a9a565b90565b604090610aeb610af29496959396610ae160608401985f8501906102e7565b6020830190610568565b01906102e7565b565b919080610b11610b0b610b065f610ab6565b6102db565b916102db565b14610b6857610b299082610b236111cb565b916111e8565b9182610b3d610b37836102db565b916102db565b03610b4757505050565b610b649091925f9384936364283d7b60e01b855260048501610ac2565b0390fd5b610b8b610b745f610ab6565b5f918291633250574960e11b8352600483016102f4565b0390fd5b67ffffffffffffffff8111610bad57610ba9602091610204565b0190565b6106b3565b90610bc4610bbf83610b8f565b6106f0565b918252565b610bd25f610bb2565b90565b610bdd610bc9565b90565b91610bf49291610bee610bd5565b92610f89565b565b610c0890610c02610a5b565b50611140565b90565b5f1c90565b610c1c610c2191610c0b565b6104a2565b90565b610c2e9054610c10565b90565b33610c4d610c47610c426008610c24565b6102db565b916102db565b03610c5d57610c5b90610d0d565b565b5f6312e8cd6560e31b815280610c756004820161038e565b0390fd5b610c8d610c88610c9292610a94565b610a97565b61028c565b90565b610ca9610ca4610cae926102d0565b610a97565b6102d0565b90565b610cba90610c95565b90565b610cd1610ccc610cd6926102d0565b610a97565b61028c565b90565b610ce290610c95565b90565b610cee90610cd9565b90565b610d05610d00610d0a9261028c565b610a97565b61028c565b90565b610d1681610dfe565b610d28610d225f610c79565b9161028c565b03610d9657610d3e610d3982610cb1565b610cbd565b90610d4a818390611295565b90610d7e610d787f69180e5630fe9bd5b50dab3216e4151093508a9dfe7eb5fa1166632c7bc6593693610ce5565b91610cf1565b91610d87610122565b80610d918161038e565b0390a3565b610db1905f91829163176ba95b60e21b8352600483016102f4565b0390fd5b610dbe90610c31565b565b5f90565b90610dce90610ce5565b5f5260205260405f2090565b90565b610de9610dee91610c0b565b610dda565b90565b610dfb9054610ddd565b90565b610e06610dc0565b5080610e22610e1c610e175f610ab6565b6102db565b916102db565b14610e3d57610e35610e3a916003610dc4565b610df1565b90565b610e60610e495f610ab6565b5f9182916322718ad960e21b8352600483016102f4565b0390fd5b33610e80610e7a610e756008610c24565b6102db565b916102db565b03610e9057610e8e90610eac565b565b5f6312e8cd6560e31b815280610ea86004820161038e565b0390fd5b610ebd610eb882610cb1565b610cbd565b90610ec7826112ab565b610ed9610ed3836102db565b916102db565b03610f3357610ee7826112ca565b90610f1b610f157fd75d3ecd2740f7c61670e9bace498fe082f91ad8bb5ef14f9d967ff41ea7aba593610ce5565b91610cf1565b91610f24610122565b80610f2e8161038e565b0390a3565b610f4e905f91829163321eaecd60e21b8352600483016102f4565b0390fd5b610f5b90610e64565b565b610f6561092a565b50610f706001610a3a565b90565b610f8791610f7f6111cb565b919091611371565b565b91610fad9391610f9b84828491610af4565b610fa36111cb565b939091929361153b565b565b90565b5190565b610fbe610bc9565b90565b905090565b610feb610fe292602092610fd9816101ec565b94858093610fc1565b938491016101f9565b0190565b610ffd906110039392610fc6565b90610fc6565b90565b611025929161103191611017610122565b948592602084019283610fef565b908103825203836106c7565b565b61103b61092a565b5061104581611140565b5061104e61168f565b9061106061105b83610faf565b610fb2565b61107261106c5f610c79565b9161028c565b115f146110905761108661108c9291611760565b90611006565b5b90565b505061109a610fb6565b61108d565b906110a990610ce5565b5f5260205260405f2090565b906110bf90610ce5565b5f5260205260405f2090565b60ff1690565b6110dd6110e291610c0b565b6110cb565b90565b6110ef90546110d1565b90565b6111179161110d611112926111056108be565b50600561109f565b6110b5565b6110e5565b90565b6111226108be565b5061113c6111366301ffc9a760e01b610134565b91610134565b1490565b611148610a5b565b50611152816112ab565b908161116e6111686111635f610ab6565b6102db565b916102db565b14611177575090565b611192905f918291637e27328960e01b835260048301610575565b0390fd5b906111a090610cf1565b5f5260205260405f2090565b6111c36111c8916111bb610a5b565b506004611196565b610c24565b90565b6111d3610a5b565b503390565b916111e69291600192611847565b565b916111f1610a5b565b506111fb826112ab565b8061121661121061120b5f610ab6565b6102db565b916102db565b141580611272575b9081611255575b5061123957611236929190916119d8565b90565b5f63b15e956f60e01b8152806112516004820161038e565b0390fd5b905061126a61126485926102db565b916102db565b14155f611225565b508361128e6112886112835f610ab6565b6102db565b916102db565b141561121e565b906112a991906112a3610bd5565b91611b59565b565b6112c26112c7916112ba610a5b565b506002611196565b610c24565b90565b6112e66112d65f610ab6565b826112e05f610ab6565b916111e8565b6113006112fa6112f55f610ab6565b6102db565b916102db565b146113085750565b611323905f918291637e27328960e01b835260048301610575565b0390fd5b5f1b90565b9061133860ff91611327565b9181191691161790565b61134b90610181565b90565b90565b9061136661136161136d92611342565b61134e565b825461132c565b9055565b9190918261138f6113896113845f610ab6565b6102db565b916102db565b14611403576113b3826113ae6113a76005859061109f565b86906110b5565b611351565b9190916113fe6113ec6113e67f17307eab39ab6107e8899845ad3d59bd9653f200f220920489ca2b5937696c3193610ce5565b93610ce5565b936113f5610122565b91829182610193565b0390a3565b61141e835f918291630b61174360e31b8352600483016102f4565b0390fd5b61142b90610c95565b90565b61143790611422565b90565b61144390610cd9565b90565b60e01b90565b9050519061145982610140565b565b9060208282031261147457611471915f0161144c565b90565b61012c565b60209181520190565b6114a16114aa6020936114af9361149881610fb2565b93848093611479565b958691016101f9565b610204565b0190565b90926114e6906114dc6114f396946114d260808601975f8701906102e7565b60208501906102e7565b6040830190610568565b6060818403910152611482565b90565b9061150861150383610705565b6106f0565b918252565b606090565b3d5f1461152d576115223d6114f6565b903d5f602084013e5b565b61153561150d565b9061152b565b9193843b61155161154b5f610c79565b9161028c565b1161155e575b5050505050565b6115965f6020946115a16115796115748a61142e565b61143a565b9463150b7a0292969861158a610122565b998a9889978896611446565b8652600486016114b3565b03925af180915f9261165f575b50155f1461161c575060016115c957505b5f80808080611557565b6115d1611512565b906115db82610fb2565b6115ed6115e75f610c79565b9161028c565b145f146116135761160f905f918291633250574960e11b8352600483016102f4565b0390fd5b50602081519101fd5b61163561162f630a85bd0160e11b610134565b91610134565b0361164057506115bf565b61165b905f918291633250574960e11b8352600483016102f4565b0390fd5b61168191925060203d8111611688575b61167981836106c7565b81019061145b565b905f6115ae565b503d61166f565b61169761092a565b506116a0610fb6565b90565b90565b6116ba6116b56116bf926116a3565b610a97565b61028c565b90565b906116cd910161028c565b90565b369037565b906116fa6116e283610bb2565b926020806116f08693610b8f565b92019103906116d0565b565b6001611708910361028c565b90565b90565b61172261171d6117279261170b565b610a97565b61028c565b90565b634e487b7160e01b5f52601260045260245ffd5b61174a6117509161028c565b9161028c565b90811561175b570490565b61172a565b61176861092a565b5061178561177582611cfb565b61177f60016116a6565b906116c2565b9061178f826116d5565b91611798610dc0565b5060208301015b600115611802576117b26117de916116fc565b916f181899199a1a9b1b9c1cb0b131b232b360811b600a82061a83536117d8600a61170e565b9061173e565b806117f16117eb5f610c79565b9161028c565b146117fc579061179f565b50505b90565b50506117ff565b9061181a60018060a01b0391611327565b9181191691161790565b90565b9061183c61183761184392610ce5565b611824565b8254611809565b9055565b91909280801561196e575b611870575b50509061186961186e92916004611196565b611827565b565b61187984611140565b918061189561188f61188a5f610ab6565b6102db565b916102db565b141580611953575b80611939575b61191a5750916118699161186e94936118bf575b509192611857565b8184906118fe6118f86118f27f8c5be1e5ebec7d5bd14f71427d1e84f3dd0314c0f7b2291e5b200ac8c7c3b92595610ce5565b92610ce5565b92610cf1565b92611907610122565b806119118161038e565b0390a45f6118b7565b611935905f91829163a9fbf51f60e01b8352600483016102f4565b0390fd5b5061194e6119488483906110f2565b15610181565b6118a3565b5082611967611961836102db565b916102db565b141561189d565b508161198a61198461197f5f610ab6565b6102db565b916102db565b1415611852565b9061199c910361028c565b90565b906119ab5f1991611327565b9181191691161790565b90565b906119cd6119c86119d492610cf1565b6119b5565b825461199f565b9055565b906119e1610a5b565b506119eb816112ab565b9280611a07611a016119fc5f610ab6565b6102db565b916102db565b03611b46575b5082611a29611a23611a1e5f610ab6565b6102db565b916102db565b03611af2575b81611a4a611a44611a3f5f610ab6565b6102db565b916102db565b03611abc575b611a6582611a6060028490611196565b611827565b8291611aa3611a9d611a977fddf252ad1be2c89b69c2b068fc378daa952ba7f163c4a11628f55a4df523b3ef95610ce5565b92610ce5565b92610cf1565b92611aac610122565b80611ab68161038e565b0390a490565b611aed611ac960016116a6565b611ae7611ad860038690610dc4565b91611ae283610df1565b6116c2565b906119b8565b611a50565b611b10611afe5f610ab6565b82611b085f610ab6565b905f92611847565b611b41611b1d60016116a6565b611b3b611b2c60038790610dc4565b91611b3683610df1565b611991565b906119b8565b611a2f565b611b539084908391611f7f565b5f611a0d565b9091611b8592611b6a838290611ffb565b611b726111cb565b92611b7c5f610ab6565b9091929361153b565b565b90565b611b9e611b99611ba392611b87565b610a97565b61028c565b90565b90565b611bbd611bb8611bc292611ba6565b610a97565b61028c565b90565b90565b611bdc611bd7611be192611bc5565b610a97565b61028c565b90565b90565b611bfb611bf6611c0092611be4565b610a97565b61028c565b90565b90565b611c1a611c15611c1f92611c03565b610a97565b61028c565b90565b90565b611c39611c34611c3e92611c22565b610a97565b61028c565b90565b90565b611c58611c53611c5d92611c41565b610a97565b61028c565b90565b90565b611c77611c72611c7c92611c60565b610a97565b61028c565b90565b90565b611c96611c91611c9b92611c7f565b610a97565b61028c565b90565b90565b611cb5611cb0611cba92611c9e565b610a97565b61028c565b90565b90565b611cd4611ccf611cd992611cbd565b610a97565b61028c565b90565b90565b611cf3611cee611cf892611cdc565b610a97565b61028c565b90565b611d03610dc0565b50611d0d5f610c79565b9080611d3c611d367a184f03e93ff9f4daa797ed6e38ed64bf6a1f010000000000000000611b8a565b9161028c565b1015611f14575b80611d64611d5e6d04ee2d6d415b85acef8100000000611bc8565b9161028c565b1015611ed9575b80611d85611d7f662386f26fc10000611c06565b9161028c565b1015611ea5575b80611da3611d9d6305f5e100611c44565b9161028c565b1015611e74575b80611dbf611db9612710611c82565b9161028c565b1015611e45575b80611dda611dd46064611cc0565b9161028c565b1015611e17575b611df4611dee600a61170e565b9161028c565b1015611dfe575b90565b611e1290611e0c60016116a6565b906116c2565b611dfb565b611e2e611e3f91611e286064611cc0565b9061173e565b91611e396002611cdf565b906116c2565b90611de1565b611e5d611e6e91611e57612710611c82565b9061173e565b91611e686004611ca1565b906116c2565b90611dc6565b611e8e611e9f91611e886305f5e100611c44565b9061173e565b91611e996008611c63565b906116c2565b90611daa565b611ec2611ed391611ebc662386f26fc10000611c06565b9061173e565b91611ecd6010611c25565b906116c2565b90611d8c565b611efd611f0e91611ef76d04ee2d6d415b85acef8100000000611bc8565b9061173e565b91611f086020611be7565b906116c2565b90611d6b565b611f45611f5691611f3f7a184f03e93ff9f4daa797ed6e38ed64bf6a1f010000000000000000611b8a565b9061173e565b91611f506040611ba9565b906116c2565b90611d43565b916020611f7d929493611f7660408201965f8301906102e7565b0190610568565b565b611f94611f8e8284869161209f565b15610181565b611f9d57505050565b611fb7611fb1611fac5f610ab6565b6102db565b916102db565b145f14611fdd57611fd9825f918291637e27328960e01b835260048301610575565b0390fd5b611ff75f92839263177e802f60e01b845260048401611f5c565b0390fd5b908161201761201161200c5f610ab6565b6102db565b916102db565b1461207857612030919061202a5f610ab6565b916111e8565b61204a61204461203f5f610ab6565b6102db565b916102db565b0361205157565b61207461205d5f610ab6565b5f9182916339e3563760e11b8352600483016102f4565b0390fd5b61209b6120845f610ab6565b5f918291633250574960e11b8352600483016102f4565b0390fd5b91906120a96108be565b50806120c56120bf6120ba5f610ab6565b6102db565b916102db565b141592836120d4575b50505090565b80919293506120eb6120e5846102db565b916102db565b1490811561212d575b50918215612107575b50505f80806120ce565b61212591925061211961211f916111ac565b926102db565b916102db565b145f806120fd565b612139915082906110f2565b5f6120f456fea2646970667358221220ed00e9d6ea8d01ce63cccfc926c1756ff1ea02b6d99c687eb401aefeb9f7f8fd64736f6c634300081e0033",
  "linkReferences": {},
  "deployedLinkReferences": {},
  "immutableReferences": {},
  "inputSourceName": "project/contracts/WallegacySBT.sol",
  "buildInfoId": "solc-0_8_30-2cce9e88a7ce05608abb27f79a81a5cdcb08703f"
}