{
  "_format": "hh3-artifact-1",
  "contractName": "Wallegacy",
  "sourceName": "contracts/Wallegacy.sol",
  "abi": [
    {
      "inputs": [],
      "stateMutability": "nonpayable",
      "type": "constructor"
    },
    {
      "inputs": [],
      "name": "Wallegacy__NoHeirs",
      "type": "error"
    },
    {
      "inputs": [],
      "name": "Wallegacy__WillNotFound",
      "type": "error"
    },
    {
      "anonymous": false,
      "inputs": [],
      "name": "WillCreated",
      "type": "event"
    },
    {
      "inputs": [
        {
          "components": [
            {
              "internalType": "address",
              "name": "heirAddress",
              "type": "address"
            },
            {
              "internalType": "uint8",
              "name": "percent",
              "type": "uint8"
            }
          ],
          "internalType": "struct Wallegacy.Heir",
          "name": "heirsParams",
          "type": "tuple"
        }
      ],
      "name": "createWill",
      "outputs": [
        {
          "components": [
            {
              "internalType": "address",
              "name": "testator",
              "type": "address"
            },
            {
              "internalType": "enum Wallegacy.WillStatus",
              "name": "status",
              "type": "uint8"
            },
            {
              "internalType": "bool",
              "name": "gasPayed",
              "type": "bool"
            },
            {
              "internalType": "bool",
              "name": "exists",
              "type": "bool"
            },
            {
              "components": [
                {
                  "internalType": "address",
                  "name": "heirAddress",
                  "type": "address"
                },
                {
                  "internalType": "uint8",
                  "name": "percent",
                  "type": "uint8"
                }
              ],
              "internalType": "struct Wallegacy.Heir",
              "name": "heirs",
              "type": "tuple"
            }
          ],
          "internalType": "struct Wallegacy.Will",
          "name": "createdWill",
          "type": "tuple"
        }
      ],
      "stateMutability": "nonpayable",
      "type": "function"
    },
    {
      "inputs": [
        {
          "internalType": "address",
          "name": "testatrorAddress",
          "type": "address"
        }
      ],
      "name": "getWillByTestator",
      "outputs": [
        {
          "components": [
            {
              "internalType": "address",
              "name": "testator",
              "type": "address"
            },
            {
              "internalType": "enum Wallegacy.WillStatus",
              "name": "status",
              "type": "uint8"
            },
            {
              "internalType": "bool",
              "name": "gasPayed",
              "type": "bool"
            },
            {
              "internalType": "bool",
              "name": "exists",
              "type": "bool"
            },
            {
              "components": [
                {
                  "internalType": "address",
                  "name": "heirAddress",
                  "type": "address"
                },
                {
                  "internalType": "uint8",
                  "name": "percent",
                  "type": "uint8"
                }
              ],
              "internalType": "struct Wallegacy.Heir",
              "name": "heirs",
              "type": "tuple"
            }
          ],
          "internalType": "struct Wallegacy.Will",
          "name": "",
          "type": "tuple"
        }
      ],
      "stateMutability": "view",
      "type": "function"
    }
  ],
  "bytecode": "0x608060405234601c57600e6020565b6109f261002b82396109f290f35b6026565b60405190565b5f80fdfe60806040526004361015610013575b6102ff565b61001d5f3561003c565b80634c3e0567146100375763a94e5ea50361000e576102ca565b6101b5565b60e01c90565b60405190565b5f80fd5b5f80fd5b60018060a01b031690565b61006490610050565b90565b6100708161005b565b0361007757565b5f80fd5b9050359061008882610067565b565b906020828203126100a3576100a0915f0161007b565b90565b61004c565b6100b19061005b565b9052565b634e487b7160e01b5f52602160045260245ffd5b600411156100d357565b6100b5565b906100e2826100c9565b565b6100ed906100d8565b90565b6100f9906100e4565b9052565b151590565b61010b906100fd565b9052565b60ff1690565b61011e9061010f565b9052565b906020806101449361013a5f8201515f8601906100a8565b0151910190610115565b565b9060808061019e9361015e5f8201515f8601906100a8565b610170602082015160208601906100f0565b61018260408201516040860190610102565b61019460608201516060860190610102565b0151910190610122565b565b91906101b3905f60c08501940190610146565b565b346101e5576101e16101d06101cb36600461008a565b6105e8565b6101d8610042565b918291826101a0565b0390f35b610048565b5f80fd5b601f801991011690565b634e487b7160e01b5f52604160045260245ffd5b90610216906101ee565b810190811067ffffffffffffffff82111761023057604052565b6101f8565b90610248610241610042565b928361020c565b565b6102538161010f565b0361025a57565b5f80fd5b9050359061026b8261024a565b565b91906040838203126102a7576102a0906102876040610235565b93610294825f830161007b565b5f86015260200161025e565b6020830152565b6101ea565b906040828203126102c5576102c2915f0161026d565b90565b61004c565b346102fa576102f66102e56102e03660046102ac565b6108c0565b6102ed610042565b918291826101a0565b0390f35b610048565b5f80fd5b61030d60a0610235565b90565b5f90565b5f90565b5f90565b6103266040610235565b90565b5f90565b61033561031c565b9060208083610342610310565b81520161034d610329565b81525050565b61035b61032d565b90565b610366610303565b9060208080808086610376610310565b815201610381610314565b81520161038c610318565b815201610397610318565b8152016103a2610353565b81525050565b6103b061035e565b90565b90565b6103ca6103c56103cf92610050565b6103b3565b610050565b90565b6103db906103b6565b90565b6103e7906103d2565b90565b906103f4906103de565b5f5260205260405f2090565b5f1c90565b60018060a01b031690565b61041c61042191610400565b610405565b90565b61042e9054610410565b90565b9061043b9061005b565b9052565b60a01c90565b60ff1690565b61045761045c9161043f565b610445565b90565b610469905461044b565b90565b90610476906100d8565b9052565b60a81c90565b60ff1690565b6104926104979161047a565b610480565b90565b6104a49054610486565b90565b906104b1906100fd565b9052565b60b01c90565b6104c76104cc916104b5565b610480565b90565b6104d990546104bb565b90565b60ff1690565b6104ee6104f39161043f565b6104dc565b90565b61050090546104e2565b90565b9061050d9061010f565b9052565b9061054761053e5f61052161031c565b94610538610530838301610424565b838801610431565b016104f6565b60208401610503565b565b52565b906105c86105bf600161055d610303565b9461057461056c5f8301610424565b5f8801610431565b61058b6105825f830161045f565b6020880161046c565b6105a26105995f830161049a565b604088016104a7565b6105b96105b05f83016104cf565b606088016104a7565b01610511565b60808401610549565b565b6105d39061054c565b90565b6105e090516100fd565b90565b5f0190565b6105fe610603916105f76103a8565b505f6103ea565b6105ca565b610618610612606083016105d6565b156100fd565b61061f5790565b5f632c713d2d60e11b815280610637600482016105e3565b0390fd5b610645905161005b565b90565b90565b61065f61065a61066492610648565b6103b3565b610050565b90565b6106709061064b565b90565b61067d60a0610235565b90565b5f1b90565b9061069660018060a01b0391610680565b9181191691161790565b90565b906106b86106b36106bf926103de565b6106a0565b8254610685565b9055565b6106cd90516100d8565b90565b60a01b90565b906106e560ff60a01b916106d0565b9181191691161790565b6106f8906100d8565b90565b90565b9061071361070e61071a926106ef565b6106fb565b82546106d6565b9055565b60a81b90565b9061073360ff60a81b9161071e565b9181191691161790565b610746906100fd565b90565b90565b9061076161075c6107689261073d565b610749565b8254610724565b9055565b60b01b90565b9061078160ff60b01b9161076c565b9181191691161790565b906107a061079b6107a79261073d565b610749565b8254610772565b9055565b5190565b6107b9905161010f565b90565b6107d06107cb6107d59261010f565b6103b3565b61010f565b90565b90565b906107f06107eb6107f7926107bc565b6107d8565b82546106d6565b9055565b9061082560205f61082b9461081d82820161081784880161063b565b906106a3565b0192016107af565b906107db565b565b90610837916107fb565b565b906108ac608060016108b29461085c5f82016108565f880161063b565b906106a3565b6108745f820161086e602088016106c3565b906106fe565b61088c5f8201610886604088016105d6565b9061074c565b6108a45f820161089e606088016105d6565b9061078b565b0192016107ab565b9061082d565b565b906108be91610839565b565b6108c86103a8565b506108d45f820161063b565b6108ee6108e86108e35f610667565b61005b565b9161005b565b146109a05761095490610944339161093b5f916109325f61092960019395610920610917610673565b995f8b01610431565b6020890161046c565b604087016104a7565b606085016104a7565b60808301610549565b61094f5f33906103ea565b6108b4565b7f63f853409b9693102d3561fa063581a7f4dacbb889500a5e06a073565b861d5c61097d610042565b80610987816105e3565b0390a161099d6109985f33906103ea565b6105ca565b90565b5f6381a1a10760e01b8152806109b8600482016105e3565b0390fdfea2646970667358221220e1267f8293e46116e7d9e4cb33943f07651d5930cbb2d62089ac84d009d6e10964736f6c634300081e0033",
  "linkReferences": {},
  "deployedLinkReferences": {},
  "immutableReferences": {},
  "inputSourceName": "project/contracts/Wallegacy.sol",
  "buildInfoId": "solc-0_8_30-9c592c00d1423f9223ab984069fac6d6aa9c05fb"
}