{
  "_format": "hh3-artifact-1",
  "contractName": "Wallegacy",
  "sourceName": "contracts/Wallegacy.sol",
  "abi": [
    {
      "inputs": [
        {
          "internalType": "address",
          "name": "relayerAddress",
          "type": "address"
        }
      ],
      "stateMutability": "nonpayable",
      "type": "constructor"
    },
    {
      "inputs": [],
      "name": "WallegacySBT__NoAddress",
      "type": "error"
    },
    {
      "inputs": [],
      "name": "WallegacySBT__NotSet",
      "type": "error"
    },
    {
      "inputs": [
        {
          "internalType": "address",
          "name": "testatorAddress",
          "type": "address"
        },
        {
          "internalType": "address",
          "name": "heirAddress",
          "type": "address"
        },
        {
          "internalType": "uint256",
          "name": "heirAmount",
          "type": "uint256"
        }
      ],
      "name": "Wallegacy__ErrorSendingLegacy",
      "type": "error"
    },
    {
      "inputs": [
        {
          "internalType": "uint256",
          "name": "heirIndex",
          "type": "uint256"
        }
      ],
      "name": "Wallegacy__HeirWithoutAddress",
      "type": "error"
    },
    {
      "inputs": [
        {
          "internalType": "uint8",
          "name": "percent",
          "type": "uint8"
        }
      ],
      "name": "Wallegacy__NewWillNotGoodPercent",
      "type": "error"
    },
    {
      "inputs": [],
      "name": "Wallegacy__NoHeirs",
      "type": "error"
    },
    {
      "inputs": [],
      "name": "Wallegacy__NoTestator",
      "type": "error"
    },
    {
      "inputs": [],
      "name": "Wallegacy__NotEnoughAmount",
      "type": "error"
    },
    {
      "inputs": [
        {
          "internalType": "address",
          "name": "testatorAddress",
          "type": "address"
        }
      ],
      "name": "Wallegacy__TestatorAlreadyHasWill",
      "type": "error"
    },
    {
      "inputs": [],
      "name": "Wallegacy__Unauthorized",
      "type": "error"
    },
    {
      "inputs": [],
      "name": "Wallegacy__WillDone",
      "type": "error"
    },
    {
      "inputs": [
        {
          "internalType": "address",
          "name": "testatorAddress",
          "type": "address"
        }
      ],
      "name": "Wallegacy__WillNoValueLocked",
      "type": "error"
    },
    {
      "inputs": [
        {
          "internalType": "address",
          "name": "testatorAddress",
          "type": "address"
        }
      ],
      "name": "Wallegacy__WillNotFound",
      "type": "error"
    },
    {
      "inputs": [],
      "name": "Wallegacy__WillStatusNotCorrect",
      "type": "error"
    },
    {
      "anonymous": false,
      "inputs": [
        {
          "indexed": true,
          "internalType": "address",
          "name": "testatorAddress",
          "type": "address"
        }
      ],
      "name": "LegacySent",
      "type": "event"
    },
    {
      "anonymous": false,
      "inputs": [
        {
          "indexed": true,
          "internalType": "address",
          "name": "heirAddress",
          "type": "address"
        }
      ],
      "name": "LegacySentToHeir",
      "type": "event"
    },
    {
      "anonymous": false,
      "inputs": [
        {
          "indexed": true,
          "internalType": "address",
          "name": "sbtAddess",
          "type": "address"
        }
      ],
      "name": "SBTContractSet",
      "type": "event"
    },
    {
      "anonymous": false,
      "inputs": [
        {
          "indexed": true,
          "internalType": "address",
          "name": "testator",
          "type": "address"
        },
        {
          "indexed": false,
          "internalType": "uint256",
          "name": "amount",
          "type": "uint256"
        }
      ],
      "name": "TestatorValueLocked",
      "type": "event"
    },
    {
      "anonymous": false,
      "inputs": [
        {
          "indexed": true,
          "internalType": "address",
          "name": "testatorAddress",
          "type": "address"
        }
      ],
      "name": "WillCancelled",
      "type": "event"
    },
    {
      "anonymous": false,
      "inputs": [
        {
          "indexed": true,
          "internalType": "address",
          "name": "testator",
          "type": "address"
        }
      ],
      "name": "WillCreated",
      "type": "event"
    },
    {
      "inputs": [],
      "name": "cancelWill",
      "outputs": [],
      "stateMutability": "nonpayable",
      "type": "function"
    },
    {
      "inputs": [
        {
          "components": [
            {
              "internalType": "address",
              "name": "heirAddress",
              "type": "address"
            },
            {
              "internalType": "uint8",
              "name": "percent",
              "type": "uint8"
            }
          ],
          "internalType": "struct Wallegacy.Heir[]",
          "name": "heirsParams",
          "type": "tuple[]"
        }
      ],
      "name": "createWill",
      "outputs": [],
      "stateMutability": "payable",
      "type": "function"
    },
    {
      "inputs": [],
      "name": "getLockedValue",
      "outputs": [
        {
          "internalType": "uint256",
          "name": "",
          "type": "uint256"
        }
      ],
      "stateMutability": "view",
      "type": "function"
    },
    {
      "inputs": [],
      "name": "getWill",
      "outputs": [
        {
          "components": [
            {
              "internalType": "address",
              "name": "testator",
              "type": "address"
            },
            {
              "internalType": "enum Wallegacy.WillStatus",
              "name": "status",
              "type": "uint8"
            },
            {
              "internalType": "bool",
              "name": "gasPayed",
              "type": "bool"
            },
            {
              "internalType": "bool",
              "name": "exists",
              "type": "bool"
            },
            {
              "components": [
                {
                  "internalType": "address",
                  "name": "heirAddress",
                  "type": "address"
                },
                {
                  "internalType": "uint8",
                  "name": "percent",
                  "type": "uint8"
                }
              ],
              "internalType": "struct Wallegacy.Heir[]",
              "name": "heirs",
              "type": "tuple[]"
            }
          ],
          "internalType": "struct Wallegacy.Will",
          "name": "",
          "type": "tuple"
        }
      ],
      "stateMutability": "view",
      "type": "function"
    },
    {
      "inputs": [],
      "name": "isTestator",
      "outputs": [
        {
          "internalType": "bool",
          "name": "",
          "type": "bool"
        }
      ],
      "stateMutability": "view",
      "type": "function"
    },
    {
      "inputs": [],
      "name": "lockTestatorFunds",
      "outputs": [],
      "stateMutability": "payable",
      "type": "function"
    },
    {
      "inputs": [],
      "name": "sbtContract",
      "outputs": [
        {
          "internalType": "contract WallegacySBT",
          "name": "",
          "type": "address"
        }
      ],
      "stateMutability": "view",
      "type": "function"
    },
    {
      "inputs": [
        {
          "internalType": "address",
          "name": "_sbtContract",
          "type": "address"
        }
      ],
      "name": "setSBTContract",
      "outputs": [],
      "stateMutability": "nonpayable",
      "type": "function"
    },
    {
      "inputs": [
        {
          "internalType": "address",
          "name": "testatorAddress",
          "type": "address"
        }
      ],
      "name": "triggerLegacyProcess",
      "outputs": [],
      "stateMutability": "nonpayable",
      "type": "function"
    }
  ],
  "bytecode": "0x60a060405234610038576100196100146100fd565b61011e565b61002161003d565b611c89610124823960805181610cb80152611c8990f35b610043565b60405190565b5f80fd5b601f801991011690565b634e487b7160e01b5f52604160045260245ffd5b9061006f90610047565b810190811060018060401b0382111761008757604052565b610051565b9061009f61009861003d565b9283610065565b565b5f80fd5b60018060a01b031690565b6100b9906100a5565b90565b6100c5816100b0565b036100cc57565b5f80fd5b905051906100dd826100bc565b565b906020828203126100f8576100f5915f016100d0565b90565b6100a1565b61011b611dad803803806101108161008c565b9283398101906100df565b90565b60805256fe60806040526004361015610013575b6106ff565b61001d5f356100ac565b806306158360146100a75780631a1ab950146100a257806330095f891461009d57806360a0db8814610098578063ad88405914610093578063bf1b452f1461008e578063d5361f8a14610089578063d558204e146100845763e95a08660361000e576106d6565b6106a3565b61067a565b6104af565b61047a565b610420565b6103cb565b61034c565b610177565b60e01c90565b60405190565b5f80fd5b5f80fd5b5f9103126100ca57565b6100bc565b1c90565b60018060a01b031690565b6100ee9060086100f393026100cf565b6100d3565b90565b9061010191546100de565b90565b61011060035f906100f6565b90565b60018060a01b031690565b90565b61013561013061013a92610113565b61011e565b610113565b90565b61014690610121565b90565b6101529061013d565b90565b61015e90610149565b9052565b9190610175905f60208501940190610155565b565b346101a7576101873660046100c0565b6101a3610192610104565b61019a6100b2565b91829182610162565b0390f35b6100b8565b6101b590610113565b90565b6101c1906101ac565b9052565b634e487b7160e01b5f52602160045260245ffd5b600411156101e357565b6101c5565b906101f2826101d9565b565b6101fd906101e8565b90565b610209906101f4565b9052565b151590565b61021b9061020d565b9052565b5190565b60209181520190565b60200190565b60ff1690565b61024190610232565b9052565b906020806102679361025d5f8201515f8601906101b8565b0151910190610238565b565b9061027681604093610245565b0190565b60200190565b9061029d6102976102908461021f565b8093610223565b9261022c565b905f5b8181106102ad5750505090565b9091926102c66102c06001928651610269565b9461027a565b91019190916102a0565b61033191608060a08201926102eb5f8201515f8501906101b8565b6102fd60208201516020850190610200565b61030f60408201516040850190610212565b61032160608201516060850190610212565b0151906080818403910152610280565b90565b6103499160208201915f8184039101526102d0565b90565b3461037c5761035c3660046100c0565b610378610367610af7565b61036f6100b2565b91829182610334565b0390f35b6100b8565b5f80fd5b61038e816101ac565b0361039557565b5f80fd5b905035906103a682610385565b565b906020828203126103c1576103be915f01610399565b90565b6100bc565b5f0190565b346103f9576103e36103de3660046103a8565b610b9c565b6103eb6100b2565b806103f5816103c6565b0390f35b6100b8565b6104079061020d565b9052565b919061041e905f602085019401906103fe565b565b34610450576104303660046100c0565b61044c61043b610c31565b6104436100b2565b9182918261040b565b0390f35b6100b8565b90565b61046190610455565b9052565b9190610478905f60208501940190610458565b565b346104aa5761048a3660046100c0565b6104a6610495610c8f565b61049d6100b2565b91829182610465565b0390f35b6100b8565b346104dd576104c76104c23660046103a8565b610d19565b6104cf6100b2565b806104d9816103c6565b0390f35b6100b8565b5f80fd5b601f801991011690565b634e487b7160e01b5f52604160045260245ffd5b9061050e906104e6565b810190811067ffffffffffffffff82111761052857604052565b6104f0565b906105406105396100b2565b9283610504565b565b67ffffffffffffffff811161055a5760208091020190565b6104f0565b5f80fd5b5f80fd5b61057081610232565b0361057757565b5f80fd5b9050359061058882610567565b565b91906040838203126105c4576105bd906105a4604061052d565b936105b1825f8301610399565b5f86015260200161057b565b6020830152565b610563565b909291926105de6105d982610542565b61052d565b93818552604060208601920283019281841161061d57915b8383106106035750505050565b6020604091610612848661058a565b8152019201916105f6565b61055f565b9080601f830112156106405781602061063d933591016105c9565b90565b6104e2565b90602082820312610675575f82013567ffffffffffffffff81116106705761066d9201610622565b90565b610381565b6100bc565b61068d610688366004610645565b6115a8565b6106956100b2565b8061069f816103c6565b0390f35b346106d1576106b33660046100c0565b6106bb6117ad565b6106c36100b2565b806106cd816103c6565b0390f35b6100b8565b6106e13660046100c0565b6106e9611831565b6106f16100b2565b806106fb816103c6565b0390f35b5f80fd5b61070d60a061052d565b90565b5f90565b5f90565b5f90565b606090565b610729610703565b9060208080808086610739610710565b815201610744610714565b81520161074f610718565b81520161075a610718565b81520161076561071c565b81525050565b610773610721565b90565b61077f9061013d565b90565b9061078c90610776565b5f5260205260405f2090565b5f1c90565b60ff1690565b6107af6107b491610798565b61079d565b90565b6107c190546107a3565b90565b6107e16107db6107d660023390610782565b6107b7565b1561020d565b6107f1576107ee90610aa8565b90565b5f63e9ec9bb360e01b815280610809600482016103c6565b0390fd5b9061081790610776565b5f5260205260405f2090565b60018060a01b031690565b61083a61083f91610798565b610823565b90565b61084c905461082e565b90565b90610859906101ac565b9052565b60a01c90565b60ff1690565b61087561087a9161085d565b610863565b90565b6108879054610869565b90565b90610894906101e8565b9052565b60a81c90565b6108aa6108af91610898565b61079d565b90565b6108bc905461089e565b90565b906108c99061020d565b9052565b60b01c90565b6108df6108e4916108cd565b61079d565b90565b6108f190546108d3565b90565b5490565b9061090a61090583610542565b61052d565b918252565b5f5260205f2090565b60ff1690565b61092a61092f9161085d565b610918565b90565b61093c905461091e565b90565b9061094990610232565b9052565b610957604061052d565b90565b906109906109875f61096a61094d565b94610981610979838301610842565b83880161084f565b01610932565b6020840161093f565b565b61099b9061095a565b90565b906109a8826108f4565b6109b1816108f8565b926109bf602085019161090f565b5f915b8383106109cf5750505050565b6001602081926109de85610992565b8152019201920191906109c2565b52565b90610a6b610a626001610a00610703565b94610a17610a0f5f8301610842565b5f880161084f565b610a2e610a255f830161087d565b6020880161088a565b610a45610a3c5f83016108b2565b604088016108bf565b610a5c610a535f83016108e7565b606088016108bf565b0161099e565b608084016109ec565b565b610a76906109ef565b90565b610a83905161020d565b90565b610a8f906101ac565b9052565b9190610aa6905f60208501940190610a86565b565b50610abc610ab75f339061080d565b610a6d565b610ad1610acb60608301610a79565b1561020d565b610ad85790565b610af3335f91829163763da88160e11b835260048301610a93565b0390fd5b610b07610b0261076b565b6107c4565b90565b90565b610b21610b1c610b2692610b0a565b61011e565b610113565b90565b610b3290610b0d565b90565b610b3e90610121565b90565b610b4a90610b35565b90565b5f1b90565b90610b6360018060a01b0391610b4d565b9181191691161790565b610b7690610b35565b90565b90565b90610b91610b8c610b9892610b6d565b610b79565b8254610b52565b9055565b80610bb7610bb1610bac5f610b29565b6101ac565b916101ac565b14610c1157610bcf610bc882610b41565b6003610b7c565b610bf97f9ad04d4c6ba7e850cd07be1896cdd4db84780a1c030c4c2a2bc935bbe6bcfc0091610776565b90610c026100b2565b80610c0c816103c6565b0390a2565b5f639241a65160e01b815280610c29600482016103c6565b0390fd5b5f90565b610c39610c2d565b50610c4e610c4960023390610782565b6107b7565b90565b5f90565b90610c5f90610776565b5f5260205260405f2090565b90565b610c7a610c7f91610798565b610c6b565b90565b610c8c9054610c6e565b90565b610c97610c51565b50610cac610ca760013390610c55565b610c82565b90565b33610ce2610cdc7f00000000000000000000000000000000000000000000000000000000000000006101ac565b916101ac565b03610cf257610cf090610d0e565b565b5f631135d65360e11b815280610d0a600482016103c6565b0390fd5b610d1790611a28565b565b610d2290610caf565b565b610d30610d3591610798565b6100d3565b90565b610d429054610d24565b90565b610d57610d526003610d38565b610149565b610d71610d6b610d665f610b29565b6101ac565b916101ac565b14610d8157610d7f906112c2565b565b5f63330f558d60e01b815280610d99600482016103c6565b0390fd5b610db1610dac610db692610b0a565b61011e565b610455565b90565b610dcd610dc8610dd292610b0a565b61011e565b610232565b90565b6001610de19101610455565b90565b634e487b7160e01b5f52603260045260245ffd5b90610e028261021f565b811015610e13576020809102010190565b610de4565b610e2290516101ac565b90565b610e2f9051610232565b90565b634e487b7160e01b5f52601160045260245ffd5b610e52610e5891610232565b91610232565b019060ff8211610e6457565b610e32565b90565b610e80610e7b610e8592610e69565b61011e565b610232565b90565b610e9190610232565b9052565b9190610ea8905f60208501940190610e88565b565b610eb460a061052d565b90565b634e487b7160e01b5f525f60045260245ffd5b90565b90610ee2610edd610ee992610776565b610eca565b8254610b52565b9055565b610ef790516101e8565b90565b60a01b90565b90610f0f60ff60a01b91610efa565b9181191691161790565b610f22906101e8565b90565b90565b90610f3d610f38610f4492610f19565b610f25565b8254610f00565b9055565b60a81b90565b90610f5d60ff60a81b91610f48565b9181191691161790565b610f709061020d565b90565b90565b90610f8b610f86610f9292610f67565b610f73565b8254610f4e565b9055565b60b01b90565b90610fab60ff60b01b91610f96565b9181191691161790565b90610fca610fc5610fd192610f67565b610f73565b8254610f9c565b9055565b5190565b610fe8610fee91939293610455565b92610455565b91610ffa838202610455565b92818404149015171561100957565b610e32565b600190818003010490565b5f80910155565b905f036110325761103090611019565b565b610eb7565b5b818110611043575050565b806110505f600193611020565b01611038565b9091828110611065575b505050565b61108361107d61107761108e9561100e565b9261100e565b9261090f565b918201910190611037565b5f8080611060565b906801000000000000000081116110bf57816110b46110bd936108f4565b90828155611056565b565b6104f0565b5190565b6110dc6110d76110e192610232565b61011e565b610232565b90565b90565b906110fc6110f7611103926110c8565b6110e4565b8254610f00565b9055565b9061113160205f61113794611129828201611123848801610e18565b90610ecd565b019201610e25565b906110e7565b565b9061114391611107565b565b61116a6111646111548461021f565b9361115f8585611096565b61022c565b9161090f565b5f915b83831061117a5750505050565b600160208261119261118c84956110c4565b86611139565b0192019201919061116d565b906111a891611145565b565b9061121d60806001611223946111cd5f82016111c75f8801610e18565b90610ecd565b6111e55f82016111df60208801610eed565b90610f28565b6111fd5f82016111f760408801610a79565b90610f76565b6112155f820161120f60608801610a79565b90610fb5565b019201610fd5565b9061119e565b565b9061122f916111aa565b565b5f80fd5b60e01b90565b61124481610455565b0361124b57565b5f80fd5b9050519061125c8261123b565b565b9060208282031261127757611274915f0161124f565b90565b6100bc565b6112846100b2565b3d5f823e3d90fd5b9061129860ff91610b4d565b9181191691161790565b906112b76112b26112be92610f67565b610f73565b825461128c565b9055565b906112d76112d260023390610782565b6107b7565b611589576112e48261021f565b6112f66112f05f610d9d565b91610455565b1461156d573461130e6113085f610d9d565b91610455565b11156115515761131d5f610db9565b916113275f610d9d565b925b8361134461133e6113398561021f565b610455565b91610455565b10156113ce576113605f611359848790610df8565b5101610e18565b61137a61137461136f5f610b29565b6101ac565b916101ac565b146113af576113a36113a99161139d6020611396868990610df8565b5101610e25565b90610e46565b93610dd5565b92611329565b6113ca845f9182916321df4dfd60e01b835260048301610465565b0390fd5b90919250806113e66113e06064610e6c565b91610232565b036115325750611456906113f8611831565b611446339161143d6001916114345f61142b60019395611422611419610eaa565b995f8b0161084f565b6020890161088a565b604087016108bf565b606085016108bf565b608083016109ec565b6114515f339061080d565b611225565b611498602061146d6114686003610d38565b610149565b636a6278429061148d5f33936114816100b2565b96879586948593611235565b835260048301610a93565b03925af1801561152d57611501575b506114be60016114b960023390610782565b6112a2565b336114e97feeb70606d0471753bc0f18914e842c40fad1d77501bfb2c7c90df37f7cc1374f91610776565b906114f26100b2565b806114fc816103c6565b0390a2565b6115219060203d8111611526575b6115198183610504565b81019061125e565b6114a7565b503d61150f565b61127c565b61154d905f9182916333e5960f60e11b835260048301610e95565b0390fd5b5f631f7b263d60e01b815280611569600482016103c6565b0390fd5b5f6381a1a10760e01b815280611585600482016103c6565b0390fd5b6115a4335f91829163341b631d60e01b835260048301610a93565b0390fd5b6115b190610d45565b565b6115d06115ca6115c560023390610782565b6107b7565b1561020d565b6115de576115dc6115fa565b565b5f63e9ec9bb360e01b8152806115f6600482016103c6565b0390fd5b61160c6116076003610d38565b610149565b61162661162061161b5f610b29565b6101ac565b916101ac565b1461163557611633611683565b565b5f63330f558d60e01b81528061164d600482016103c6565b0390fd5b5f61165b91611096565b565b905f0361166f5761166d90611651565b565b610eb7565b5f91031261167e57565b6100bc565b61169a5f600161169482339061080d565b0161165d565b6116b05f5f6116aa81339061080d565b01610fb5565b6116c760035f6116c181339061080d565b01610f28565b6116dc5f6116d760023390610782565b6112a2565b6116ee6116e96003610d38565b610149565b6389afcb4433823b156117a857611724926117195f809461170d6100b2565b96879586948593611235565b835260048301610a93565b03925af180156117a357611777575b503361175f7fc17d6b506af5eb977ab917816ea2471b340abd3d29485bbbb1eec1fc468f38a991610776565b906117686100b2565b80611772816103c6565b0390a2565b611796905f3d811161179c575b61178e8183610504565b810190611674565b5f611733565b503d611784565b61127c565b611231565b6117b56115b3565b565b6117c66117cc91939293610455565b92610455565b82018092116117d757565b610e32565b906117e85f1991610b4d565b9181191691161790565b61180661180161180b92610455565b61011e565b610455565b90565b90565b9061182661182161182d926117f2565b61180e565b82546117dc565b9055565b3461184461183e5f610d9d565b91610455565b11156118b9576118723461186c61185d60013390610c55565b9161186783610c82565b6117b7565b90611811565b3334906118b46118a27f61d85293b98e7ffc5c0037f242855b175f52fb85a8c626f201b6905ae3531a7a92610776565b926118ab6100b2565b91829182610465565b0390a2565b5f631f7b263d60e01b8152806118d1600482016103c6565b0390fd5b90565b6118e1816108f4565b8210156118fb576118f360019161090f565b910201905f90565b610de4565b61191461190f61191992610232565b61011e565b610455565b90565b61193061192b61193592610e69565b61011e565b610455565b90565b634e487b7160e01b5f52601260045260245ffd5b61195861195e91610455565b91610455565b908115611969570490565b611938565b905090565b61197e5f809261196e565b0190565b61198b90611973565b90565b67ffffffffffffffff81116119ac576119a86020916104e6565b0190565b6104f0565b906119c36119be8361198e565b61052d565b918252565b606090565b3d5f146119e8576119dd3d6119b1565b903d5f602084013e5b565b6119f06119c8565b906119e6565b604090611a1f611a269496959396611a1560608401985f850190610a86565b6020830190610a86565b0190610458565b565b611a45611a3f611a3a60028490610782565b6107b7565b1561020d565b611c3757611a5c611a575f839061080d565b6118d5565b90611a71611a6c60018390610c55565b610c82565b611a7e60025f8501610f28565b611a9b611a8a5f610d9d565b611a9660018590610c55565b611811565b611aa45f610d9d565b5b80611ac3611abd611ab8600188016108f4565b610455565b91610455565b1015611bf157611b07611af783611af1611aec5f611ae560018b0188906118d8565b5001610932565b611900565b90610fd9565b611b01606461191c565b9061194c565b611b4c5f80611b2581611b1e60018b0188906118d8565b5001610842565b84611b2e6100b2565b9081611b3981611982565b03925af1611b456119cd565b501561020d565b611bb85750611bb390611b6e5f611b676001880184906118d8565b5001610842565b611b987fec41147ebc2cc79208cb6f7d256ffa8072b45ced3e1d6e464cee1afcc973d30b91610776565b90611ba16100b2565b80611bab816103c6565b0390a2610dd5565b611aa5565b84611bed611bd55f611bce8660018a96016118d8565b5001610842565b925f938493637c54d33360e01b8552600485016119f6565b0390fd5b50509050611c1f7fa3ed805e94c59604a546b6fcbda571425db926becf14e84467ba36d772fc02bc91610776565b90611c286100b2565b80611c32816103c6565b0390a2565b5f63e9ec9bb360e01b815280611c4f600482016103c6565b0390fdfea26469706673582212200779bc0acc881d5ad5a3537c5ed2d42172699e133dc3dd79627cadb99598608a64736f6c634300081e0033",
  "linkReferences": {},
  "deployedLinkReferences": {},
  "immutableReferences": {
    "6560": [
      {
        "length": 32,
        "start": 3256
      }
    ]
  },
  "inputSourceName": "project/contracts/Wallegacy.sol",
  "buildInfoId": "solc-0_8_30-07368fed5fc336b00c59facb71a8983fb8e111f3"
}