{
  "_format": "hh3-artifact-1",
  "contractName": "Wallegacy",
  "sourceName": "contracts/Wallegacy.sol",
  "abi": [
    {
      "inputs": [],
      "stateMutability": "nonpayable",
      "type": "constructor"
    },
    {
      "inputs": [],
      "name": "Wallegacy__HeirWihoutAddress",
      "type": "error"
    },
    {
      "inputs": [],
      "name": "Wallegacy__NoHeirs",
      "type": "error"
    },
    {
      "inputs": [],
      "name": "Wallegacy__WillNotFound",
      "type": "error"
    },
    {
      "anonymous": false,
      "inputs": [],
      "name": "WillCreated",
      "type": "event"
    },
    {
      "inputs": [
        {
          "components": [
            {
              "internalType": "address",
              "name": "heirAddress",
              "type": "address"
            },
            {
              "internalType": "uint8",
              "name": "percent",
              "type": "uint8"
            }
          ],
          "internalType": "struct Wallegacy.Heir[]",
          "name": "heirsParams",
          "type": "tuple[]"
        }
      ],
      "name": "createWill",
      "outputs": [
        {
          "components": [
            {
              "internalType": "address",
              "name": "testator",
              "type": "address"
            },
            {
              "internalType": "enum Wallegacy.WillStatus",
              "name": "status",
              "type": "uint8"
            },
            {
              "internalType": "bool",
              "name": "gasPayed",
              "type": "bool"
            },
            {
              "internalType": "bool",
              "name": "exists",
              "type": "bool"
            },
            {
              "components": [
                {
                  "internalType": "address",
                  "name": "heirAddress",
                  "type": "address"
                },
                {
                  "internalType": "uint8",
                  "name": "percent",
                  "type": "uint8"
                }
              ],
              "internalType": "struct Wallegacy.Heir[]",
              "name": "heirs",
              "type": "tuple[]"
            }
          ],
          "internalType": "struct Wallegacy.Will",
          "name": "createdWill",
          "type": "tuple"
        }
      ],
      "stateMutability": "nonpayable",
      "type": "function"
    },
    {
      "inputs": [
        {
          "internalType": "address",
          "name": "testatorAddress",
          "type": "address"
        }
      ],
      "name": "getWillByTestator",
      "outputs": [
        {
          "components": [
            {
              "internalType": "address",
              "name": "testator",
              "type": "address"
            },
            {
              "internalType": "enum Wallegacy.WillStatus",
              "name": "status",
              "type": "uint8"
            },
            {
              "internalType": "bool",
              "name": "gasPayed",
              "type": "bool"
            },
            {
              "internalType": "bool",
              "name": "exists",
              "type": "bool"
            },
            {
              "components": [
                {
                  "internalType": "address",
                  "name": "heirAddress",
                  "type": "address"
                },
                {
                  "internalType": "uint8",
                  "name": "percent",
                  "type": "uint8"
                }
              ],
              "internalType": "struct Wallegacy.Heir[]",
              "name": "heirs",
              "type": "tuple[]"
            }
          ],
          "internalType": "struct Wallegacy.Will",
          "name": "",
          "type": "tuple"
        }
      ],
      "stateMutability": "view",
      "type": "function"
    }
  ],
  "bytecode": "0x608060405234601c57600e6020565b610d9861002b8239610d9890f35b6026565b60405190565b5f80fdfe60806040526004361015610013575b610442565b61001d5f3561003c565b80634c3e0567146100375763d5361f8a0361000e5761040d565b610240565b60e01c90565b60405190565b5f80fd5b5f80fd5b5f80fd5b60018060a01b031690565b61006890610054565b90565b6100748161005f565b0361007b57565b5f80fd5b9050359061008c8261006b565b565b906020828203126100a7576100a4915f0161007f565b90565b61004c565b6100b59061005f565b9052565b634e487b7160e01b5f52602160045260245ffd5b600411156100d757565b6100b9565b906100e6826100cd565b565b6100f1906100dc565b90565b6100fd906100e8565b9052565b151590565b61010f90610101565b9052565b5190565b60209181520190565b60200190565b60ff1690565b61013590610126565b9052565b9060208061015b936101515f8201515f8601906100ac565b015191019061012c565b565b9061016a81604093610139565b0190565b60200190565b9061019161018b61018484610113565b8093610117565b92610120565b905f5b8181106101a15750505090565b9091926101ba6101b4600192865161015d565b9461016e565b9101919091610194565b61022591608060a08201926101df5f8201515f8501906100ac565b6101f1602082015160208501906100f4565b61020360408201516040850190610106565b61021560608201516060850190610106565b0151906080818403910152610174565b90565b61023d9160208201915f8184039101526101c4565b90565b346102705761026c61025b61025636600461008e565b610779565b610263610042565b91829182610228565b0390f35b610048565b5f80fd5b601f801991011690565b634e487b7160e01b5f52604160045260245ffd5b906102a190610279565b810190811067ffffffffffffffff8211176102bb57604052565b610283565b906102d36102cc610042565b9283610297565b565b67ffffffffffffffff81116102ed5760208091020190565b610283565b5f80fd5b5f80fd5b61030381610126565b0361030a57565b5f80fd5b9050359061031b826102fa565b565b9190604083820312610357576103509061033760406102c0565b93610344825f830161007f565b5f86015260200161030e565b6020830152565b6102f6565b9092919261037161036c826102d5565b6102c0565b9381855260406020860192028301928184116103b057915b8383106103965750505050565b60206040916103a5848661031d565b815201920191610389565b6102f2565b9080601f830112156103d3578160206103d09335910161035c565b90565b610275565b90602082820312610408575f82013567ffffffffffffffff81116104035761040092016103b5565b90565b610050565b61004c565b3461043d576104396104286104233660046103d8565b610be5565b610430610042565b91829182610228565b0390f35b610048565b5f80fd5b61045060a06102c0565b90565b5f90565b5f90565b5f90565b606090565b61046c610446565b906020808080808661047c610453565b815201610487610457565b81520161049261045b565b81520161049d61045b565b8152016104a861045f565b81525050565b6104b6610464565b90565b90565b6104d06104cb6104d592610054565b6104b9565b610054565b90565b6104e1906104bc565b90565b6104ed906104d8565b90565b906104fa906104e4565b5f5260205260405f2090565b5f1c90565b60018060a01b031690565b61052261052791610506565b61050b565b90565b6105349054610516565b90565b906105419061005f565b9052565b60a01c90565b60ff1690565b61055d61056291610545565b61054b565b90565b61056f9054610551565b90565b9061057c906100dc565b9052565b60a81c90565b60ff1690565b61059861059d91610580565b610586565b90565b6105aa905461058c565b90565b906105b790610101565b9052565b60b01c90565b6105cd6105d2916105bb565b610586565b90565b6105df90546105c1565b90565b5490565b906105f86105f3836102d5565b6102c0565b918252565b5f5260205f2090565b60ff1690565b61061861061d91610545565b610606565b90565b61062a905461060c565b90565b9061063790610126565b9052565b61064560406102c0565b90565b9061067e6106755f61065861063b565b9461066f61066783830161052a565b838801610537565b01610620565b6020840161062d565b565b61068990610648565b90565b90610696826105e2565b61069f816105e6565b926106ad60208501916105fd565b5f915b8383106106bd5750505050565b6001602081926106cc85610680565b8152019201920191906106b0565b52565b9061075961075060016106ee610446565b946107056106fd5f830161052a565b5f8801610537565b61071c6107135f8301610565565b60208801610572565b61073361072a5f83016105a0565b604088016105ad565b61074a6107415f83016105d5565b606088016105ad565b0161068c565b608084016106da565b565b610764906106dd565b90565b6107719051610101565b90565b5f0190565b61078f610794916107886104ae565b505f6104f0565b61075b565b6107a96107a360608301610767565b15610101565b6107b05790565b5f632c713d2d60e11b8152806107c860048201610774565b0390fd5b90565b90565b6107e66107e16107eb926107cf565b6104b9565b6107cc565b90565b60016107fa91016107cc565b90565b634e487b7160e01b5f52603260045260245ffd5b9061081b82610113565b81101561082c576020809102010190565b6107fd565b61083b905161005f565b90565b61085261084d610857926107cf565b6104b9565b610054565b90565b6108639061083e565b90565b61087060a06102c0565b90565b634e487b7160e01b5f525f60045260245ffd5b5f1b90565b9061089c60018060a01b0391610886565b9181191691161790565b90565b906108be6108b96108c5926104e4565b6108a6565b825461088b565b9055565b6108d390516100dc565b90565b60a01b90565b906108eb60ff60a01b916108d6565b9181191691161790565b6108fe906100dc565b90565b90565b90610919610914610920926108f5565b610901565b82546108dc565b9055565b60a81b90565b9061093960ff60a81b91610924565b9181191691161790565b61094c90610101565b90565b90565b9061096761096261096e92610943565b61094f565b825461092a565b9055565b60b01b90565b9061098760ff60b01b91610972565b9181191691161790565b906109a66109a16109ad92610943565b61094f565b8254610978565b9055565b5190565b600190818003010490565b5f80910155565b905f036109d9576109d7906109c0565b565b610873565b5b8181106109ea575050565b806109f75f6001936109c7565b016109df565b9091828110610a0c575b505050565b610a2a610a24610a1e610a35956109b5565b926109b5565b926105fd565b9182019101906109de565b5f8080610a07565b90680100000000000000008111610a665781610a5b610a64936105e2565b908281556109fd565b565b610283565b5190565b610a799051610126565b90565b610a90610a8b610a9592610126565b6104b9565b610126565b90565b90565b90610ab0610aab610ab792610a7c565b610a98565b82546108dc565b9055565b90610ae560205f610aeb94610add828201610ad7848801610831565b906108a9565b019201610a6f565b90610a9b565b565b90610af791610abb565b565b610b1e610b18610b0884610113565b93610b138585610a3d565b610120565b916105fd565b5f915b838310610b2e5750505050565b6001602082610b46610b408495610a6b565b86610aed565b01920192019190610b21565b90610b5c91610af9565b565b90610bd160806001610bd794610b815f8201610b7b5f8801610831565b906108a9565b610b995f8201610b93602088016108c9565b90610904565b610bb15f8201610bab60408801610767565b90610952565b610bc95f8201610bc360608801610767565b90610991565b0192016109b1565b90610b52565b565b90610be391610b5e565b565b610bed6104ae565b50610bf781610113565b610c09610c035f6107d2565b916107cc565b14610d4657610c175f6107d2565b5b80610c33610c2d610c2885610113565b6107cc565b916107cc565b1015610c9857610c4f5f610c48848490610811565b5101610831565b610c69610c63610c5e5f61085a565b61005f565b9161005f565b14610c7c57610c77906107ee565b610c18565b5f632478846f60e01b815280610c9460048201610774565b0390fd5b50610cfa90610cea3391610ce15f91610cd85f610ccf60019395610cc6610cbd610866565b995f8b01610537565b60208901610572565b604087016105ad565b606085016105ad565b608083016106da565b610cf55f33906104f0565b610bd9565b7f63f853409b9693102d3561fa063581a7f4dacbb889500a5e06a073565b861d5c610d23610042565b80610d2d81610774565b0390a1610d43610d3e5f33906104f0565b61075b565b90565b5f6381a1a10760e01b815280610d5e60048201610774565b0390fdfea26469706673582212201335d4327df3c1b28376b4157afefdc6c11c09bd0c48ed5c3a9d9c4c0a02fea264736f6c634300081e0033",
  "linkReferences": {},
  "deployedLinkReferences": {},
  "immutableReferences": {},
  "inputSourceName": "project/contracts/Wallegacy.sol",
  "buildInfoId": "solc-0_8_30-5638fbc8fd8fa85b33d258e4cdf9e3d20743e55a"
}