{
  "_format": "hh3-artifact-1",
  "contractName": "Wallegacy",
  "sourceName": "contracts/Wallegacy.sol",
  "abi": [
    {
      "inputs": [],
      "stateMutability": "nonpayable",
      "type": "constructor"
    },
    {
      "inputs": [
        {
          "internalType": "address",
          "name": "owner",
          "type": "address"
        }
      ],
      "name": "OwnableInvalidOwner",
      "type": "error"
    },
    {
      "inputs": [
        {
          "internalType": "address",
          "name": "account",
          "type": "address"
        }
      ],
      "name": "OwnableUnauthorizedAccount",
      "type": "error"
    },
    {
      "inputs": [],
      "name": "WallegacySBT__NoAddress",
      "type": "error"
    },
    {
      "inputs": [],
      "name": "WallegacySBT__NotSet",
      "type": "error"
    },
    {
      "inputs": [
        {
          "internalType": "address",
          "name": "testatorAddress",
          "type": "address"
        },
        {
          "internalType": "address",
          "name": "heirAddress",
          "type": "address"
        },
        {
          "internalType": "uint256",
          "name": "heirAmount",
          "type": "uint256"
        }
      ],
      "name": "Wallegacy__ErrorSendingLegacy",
      "type": "error"
    },
    {
      "inputs": [
        {
          "internalType": "uint256",
          "name": "heirIndex",
          "type": "uint256"
        }
      ],
      "name": "Wallegacy__HeirWithoutAddress",
      "type": "error"
    },
    {
      "inputs": [],
      "name": "Wallegacy__NewWillMissingNotary",
      "type": "error"
    },
    {
      "inputs": [
        {
          "internalType": "uint8",
          "name": "percent",
          "type": "uint8"
        }
      ],
      "name": "Wallegacy__NewWillNotGoodPercent",
      "type": "error"
    },
    {
      "inputs": [],
      "name": "Wallegacy__NoHeirs",
      "type": "error"
    },
    {
      "inputs": [
        {
          "internalType": "address",
          "name": "sender",
          "type": "address"
        }
      ],
      "name": "Wallegacy__NoTestator",
      "type": "error"
    },
    {
      "inputs": [],
      "name": "Wallegacy__NotEnoughAmount",
      "type": "error"
    },
    {
      "inputs": [
        {
          "internalType": "address",
          "name": "notaryAddress",
          "type": "address"
        }
      ],
      "name": "Wallegacy__NotaryNegativeNumberOfWill",
      "type": "error"
    },
    {
      "inputs": [
        {
          "internalType": "address",
          "name": "testatorAddress",
          "type": "address"
        }
      ],
      "name": "Wallegacy__TestatorAlreadyHasWill",
      "type": "error"
    },
    {
      "inputs": [
        {
          "internalType": "address",
          "name": "sender",
          "type": "address"
        }
      ],
      "name": "Wallegacy__TestatorWithoutWill",
      "type": "error"
    },
    {
      "inputs": [],
      "name": "Wallegacy__Unauthorized",
      "type": "error"
    },
    {
      "inputs": [
        {
          "internalType": "address",
          "name": "testatorAddress",
          "type": "address"
        }
      ],
      "name": "Wallegacy__WillAlreadySet",
      "type": "error"
    },
    {
      "inputs": [],
      "name": "Wallegacy__WillDone",
      "type": "error"
    },
    {
      "inputs": [
        {
          "internalType": "address",
          "name": "testatorAddress",
          "type": "address"
        }
      ],
      "name": "Wallegacy__WillNoValueLocked",
      "type": "error"
    },
    {
      "inputs": [
        {
          "internalType": "address",
          "name": "testatorAddress",
          "type": "address"
        }
      ],
      "name": "Wallegacy__WillNotFound",
      "type": "error"
    },
    {
      "inputs": [],
      "name": "Wallegacy__WillStatusNotCorrect",
      "type": "error"
    },
    {
      "anonymous": false,
      "inputs": [
        {
          "indexed": true,
          "internalType": "address",
          "name": "testatorAddress",
          "type": "address"
        }
      ],
      "name": "LegacySent",
      "type": "event"
    },
    {
      "anonymous": false,
      "inputs": [
        {
          "indexed": true,
          "internalType": "address",
          "name": "heirAddress",
          "type": "address"
        }
      ],
      "name": "LegacySentToHeir",
      "type": "event"
    },
    {
      "anonymous": false,
      "inputs": [
        {
          "indexed": true,
          "internalType": "address",
          "name": "notaryAddress",
          "type": "address"
        }
      ],
      "name": "NotaryAddWill",
      "type": "event"
    },
    {
      "anonymous": false,
      "inputs": [
        {
          "indexed": true,
          "internalType": "address",
          "name": "notaryAddress",
          "type": "address"
        }
      ],
      "name": "NotaryCancelWill",
      "type": "event"
    },
    {
      "anonymous": false,
      "inputs": [
        {
          "indexed": true,
          "internalType": "address",
          "name": "notaryAddress",
          "type": "address"
        },
        {
          "indexed": true,
          "internalType": "address",
          "name": "testatorAddress",
          "type": "address"
        }
      ],
      "name": "NotaryNewWill",
      "type": "event"
    },
    {
      "anonymous": false,
      "inputs": [
        {
          "indexed": true,
          "internalType": "address",
          "name": "notaryAddress",
          "type": "address"
        }
      ],
      "name": "NotaryNoMoreWill",
      "type": "event"
    },
    {
      "anonymous": false,
      "inputs": [
        {
          "indexed": true,
          "internalType": "address",
          "name": "notaryAddress",
          "type": "address"
        }
      ],
      "name": "NotaryRegistered",
      "type": "event"
    },
    {
      "anonymous": false,
      "inputs": [
        {
          "indexed": true,
          "internalType": "address",
          "name": "notaryAddress",
          "type": "address"
        }
      ],
      "name": "NotaryRemovedWill",
      "type": "event"
    },
    {
      "anonymous": false,
      "inputs": [
        {
          "indexed": true,
          "internalType": "address",
          "name": "previousOwner",
          "type": "address"
        },
        {
          "indexed": true,
          "internalType": "address",
          "name": "newOwner",
          "type": "address"
        }
      ],
      "name": "OwnershipTransferred",
      "type": "event"
    },
    {
      "anonymous": false,
      "inputs": [
        {
          "indexed": true,
          "internalType": "address",
          "name": "sbtAddess",
          "type": "address"
        }
      ],
      "name": "SBTContractSet",
      "type": "event"
    },
    {
      "anonymous": false,
      "inputs": [
        {
          "indexed": true,
          "internalType": "address",
          "name": "testatorAddress",
          "type": "address"
        }
      ],
      "name": "TestatorRegistered",
      "type": "event"
    },
    {
      "anonymous": false,
      "inputs": [
        {
          "indexed": true,
          "internalType": "address",
          "name": "testator",
          "type": "address"
        },
        {
          "indexed": false,
          "internalType": "uint256",
          "name": "amount",
          "type": "uint256"
        }
      ],
      "name": "TestatorValueLocked",
      "type": "event"
    },
    {
      "anonymous": false,
      "inputs": [
        {
          "indexed": true,
          "internalType": "address",
          "name": "testatorAddress",
          "type": "address"
        }
      ],
      "name": "WillCancelled",
      "type": "event"
    },
    {
      "anonymous": false,
      "inputs": [
        {
          "indexed": true,
          "internalType": "address",
          "name": "testator",
          "type": "address"
        }
      ],
      "name": "WillSetUp",
      "type": "event"
    },
    {
      "inputs": [],
      "name": "cancelWill",
      "outputs": [],
      "stateMutability": "nonpayable",
      "type": "function"
    },
    {
      "inputs": [
        {
          "internalType": "address",
          "name": "testatorAddress",
          "type": "address"
        }
      ],
      "name": "getLockedValue",
      "outputs": [
        {
          "internalType": "uint256",
          "name": "",
          "type": "uint256"
        }
      ],
      "stateMutability": "view",
      "type": "function"
    },
    {
      "inputs": [],
      "name": "getWill",
      "outputs": [
        {
          "components": [
            {
              "internalType": "address",
              "name": "testator",
              "type": "address"
            },
            {
              "internalType": "enum Wallegacy.WillStatus",
              "name": "status",
              "type": "uint8"
            },
            {
              "internalType": "bool",
              "name": "gasPayed",
              "type": "bool"
            },
            {
              "internalType": "bool",
              "name": "exists",
              "type": "bool"
            },
            {
              "components": [
                {
                  "internalType": "address",
                  "name": "heirAddress",
                  "type": "address"
                },
                {
                  "internalType": "uint8",
                  "name": "percent",
                  "type": "uint8"
                }
              ],
              "internalType": "struct Wallegacy.Heir[]",
              "name": "heirs",
              "type": "tuple[]"
            },
            {
              "internalType": "address",
              "name": "notary",
              "type": "address"
            }
          ],
          "internalType": "struct Wallegacy.Will",
          "name": "",
          "type": "tuple"
        }
      ],
      "stateMutability": "view",
      "type": "function"
    },
    {
      "inputs": [
        {
          "internalType": "address",
          "name": "notaryAddress",
          "type": "address"
        }
      ],
      "name": "isNotary",
      "outputs": [
        {
          "internalType": "bool",
          "name": "",
          "type": "bool"
        }
      ],
      "stateMutability": "view",
      "type": "function"
    },
    {
      "inputs": [],
      "name": "isTestator",
      "outputs": [
        {
          "internalType": "bool",
          "name": "",
          "type": "bool"
        }
      ],
      "stateMutability": "view",
      "type": "function"
    },
    {
      "inputs": [],
      "name": "lockTestatorFunds",
      "outputs": [],
      "stateMutability": "payable",
      "type": "function"
    },
    {
      "inputs": [
        {
          "internalType": "address",
          "name": "testatorAddress",
          "type": "address"
        }
      ],
      "name": "newWill",
      "outputs": [],
      "stateMutability": "nonpayable",
      "type": "function"
    },
    {
      "inputs": [],
      "name": "owner",
      "outputs": [
        {
          "internalType": "address",
          "name": "",
          "type": "address"
        }
      ],
      "stateMutability": "view",
      "type": "function"
    },
    {
      "inputs": [
        {
          "internalType": "address",
          "name": "notaryAddress",
          "type": "address"
        }
      ],
      "name": "registerNotary",
      "outputs": [],
      "stateMutability": "nonpayable",
      "type": "function"
    },
    {
      "inputs": [],
      "name": "renounceOwnership",
      "outputs": [],
      "stateMutability": "nonpayable",
      "type": "function"
    },
    {
      "inputs": [],
      "name": "sbtContract",
      "outputs": [
        {
          "internalType": "contract WallegacySBT",
          "name": "",
          "type": "address"
        }
      ],
      "stateMutability": "view",
      "type": "function"
    },
    {
      "inputs": [
        {
          "internalType": "address",
          "name": "_sbtContract",
          "type": "address"
        }
      ],
      "name": "setSBTContract",
      "outputs": [],
      "stateMutability": "nonpayable",
      "type": "function"
    },
    {
      "inputs": [
        {
          "components": [
            {
              "internalType": "address",
              "name": "heirAddress",
              "type": "address"
            },
            {
              "internalType": "uint8",
              "name": "percent",
              "type": "uint8"
            }
          ],
          "internalType": "struct Wallegacy.Heir[]",
          "name": "heirsParams",
          "type": "tuple[]"
        }
      ],
      "name": "setUpWill",
      "outputs": [],
      "stateMutability": "payable",
      "type": "function"
    },
    {
      "inputs": [
        {
          "internalType": "address",
          "name": "newOwner",
          "type": "address"
        }
      ],
      "name": "transferOwnership",
      "outputs": [],
      "stateMutability": "nonpayable",
      "type": "function"
    },
    {
      "inputs": [
        {
          "internalType": "address",
          "name": "testatorAddress",
          "type": "address"
        }
      ],
      "name": "triggerLegacyProcess",
      "outputs": [],
      "stateMutability": "nonpayable",
      "type": "function"
    }
  ],
  "bytecode": "0x60806040523461002757610011610036565b61001961002c565b6124d061020782396124d090f35b610032565b60405190565b5f80fd5b61003f336100a8565b565b90565b60018060a01b031690565b90565b61006661006161006b92610041565b61004f565b610044565b90565b61007790610052565b90565b61008390610044565b90565b61008f9061007a565b9052565b91906100a6905f60208501940190610086565b565b806100c36100bd6100b85f61006e565b61007a565b9161007a565b146100d3576100d1906101a7565b565b6100f66100df5f61006e565b5f918291631e4fbdf760e01b835260048301610093565b0390fd5b5f1c90565b60018060a01b031690565b61011661011b916100fa565b6100ff565b90565b610128905461010a565b90565b5f1b90565b9061014160018060a01b039161012b565b9181191691161790565b61015f61015a61016492610044565b61004f565b610044565b90565b6101709061014b565b90565b61017c90610167565b90565b90565b9061019761019261019e92610173565b61017f565b8254610130565b9055565b5f0190565b6101b05f61011e565b6101ba825f610182565b906101ee6101e87f8be0079c531659141344cd1fd0a4f28419497f9722a3daafe3b4186f6b6457e093610173565b91610173565b916101f761002c565b80610201816101a2565b0390a356fe60806040526004361015610013575b6108c8565b61001d5f3561010c565b80630615836014610107578063067a1e16146101025780631a1ab950146100fd57806324e22370146100f857806330095f89146100f357806360a0db88146100ee5780636d6ccbcf146100e9578063715018a6146100e45780638da5cb5b146100df578063b0c63693146100da578063bf1b452f146100d5578063d558204e146100d0578063e95a0866146100cb578063f13eed97146100c65763f2fde38b0361000e57610895565b610860565b610837565b610804565b6107d1565b61079e565b610769565b610714565b6106e1565b6106ac565b610657565b61062e565b61045c565b610282565b6101d7565b60e01c90565b60405190565b5f80fd5b5f80fd5b5f91031261012a57565b61011c565b1c90565b60018060a01b031690565b61014e906008610153930261012f565b610133565b90565b90610161915461013e565b90565b61017060065f90610156565b90565b60018060a01b031690565b90565b61019561019061019a92610173565b61017e565b610173565b90565b6101a690610181565b90565b6101b29061019d565b90565b6101be906101a9565b9052565b91906101d5905f602085019401906101b5565b565b34610207576101e7366004610120565b6102036101f2610164565b6101fa610112565b918291826101c2565b0390f35b610118565b5f80fd5b61021990610173565b90565b61022581610210565b0361022c57565b5f80fd5b9050359061023d8261021c565b565b9060208282031261025857610255915f01610230565b90565b61011c565b90565b6102699061025d565b9052565b9190610280905f60208501940190610260565b565b346102b2576102ae61029d61029836600461023f565b61091b565b6102a5610112565b9182918261026d565b0390f35b610118565b6102c090610210565b9052565b634e487b7160e01b5f52602160045260245ffd5b600411156102e257565b6102c4565b906102f1826102d8565b565b6102fc906102e7565b90565b610308906102f3565b9052565b151590565b61031a9061030c565b9052565b5190565b60209181520190565b60200190565b60ff1690565b61034090610331565b9052565b906020806103669361035c5f8201515f8601906102b7565b0151910190610337565b565b9061037581604093610344565b0190565b60200190565b9061039c61039661038f8461031e565b8093610322565b9261032b565b905f5b8181106103ac5750505090565b9091926103c56103bf6001928651610368565b94610379565b910191909161039f565b906104419060a08061043660c084016103ee5f8801515f8701906102b7565b610400602088015160208701906102ff565b61041260408801516040870190610311565b61042460608801516060870190610311565b6080870151858203608087015261037f565b9401519101906102b7565b90565b6104599160208201915f8184039101526103cf565b90565b3461048c5761046c366004610120565b610488610477610d41565b61047f610112565b91829182610444565b0390f35b610118565b5f80fd5b601f801991011690565b634e487b7160e01b5f52604160045260245ffd5b906104bd90610495565b810190811067ffffffffffffffff8211176104d757604052565b61049f565b906104ef6104e8610112565b92836104b3565b565b67ffffffffffffffff81116105095760208091020190565b61049f565b5f80fd5b5f80fd5b61051f81610331565b0361052657565b5f80fd5b9050359061053782610516565b565b91906040838203126105735761056c9061055360406104dc565b93610560825f8301610230565b5f86015260200161052a565b6020830152565b610512565b9092919261058d610588826104f1565b6104dc565b9381855260406020860192028301928184116105cc57915b8383106105b25750505050565b60206040916105c18486610539565b8152019201916105a5565b61050e565b9080601f830112156105ef578160206105ec93359101610578565b90565b610491565b90602082820312610624575f82013567ffffffffffffffff811161061f5761061c92016105d1565b90565b61020c565b61011c565b5f0190565b61064161063c3660046105f4565b6114e1565b610649610112565b8061065381610629565b0390f35b346106855761066f61066a36600461023f565b611533565b610677610112565b8061068181610629565b0390f35b610118565b6106939061030c565b9052565b91906106aa905f6020850194019061068a565b565b346106dc576106bc366004610120565b6106d86106c76115c8565b6106cf610112565b91829182610697565b0390f35b610118565b3461070f576106f96106f436600461023f565b611698565b610701610112565b8061070b81610629565b0390f35b610118565b3461074257610724366004610120565b61072c6116c8565b610734610112565b8061073e81610629565b0390f35b610118565b61075090610210565b9052565b9190610767905f60208501940190610747565b565b3461079957610779366004610120565b6107956107846116d6565b61078c610112565b91829182610754565b0390f35b610118565b346107cc576107b66107b136600461023f565b611983565b6107be610112565b806107c881610629565b0390f35b610118565b346107ff576107e96107e436600461023f565b6119e1565b6107f1610112565b806107fb81610629565b0390f35b610118565b3461083257610814366004610120565b61081c611c28565b610824610112565b8061082e81610629565b0390f35b610118565b610842366004610120565b61084a611db8565b610852610112565b8061085c81610629565b0390f35b346108905761088c61087b61087636600461023f565b611dc2565b610883610112565b91829182610697565b0390f35b610118565b346108c3576108ad6108a836600461023f565b611e46565b6108b5610112565b806108bf81610629565b0390f35b610118565b5f80fd5b5f90565b6108d99061019d565b90565b906108e6906108d0565b5f5260205260405f2090565b5f1c90565b90565b61090661090b916108f2565b6108f7565b90565b61091890546108fa565b90565b6109326109379161092a6108cc565b5060026108dc565b61090e565b90565b61094460c06104dc565b90565b5f90565b5f90565b5f90565b606090565b61096061093a565b906020808080808087610971610947565b81520161097c61094b565b81520161098761094f565b81520161099261094f565b81520161099d610953565b8152016109a8610947565b81525050565b6109b6610958565b90565b906109c3906108d0565b5f5260205260405f2090565b60ff1690565b6109e16109e6916108f2565b6109cf565b90565b6109f390546109d5565b90565b610a13610a0d610a08600333906109b9565b6109e9565b1561030c565b80610a48575b610a2957610a2690610cf1565b90565b610a44335f9182916376ffc6bf60e11b835260048301610754565b0390fd5b50610a5b610a5533611dc2565b1561030c565b610a19565b90610a6a906108d0565b5f5260205260405f2090565b60018060a01b031690565b610a8d610a92916108f2565b610a76565b90565b610a9f9054610a81565b90565b90610aac90610210565b9052565b60a01c90565b60ff1690565b610ac8610acd91610ab0565b610ab6565b90565b610ada9054610abc565b90565b90610ae7906102e7565b9052565b60a81c90565b610afd610b0291610aeb565b6109cf565b90565b610b0f9054610af1565b90565b90610b1c9061030c565b9052565b60b01c90565b610b32610b3791610b20565b6109cf565b90565b610b449054610b26565b90565b5490565b90610b5d610b58836104f1565b6104dc565b918252565b5f5260205f2090565b60ff1690565b610b7d610b8291610ab0565b610b6b565b90565b610b8f9054610b71565b90565b90610b9c90610331565b9052565b610baa60406104dc565b90565b90610be3610bda5f610bbd610ba0565b94610bd4610bcc838301610a95565b838801610aa2565b01610b85565b60208401610b92565b565b610bee90610bad565b90565b90610bfb82610b47565b610c0481610b4b565b92610c126020850191610b62565b5f915b838310610c225750505050565b600160208192610c3185610be5565b815201920192019190610c15565b52565b90610cd6610ccd6002610c5361093a565b94610c6a610c625f8301610a95565b5f8801610aa2565b610c81610c785f8301610ad0565b60208801610add565b610c98610c8f5f8301610b05565b60408801610b12565b610caf610ca65f8301610b3a565b60608801610b12565b610cc7610cbe60018301610bf1565b60808801610c3f565b01610a95565b60a08401610aa2565b565b610ce190610c42565b90565b610cee905161030c565b90565b50610d06610d0160013390610a60565b610cd8565b610d1b610d1560608301610ce4565b1561030c565b610d225790565b610d3d335f91829163763da88160e11b835260048301610754565b0390fd5b610d51610d4c6109ae565b6109f6565b90565b610d60610d65916108f2565b610133565b90565b610d729054610d54565b90565b90565b610d8c610d87610d9192610d75565b61017e565b610173565b90565b610d9d90610d78565b90565b610db2610dad6006610d68565b6101a9565b610dcc610dc6610dc15f610d94565b610210565b91610210565b14610ddc57610dda90610df8565b565b5f63330f558d60e01b815280610df460048201610629565b0390fd5b610e15610e0f610e0a600333906109b9565b6109e9565b1561030c565b80610e49575b610e2a57610e2890611241565b565b610e45335f9182916376ffc6bf60e11b835260048301610754565b0390fd5b50610e5c610e5633611dc2565b1561030c565b610e1b565b610e75610e70610e7a92610d75565b61017e565b61025d565b90565b90565b610e94610e8f610e9992610d75565b61017e565b610331565b90565b6001610ea8910161025d565b90565b634e487b7160e01b5f52603260045260245ffd5b90610ec98261031e565b811015610eda576020809102010190565b610eab565b610ee99051610210565b90565b610ef69051610331565b90565b634e487b7160e01b5f52601160045260245ffd5b610f19610f1f91610331565b91610331565b019060ff8211610f2b57565b610ef9565b90565b610f47610f42610f4c92610f30565b61017e565b610331565b90565b610f5890610331565b9052565b9190610f6f905f60208501940190610f4f565b565b5f80fd5b60e01b90565b610f848161025d565b03610f8b57565b5f80fd5b90505190610f9c82610f7b565b565b90602082820312610fb757610fb4915f01610f8f565b90565b61011c565b610fc4610112565b3d5f823e3d90fd5b634e487b7160e01b5f525f60045260245ffd5b610fee610ff49193929361025d565b9261025d565b9161100083820261025d565b92818404149015171561100f57565b610ef9565b600190818003010490565b5f80910155565b905f03611038576110369061101f565b565b610fcc565b5b818110611049575050565b806110565f600193611026565b0161103e565b909182811061106b575b505050565b61108961108361107d61109495611014565b92611014565b92610b62565b91820191019061103d565b5f8080611066565b906801000000000000000081116110c557816110ba6110c393610b47565b9082815561105c565b565b61049f565b5190565b5f1b90565b906110e460018060a01b03916110ce565b9181191691161790565b90565b9061110661110161110d926108d0565b6110ee565b82546110d3565b9055565b60a01b90565b9061112660ff60a01b91611111565b9181191691161790565b61114461113f61114992610331565b61017e565b610331565b90565b90565b9061116461115f61116b92611130565b61114c565b8254611117565b9055565b9061119960205f61119f9461119182820161118b848801610edf565b906110f1565b019201610eec565b9061114f565b565b906111ab9161116f565b565b6111d26111cc6111bc8461031e565b936111c7858561109c565b61032b565b91610b62565b5f915b8383106111e25750505050565b60016020826111fa6111f484956110ca565b866111a1565b019201920191906111d5565b90611210916111ad565b565b61121b906102e7565b90565b90565b9061123661123161123d92611212565b61121e565b8254611117565b9055565b61124a8161031e565b61125c6112565f610e61565b9161025d565b146114c5573461127461126e5f610e61565b9161025d565b11156114a95761128e61128960013390610a60565b610e7d565b906112a361129d5f8401610b3a565b1561030c565b61148a576112b05f610e80565b926112ba5f610e61565b935b846112d76112d16112cc8661031e565b61025d565b9161025d565b1015611361576112f35f6112ec858890610ebf565b5101610edf565b61130d6113076113025f610d94565b610210565b91610210565b146113425761133661133c916113306020611329878a90610ebf565b5101610eec565b90610f0d565b94610e9c565b936112bc565b61135d855f9182916321df4dfd60e01b83526004830161026d565b0390fd5b93509190836113796113736064610f33565b91610331565b0361146b576113cb92935061138c611db8565b60206113a061139b6006610d68565b6101a9565b636a627842906113c05f33936113b4610112565b98899586948593610f75565b835260048301610754565b03925af1908115611466576113f7936113ed9261143a575b5060018301611206565b5f60019101611221565b336114227f2876366326174fcdb3de4d2c886645201d572dcc433593a3369e8da520e4c106916108d0565b9061142b610112565b8061143581610629565b0390a2565b61145a9060203d811161145f575b61145281836104b3565b810190610f9e565b6113e3565b503d611448565b610fbc565b611486845f9182916333e5960f60e11b835260048301610f5c565b0390fd5b6114a5335f91829163bf8b146560e01b835260048301610754565b0390fd5b5f631f7b263d60e01b8152806114c160048201610629565b0390fd5b5f6381a1a10760e01b8152806114dd60048201610629565b0390fd5b6114ea90610da0565b565b6114f590610181565b90565b611501906114ec565b90565b61150d906114ec565b90565b90565b9061152861152361152f92611504565b611510565b82546110d3565b9055565b8061154e6115486115435f610d94565b610210565b91610210565b146115a85761156661155f826114f8565b6006611513565b6115907f9ad04d4c6ba7e850cd07be1896cdd4db84780a1c030c4c2a2bc935bbe6bcfc00916108d0565b90611599610112565b806115a381610629565b0390a2565b5f639241a65160e01b8152806115c060048201610629565b0390fd5b5f90565b6115d06115c4565b506115e56115e0600333906109b9565b6109e9565b90565b6115f9906115f4611e51565b611640565b565b9061160760ff916110ce565b9181191691161790565b61161a9061030c565b90565b90565b9061163561163061163c92611611565b61161d565b82546115fb565b9055565b6116566001611651600584906109b9565b611620565b6116807f1e59e06fbc9b065c65d072c1f7a2ed1d81154e6e57768747c6c082207dca7308916108d0565b90611689610112565b8061169381610629565b0390a2565b6116a1906115e8565b565b6116ab611e51565b6116b36116b5565b565b6116c66116c15f610d94565b611e9f565b565b6116d06116a3565b565b5f90565b6116de6116d2565b506116e85f610a95565b90565b6117086117026116fd600533906109b9565b6109e9565b1561030c565b6117175761171590611874565b565b5f631135d65360e11b81528061172f60048201610629565b0390fd5b606090565b61174260c06104dc565b90565b61174f90516102e7565b90565b60a81b90565b9061176760ff60a81b91611752565b9181191691161790565b9061178661178161178d92611611565b61161d565b8254611758565b9055565b60b01b90565b906117a660ff60b01b91611791565b9181191691161790565b906117c56117c06117cc92611611565b61161d565b8254611797565b9055565b5190565b9061186060a06002611866946117f75f82016117f15f8801610edf565b906110f1565b61180f5f820161180960208801611745565b90611221565b6118275f820161182160408801610ce4565b90611771565b61183f5f820161183960608801610ce4565b906117b0565b61185860018201611852608088016117d0565b90611206565b019201610edf565b906110f1565b565b90611872916117d4565b565b61188a5f61188460018490610a60565b01610b3a565b61196457611906611899611733565b6118f583916118ec5f916118e35f916118da600191936118d133976118c86118bf611738565b9b5f8d01610aa2565b60208b01610add565b60408901610b12565b60608701610b12565b60808501610c3f565b60a08301610aa2565b61190160018490610a60565b611868565b61190f81611efe565b611917612022565b339061194c6119467fa13d29c70439b6e78acbb3edfde073aead7bc08e982c0bbfc2d8ac984c6b3d66936108d0565b916108d0565b91611955610112565b8061195f81610629565b0390a3565b61197f905f918291637f281e0960e01b835260048301610754565b0390fd5b61198c906116eb565b565b6119ab6119a56119a0600533906109b9565b6109e9565b1561030c565b6119ba576119b8906119d6565b565b5f631135d65360e11b8152806119d260048201610629565b0390fd5b6119df9061217c565b565b6119ea9061198e565b565b611a09611a036119fe600333906109b9565b6109e9565b1561030c565b80611a3c575b611a1d57611a1b611a54565b565b611a38335f9182916376ffc6bf60e11b835260048301610754565b0390fd5b50611a4f611a4933611dc2565b1561030c565b611a0f565b611a66611a616006610d68565b6101a9565b611a80611a7a611a755f610d94565b610210565b91610210565b14611a8f57611a8d611add565b565b5f63330f558d60e01b815280611aa760048201610629565b0390fd5b5f611ab59161109c565b565b905f03611ac957611ac790611aab565b565b610fcc565b5f910312611ad857565b61011c565b611af45f6001611aee813390610a60565b01611ab7565b611b0b5f5f611b0560013390610a60565b016117b0565b611b2360035f611b1d60013390610a60565b01611221565b611b385f611b33600333906109b9565b611620565b611b57611b526002611b4c60013390610a60565b01610a95565b6123db565b611b69611b646006610d68565b6101a9565b6389afcb4433823b15611c2357611b9f92611b945f8094611b88610112565b96879586948593610f75565b835260048301610754565b03925af18015611c1e57611bf2575b5033611bda7fc17d6b506af5eb977ab917816ea2471b340abd3d29485bbbb1eec1fc468f38a9916108d0565b90611be3610112565b80611bed81610629565b0390a2565b611c11905f3d8111611c17575b611c0981836104b3565b810190611ace565b5f611bae565b503d611bff565b610fbc565b610f71565b611c306119ec565b565b611c4f611c49611c44600333906109b9565b6109e9565b1561030c565b80611c82575b611c6357611c61611d14565b565b611c7e335f9182916376ffc6bf60e11b835260048301610754565b0390fd5b50611c95611c8f33611dc2565b1561030c565b611c55565b611ca9611caf9193929361025d565b9261025d565b8201809211611cba57565b610ef9565b90611ccb5f19916110ce565b9181191691161790565b611ce9611ce4611cee9261025d565b61017e565b61025d565b90565b90565b90611d09611d04611d1092611cd5565b611cf1565b8254611cbf565b9055565b34611d27611d215f610e61565b9161025d565b1115611d9c57611d5534611d4f611d40600233906108dc565b91611d4a8361090e565b611c9a565b90611cf4565b333490611d97611d857f61d85293b98e7ffc5c0037f242855b175f52fb85a8c626f201b6905ae3531a7a926108d0565b92611d8e610112565b9182918261026d565b0390a2565b5f631f7b263d60e01b815280611db460048201610629565b0390fd5b611dc0611c32565b565b611dd9611dde91611dd16115c4565b5060056109b9565b6109e9565b90565b611df290611ded611e51565b611df4565b565b80611e0f611e09611e045f610d94565b610210565b91610210565b14611e1f57611e1d90611e9f565b565b611e42611e2b5f610d94565b5f918291631e4fbdf760e01b835260048301610754565b0390fd5b611e4f90611de1565b565b611e596116d6565b611e72611e6c611e6761248d565b610210565b91610210565b03611e7957565b611e9b611e8461248d565b5f91829163118cdaa760e01b835260048301610754565b0390fd5b611ea85f610a95565b611eb2825f6110f1565b90611ee6611ee07f8be0079c531659141344cd1fd0a4f28419497f9722a3daafe3b4186f6b6457e0936108d0565b916108d0565b91611eef610112565b80611ef981610629565b0390a3565b611f146001611f0f600384906109b9565b611620565b611f3e7f4ae785db89f2d840bd297642a60ba580a721c04f519d8b0ed74c1c21dbed9ce7916108d0565b90611f47610112565b80611f5181610629565b0390a2565b611f73611f6d611f68600533906109b9565b6109e9565b1561030c565b611f8157611f7f611fb9565b565b5f631135d65360e11b815280611f9960048201610629565b0390fd5b611fa69061025d565b5f198114611fb45760010190565b610ef9565b611fdf611fc8600433906108dc565b611fd9611fd48261090e565b611f9d565b90611cf4565b3361200a7fb5c28e16753a6b54e6cece016a01a2d4c136b9cab7594a8a454319d4c734acaf916108d0565b90612013610112565b8061201d81610629565b0390a2565b61202a611f56565b565b61203581610b47565b82101561204f57612047600191610b62565b910201905f90565b610eab565b61206861206361206d92610331565b61017e565b61025d565b90565b61208461207f61208992610f30565b61017e565b61025d565b90565b634e487b7160e01b5f52601260045260245ffd5b6120ac6120b29161025d565b9161025d565b9081156120bd570490565b61208c565b905090565b6120d25f80926120c2565b0190565b6120df906120c7565b90565b67ffffffffffffffff8111612100576120fc602091610495565b0190565b61049f565b90612117612112836120e2565b6104dc565b918252565b606090565b3d5f1461213c576121313d612105565b903d5f602084013e5b565b61214461211c565b9061213a565b60409061217361217a949695939661216960608401985f850190610747565b6020830190610747565b0190610260565b565b61219961219361218e600384906109b9565b6109e9565b1561030c565b6123a0576121b16121ac60018390610a60565b610e7d565b906121c66121c1600283906108dc565b61090e565b6121d360025f8501611221565b6121f06121df5f610e61565b6121eb600285906108dc565b611cf4565b6122046121ff60028501610a95565b6123db565b61220d5f610e61565b5b8061222c61222661222160018801610b47565b61025d565b9161025d565b101561235a576122706122608361225a6122555f61224e60018b01889061202c565b5001610b85565b612054565b90610fdf565b61226a6064612070565b906120a0565b6122b55f8061228e8161228760018b01889061202c565b5001610a95565b84612297610112565b90816122a2816120d6565b03925af16122ae612121565b501561030c565b612321575061231c906122d75f6122d060018801849061202c565b5001610a95565b6123017fec41147ebc2cc79208cb6f7d256ffa8072b45ced3e1d6e464cee1afcc973d30b916108d0565b9061230a610112565b8061231481610629565b0390a2610e9c565b61220e565b8461235661233e5f6123378660018a960161202c565b5001610a95565b925f938493637c54d33360e01b85526004850161214a565b0390fd5b505090506123887fa3ed805e94c59604a546b6fcbda571425db926becf14e84467ba36d772fc02bc916108d0565b90612391610112565b8061239b81610629565b0390a2565b6123bb905f9182916376ffc6bf60e11b835260048301610754565b0390fd5b6123c89061025d565b5f81146123d6576001900390565b610ef9565b6124016123ea600483906108dc565b6123fb6123f68261090e565b6123bf565b90611cf4565b612415612410600483906108dc565b61090e565b6124276124215f610e61565b9161025d565b1061246e576124567faa8e8e0dbb760f50d1c72b5650c4435a8564574a5e6b937feac03a8699f0a3dd916108d0565b9061245f610112565b8061246981610629565b0390a2565b612489905f918291632e3159cb60e01b835260048301610754565b0390fd5b6124956116d2565b50339056fea264697066735822122075fc8f414dded8ec6a0dd2ff71b7a27ce33e9235e69d2c6f8154e8b3889bf7ba64736f6c634300081e0033",
  "linkReferences": {},
  "deployedLinkReferences": {},
  "immutableReferences": {},
  "inputSourceName": "project/contracts/Wallegacy.sol",
  "buildInfoId": "solc-0_8_30-28b400d9dae6ab3bd543dc5e65d9640ed3eea52c"
}